S315080000005815002051020008CD2C00085D2800086C
S31508000010C92C00086B0400085D30000800000000C9
S31508000020000000000000000000000000D32C0008BB
S315080000309104000800000000D12C0008D52C000807
S315080000406B0200086B0200086B0200086B020008CE
S315080000506B0200086B0200086B0200086B020008BE
S315080000606B0200086B0200086B0200086B020008AE
S315080000706B0200086B0200086B0200086B0200089E
S3150800008071040008810400086B0200086B0200086E
S315080000906B0200086B0200086B0200086B0200087E
S315080000A06B0200086B0200086B0200086B0200086E
S315080000B0F12C00086B020008012D00086B020008ED
S315080000C06B0200086B0200086B0200086B0200084E
S315080000D06B0200086B0200084D3000086B0200082E
S315080000E06B0200086B0200086B020008112D00085D
S315080000F0412D0008312D0008212D00086B0200084B
S315080001006B0200086B0200086B0200086B0200080D
S315080001106B0200086B0200086B0200086B020008FD
S315080001206B0200086B0200086B0200086B020008ED
S315080001306B0200086B0200086B0200086B020008DD
S315080001406B0200086B0200086B0200086B020008CD
S315080001506B0200086B0200086B0200086B020008BD
S315080001606B0200086B0200086B0200086B020008AD
S315080001706B0200086B0200086B0200080000000012
S315080001806B0200086B0200086B0200086B0200088D
S315080001906B0200086B0200086B0200086B0200087D
S315080001A000000000000000006B02000800F002F8E2
S315080001B000F03EF80AA090E8000C82448344AAF1B5
S315080001C00107DA4501D100F033F8AFF2090EBAE8B3
S315080001D00F0013F0010F18BFFB1A43F0010318476D
S315080001E088430000A8430000103A24BF78C878C1A5
S315080001F0FAD8520724BF30C830C144BF04680C601F
S31508000200704700000023002400250026103A28BF66
S3150800021078C1FBD8520728BF30C148BF0B6070476A
S315080002201FB504F08BF900F0D5F81FBD10B510BD49
S3150800023000F0E6F81146FFF7F3FF04F033F800F094
S3150800024004F903B4FFF7F2FF03BC00F007F9000056
S315080002500948804709480047FEE7FEE7FEE7FEE74C
S31508000260FEE7FEE7FEE7FEE7FEE7FEE70448054988
S31508000270054A064B70470000DD2C0008AD01000852
S31508000280580F00205815002058110020581100203A
S3150800029053EA020C00F069802DE9F04B4FF0000696
S315080002A0002B1FBFB3FA83F503FA05F424FA05F603
S315080002B05E4012BF1643B2FA82F502FA05F4C5F19A
S315080002C020051EBF22FA05FC44EA0C04203556EA2E
S315080002D0044C4FEA144418BF641C4FF000084FF052
S315080002E00009904271EB030C39D3002919BFB1FA02
S315080002F081F701FA07F6B0FA80F700FA07F6C7F1B0
S3150800030020071EBF20FA07FC46EA0C062037B6FB74
S31508000310F4FCA7EB0507103F07F01F0BCBF12006EF
S315080003200CFA0BFB2CFA06F644BFB3460026202F20
S31508000330A4BF5E464FF0000B5BEA060C08BF4FF001
S31508000340010B19EB0B09ABFB027C48EB0608C01B3B
S3150800035006FB02CC0BFB03CC71EB0C01C1E70B4689
S31508000360024641464846BDE8F08B13B54FF00000FB
S315080003704FF00001AFF30080BDE81C4070474FF016
S31508000380000200B5134694469646203922BFA0E8D7
S315080003900C50A0E80C50B1F12001BFF4F7AF0907E3
S315080003A028BFA0E80C5048BF0CC05DF804EB8900D4
S315080003B028BF40F8042B08BF704748BF20F8022B17
S315080003C011F0804F18BF00F8012B7047704770472F
S315080003D07047000070B5064C7C44064D7D4403E02A
S315080003E0206820448047241DAC42F9D170BD000026
S315080003F0AC410000AC41000000487047F40E0020F4
S315080004007546FFF7F9FFAE4605006946534620F0E4
S315080004100700854618B020B5FFF728FFBDE820403D
S315080004204FF000064FF000074FF000084FF0000BA2
S3150800043021F00701AC46ACE8C009ACE8C009ACE855
S31508000440C009ACE8C0098D46704710B50446AFF33D
S3150800045000802046BDE81040FFF7F3BE014918208A
S31508000460ABBEFEE726000200704700BFFEE70000AD
S3150800047010B5024800F07AF810BD0000FC01002013
S3150800048010B5024800F072F810BD00005C020020AA
S31508000490704772B600BFFEE770B50446A56D00F05A
S315080004A067FB064694F83500022808D08020606568
S315080004B000BF002084F8340000BF012070BD20680A
S315080004C0006820F01600216808602068406920F05E
S315080004D0800021684861206C08B9A06C28B12068A2
S315080004E0006820F00800216808602068006820F08D
S315080004F001002168086010E000F03AFB801B05281F
S315080005000BD920206065032084F8350000BF002041
S3150800051084F8340000BF0320D0E72068006800F0A4
S3150800052001000028E8D194F85C103F208840A860B4
S31508000530012084F8350000BF002084F8340000BF8D
S3150800054000BFBBE7014691F83500022803D080209A
S31508000550486501207047052081F83500086800685D
S3150800056020F001000A6810600020F3E7F8B5044699
S31508000570002000908C4800684FF41651B0FBF1F744
S31508000580A56D2E6894F85C1008208840304098B114
S315080005902068006800F0040070B12068006820F048
S315080005A004002168086094F85C1008208840A86058
S315080005B0606D40F00100606594F85C100120884089
S315080005C0304068B12068406900F0800040B194F876
S315080005D05C1001208840A860606D40F002006065EC
S315080005E094F85C1004208840304068B120680068A0
S315080005F000F0020040B194F85C1004208840A8601E
S31508000600606D40F00400606594F85C101020884026
S31508000610304078B32068006800F0080050B394F8BA
S315080006205C1010208840A8602068006800F48020CC
S3150800063080B12068006800F4002028B9206CC8B191
S315080006402046216C884715E0A06C98B12046A16C1D
S3150800065088470FE02068006800F4807028B9206891
S31508000660006820F0080021680860206C10B1204658
S31508000670216C884794F85C10202088403040002878
S3150800068065D02068006800F0100000285FD094F854
S315080006905C1020208840A86094F83500052828D1E9
S315080006A02068006820F01600216808602068406904
S315080006B020F0800021684861206C08B9A06C28B138
S315080006C02068006820F008002168086094F85C102B
S315080006D03F208840A860012084F8350000BF00202C
S315080006E084F8340000BF206D10B12046216D88477C
S315080006F0F8BD2068006800F4802080B12068006892
S3150800070000F4002028B9606C10B12046616C884757
S315080007101DE0E06BD8B12046E16B884717E02068FA
S31508000720006800F4807068B92068006820F010003E
S3150800073021680860012084F8350000BF002084F88D
S31508000740340000BFE06B10B12046E16B8847606D4E
S3150800075038B3606D00F00100F0B1052084F835006B
S315080007602068006820F001002168086000BF009832
S31508000770401C0090B84200D905E02068006800F0E7
S3150800078001000028F3D100BF012084F8350000BF1E
S31508000790002084F8340000BFE06C10B12046E16CFC
S315080007A0884700BFA4E70000200000202DE9F0419B
S315080007B00446002500F0DCF9074614B90120BDE817
S315080007C0F081606A00B100BF022084F8350000BFDE
S315080007D0002084F8340000BF2068006820F001007B
S315080007E0216808600AE000F0C3F9C01B052805D98E
S315080007F020206065032084F83500E0E7206800685B
S3150800080000F001000028EED120680568214805405F
S31508000810D4E901010843E16808432169084361698D
S315080008200843A1690843E1690843216A0843054367
S31508000830606A042803D1D4E90B01084305432068FC
S3150800084005602068456925F00705606A0543606A02
S3150800085004280DD1A06A0543E06A48B1204603F092
S3150800086017F828B140206065012084F83500A6E70E
S3150800087020684561204603F061F8064694F85C1046
S315080008803F208840B06000206065012084F835006C
S31508000890002094E73F8010F02DE9F04704460D4606
S315080008A016461F464FF00008D4F8589000BF94F833
S315080008B03400012802D10220BDE8F087012084F81F
S315080008C0340000BF94F83500012825D1022084F8A9
S315080008D03500002060653B4632462946204602F030
S315080008E0C1FF94F85C103F208840C9F808002068CA
S315080008F0006840F0160021680860206C28B120685E
S31508000900006840F00800216808602068006840F028
S3150800091001002168086006E000BF002084F8340062
S3150800092000BF4FF002084046C6E7000070B504460F
S3150800093000F01EF906462546681C10B104480078E2
S31508000940054400BF00F014F9801BA842FAD370BD15
S315080009502C000020F8B502460B460025002400208E
S315080009600021E0E0012606FA01F51E6806EA0504FC
S31508000970AC4274D11E7906F00306012E04D01E7906
S3150800098006F00306022E13D190684F000326BE40D8
S31508000990B0434F00DE68BE40304390605068012681
S315080009A08E40B0431E79C6F300168E403043506021
S315080009B01E7906F00306032E09D0D0684F000326D9
S315080009C0BE40B0434F009E68BE403043D0601E799B
S315080009D006F00306022E13D1CF0802F1200656F8B8
S315080009E027004E07F70E0F26BE40B0434F07FF0EEF
S315080009F01E69BE403043CF0802F1200646F827009C
S31508000A0010684F000326BE40B0431E7906F0030661
S31508000A104F00BE40304310605E6806F44036002E34
S31508000A201DD000BF00260096414E366846F4804623
S31508000A303F4F3E603E46366806F48046009600BF45
S31508000A4000BF3C4E8F0856F827008E07370F0F2633
S31508000A50BE40B043384EB24202D100262EE061E0D5
S31508000A60364EB24201D1012628E0354EB24201D1B6
S31508000A70022623E0334EB24201D103261EE0324E4F
S31508000A80B24201D1042619E0304EB24201D1052600
S31508000A9014E02F4EB24201D106260FE02D4EB24287
S31508000AA001D107260AE02C4EB24201D1082605E0FC
S31508000AB02A4EB24201D1092600E00A268F073F0FC7
S31508000AC0BE4030431B4E8F0846F82700244E306838
S31508000AD0A0435E6806F4801606B12043204E3060B7
S31508000AE0361D3068A0435E6806F4001606B120433A
S31508000AF01B4E361D30601A4E361F3068A0435E689E
S31508000B0006F4003606B12043154E361F3060361FF0
S31508000B103068A0435E6806F4803606B12043104E5E
S31508000B20083E3060491C1029FFF41CAFF8BD0000D0
S31508000B3044380240083801400000024000040240E0
S31508000B4000080240000C0240001002400014024057
S31508000B5000180240001C0240002002400024024007
S31508000B60083C01400AB1816101E00B0483617047CA
S31508000B700148006870470000240000200348006808
S31508000B800349097808440149086070472400002091
S31508000B902C00002010B50D48006840F400700B4981
S31508000BA008600846006840F48060086008460068E7
S31508000BB040F480700860032000F0A6F80F2000F0CB
S31508000BC007F800F02BF8002010BD0000003C02409A
S31508000BD070B504460E4800784FF47A71B1FBF0F010
S31508000BE00C490968B1FBF0F5284600F02FFC08B15E
S31508000BF0012070BD102C07D200222146501E00F09D
S31508000C0045F80548046001E00120F2E70020F0E716
S31508000C102C000020200000202800002008B500BF76
S31508000C20002000900E48006840F480400C49086097
S31508000C300846006800F48040009000BF00BF00BF6F
S31508000C4000200090081F006840F08050091F0860C7
S31508000C500846006800F08050009000BF00BF08BD3D
S31508000C60443802400146084600280DDB00BF00BF95
S31508000C7000F01F0301229A4043099B0003F1E02379
S31508000C80C3F8002100BF00BF00BF70472DE9F05F21
S31508000C9080460D461646002703F0EAFA0746394607
S31508000CA02A46334601F00700C0F1070ABAF1040FD5
S31508000CB002D94FF0040A01E0C0F1070AD14600F153
S31508000CC0040ABAF1070F02D24FF0000A01E0A0F1B8
S31508000CD0030AD4464FF0010A0AFA09FAAAF1010AE8
S31508000CE00AEA020A0AFA0CFA4FF0010B0BFA0CFB95
S31508000CF0ABF1010B0BEA030B4AEA0B04214640460B
S31508000D0003F0A2FABDE8F09F00BF00F00702064B09
S31508000D1019684FF6FF031940044B0B4343EA0221B7
S31508000D20014B196000BF70470CED00E00000FA05A2
S31508000D3070B504460D460CB9012070BD58480068C8
S31508000D4000F00F00A84209D255490D700846006800
S31508000D5000F00F00A84201D00120EEE7207800F04D
S31508000D60020002281DD1207800F00400042805D1CD
S31508000D704C48006840F4E0504A490860207800F082
S31508000D800800082805D14748006840F460404549EE
S31508000D9008604448006820F0F000A168084341490B
S31508000DA00860207800F00100A8B36068012807D120
S31508000DB03C4808380068C0F34040B8B90120BCE791
S31508000DC06068022802D06068032807D135480838C9
S31508000DD00068C0F3406048B90120AEE731480838DA
S31508000DE00068C0F3400008B90120A6E72D4800684E
S31508000DF020F00300616808432A490860FFF7B8FE37
S31508000E00064609E0FFF7B4FE801B41F288318842A6
S31508000E1002D9032091E707E02248006800F00C0099
S31508000E206168B0EB810FEDD11D48006800F00F0036
S31508000E30A84209D91A490D700846006800F00F0043
S31508000E40A84201D0012078E7207800F004000428A1
S31508000E5007D11448006820F4E050E16808431149B6
S31508000E600860207800F00800082808D10D480068B6
S31508000E7020F46040216940EAC1000A49086000F090
S31508000E803FF808490968C1F30311074A515CC8408D
S31508000E900649086006480068FFF79AFE00204CE7F6
S31508000EA0003C024008380240464500082000002061
S31508000EB02800002001480068704700002000002034
S31508000EC000B5FFF7F7FF04490968C1F38221034A11
S31508000ED0515CC84000BD000008380240564500086D
S31508000EE000B5FFF7E7FF04490968C1F34231034A31
S31508000EF0515CC84000BD000008380240564500084D
S31508000F002DE9F047002400250026A146254800685B
S31508000F1000F00C0020B1042805D008283AD105E0D5
S31508000F20DFF8849039E0DFF8849036E01D48001F2A
S31508000F30006800F03F041B48001F006800F48000AA
S31508000F4078B11A481749091F0968C1F38811A0FB27
S31508000F5001700146224600233846FFF799F90546EF
S31508000F600EE011480F49091F0968C1F38811A0FB53
S31508000F7001700146224600233846FFF789F90546DF
S31508000F800848001F0068C0F30140401C4600B5FB36
S31508000F90F6F902E0DFF8109000BF00BF4846BDE84A
S31508000FA0F0870000083802400024F400001BB70050
S31508000FB0F8B504460CB90120F8BD207800F0010008
S31508000FC0002874D0F948006800F00C0004280DD0F9
S31508000FD0F648006800F00C00082813D1F348001FF3
S31508000FE0006800F48000B0F5800F0BD1EF48083890
S31508000FF00068C0F34040002859D06068002856D1E0
S315080010000120D9E700BF6068B0F5803F08D1E748FE
S315080010100838006840F48030E449083908601EE062
S315080010206068B0F5A02F0DD1E0480838006840F494
S315080010308020DE49083908600846006840F4803098
S3150800104008600CE0D9480838006820F48030D74991
S31508001050083908600846006820F48020086000BF48
S31508001060606890B1FFF784FD054606E0FFF780FD4E
S31508001070401B642801D903209EE7CC48083800683D
S31508001080C0F340400028F1D011E0FFF771FD054696
S3150800109006E0FFF76DFD401B642801D903208BE7A6
S315080010A0C24808380068C0F340400028F1D12078CB
S315080010B000F0020002285FD1BC48006800F00C006E
S315080010C058B1BA48006800F00C0008281CD1B74887
S315080010D0001F006800F48000B0B9B44808380068FA
S315080010E0C0F3400020B1E068012801D0012063E781
S315080010F0AE480838006820F0F800216940EAC100C7
S31508001100AA490839086037E0E06800B30120A84911
S315080011100860FFF72DFD054606E0FFF729FD401B91
S31508001120022801D9032047E7A04808380068C0F319
S3150800113040000028F1D09D480838006820F0F800E3
S31508001140216940EAC10099490839086014E000207D
S3150800115097490860FFF70CFD054606E0FFF708FD0E
S31508001160401B022801D9032026E790480838006862
S31508001170C0F340000028F1D1207800F008000828C4
S315080011802CD16069A8B101208A490860FFF7F0FCF4
S31508001190054606E0FFF7ECFC401B022801D90320B0
S315080011A00AE782486C300068C0F340000028F1D096
S315080011B014E000207F490860FFF7DAFC054606E0E0
S315080011C0FFF7D6FC401B022801D90320F4E677482E
S315080011D06C300068C0F340000028F1D1207800F098
S315080011E00400042870D1002770483830006800F0E1
S315080011F0805090B900BF002000906C4838300068D5
S3150800120040F080506949383108600846006800F0A7
S315080012108050009000BF00BF01276748006800F4AF
S315080012208070B0B96448006840F48070624908600C
S31508001230FFF79EFC054606E0FFF79AFC401B0228CE
S3150800124001D90320B8E65C48006800F480700028DD
S31508001250F2D000BFA068012808D154486830006859
S3150800126040F001005149683108601DE0A068052872
S315080012700DD14E486830006840F004004B4968318B
S3150800128008600846006840F0010008600CE047481E
S315080012906830006820F00100444968310860084653
S315080012A0006820F00400086000BFA068A8B1FFF736
S315080012B05FFC054609E0FFF75BFC401B41F28831FD
S315080012C0884202D9032077E626E038486830006865
S315080012D0C0F340000028EED013E0FFF749FC0546AE
S315080012E008E0FFF745FC401B41F28831884201D9E6
S315080012F0032061E62D4868300068C0F340000028E6
S31508001300EFD1012F07D129483830006820F08050E6
S3150800131026493831086000BFA069002845D023480F
S31508001320006800F00C0008285DD0A069022845D1A5
S3150800133000201F490866FFF71BFC054606E0FFF775
S3150800134017FC401B022801D9032035E61748083840
S315080013500068C0F340600028F1D1D4E907010843CA
S31508001360616A40EA81110122A06AC2EB500041EA93
S3150800137000412C20005D41EA00600C49091F086005
S3150800138001200B490866FFF7F3FB054606E0FFF761
S31508001390EFFB401B022801D903200DE60348083855
S315080013A00068C0F340600028F1D049E008380240E0
S315080013B000004742800E4742007000400020214945
S315080013C00866FFF7D5FB054606E0FFF7D1FB401B8D
S315080013D0022801D90320EFE51B480068C0F34060E6
S315080013E00028F2D12CE0A069012800D1E4E51648CE
S315080013F0001D0668A069012820D006F48001E0696E
S3150800140081421BD106F03F01206A814216D147F678
S31508001410C0703040616AB0EB811F0FD106F44031CD
S315080014200122A06AC2EB5000B1EB004F06D106F0CC
S3150800143070612C20005DB1EB006F01D00120BBE587
S315080014400020B9E5000047420038024070B504465E
S315080014502546681EB0F1807F01D301200FE0681E83
S315080014604FF0E02148610F214FF0FF3002F0ECFE0B
S3150800147000204FF0E021886107200861002070BD38
S315080014807047704730B502460B4600BF92F83C00DD
S31508001490012801D1022030BD012082F83C0000BF9E
S315080014A0022082F83D00106844681068816824F0BC
S315080014B070041868044310684460184D1068A84200
S315080014C01BD01068B0F1804F17D0154D1068A84290
S315080014D013D0144D1068A8420FD0134D1068A842B7
S315080014E00BD0124D1068A84207D0114D1068A842BB
S315080014F003D0104D1068A84205D121F08001586824
S31508001500014310688160012082F83D0000BF002079
S3150800151082F83C0000BF00BFBDE7000000000140A4
S315080015200004004000080040000C00400004014090
S31508001530004001400018004010B504460CB90120CF
S3150800154010BD94F83D0028B9002084F83C002046D8
S3150800155000F026F8022084F83D00211D206801F0DD
S31508001560F7FB012084F8460000BF84F83E000121FD
S315080015703F200155402001554120015500BF00BFBD
S31508001580012084F842004320015544200155452096
S31508001590015500BF012084F83D000020D0E7000077
S315080015A010B586B00446142101A8FEF7E8FE2068A7
S315080015B0B0F1804F37D100BF002000906D48006819
S315080015C040F001006B4908600846006800F0010019
S315080015D0009000BF00BF00BF00200090654810388B
S315080015E0006840F001006349103908600846006841
S315080015F000F00100009000BF00BF202001900220EB
S3150800160002900020039004900120059001A95A48F1
S31508001610FFF7A0F9002211461C20FFF737FB1C2014
S31508001620FFF720FBA4E055492068884237D100BF60
S31508001630002000904F48006840F004004D490860BB
S315080016400846006800F00400009000BF00BF00BF15
S315080016500020009047481038006840F008004549C7
S31508001660103908600846006800F00800009000BFBE
S3150800167000BF881401900220029000200390049075
S315080016800220059001A93E48FFF764F90022114699
S315080016901E20FFF7FBFA1E20FFF7E4FA68E0394937
S315080016A0206888420FD100BF0020009031480068AA
S315080016B040F008002F4908600846006800F0080056
S315080016C0009000BF54E030492068884250D100BFDE
S315080016D0002000902748001D006840F002002549B8
S315080016E0091D08600846006800F00200009000BF67
S315080016F000BF00BF002000901E481038006840F464
S3150800170080701C49103908600846006800F480702B
S31508001710009000BF00BF2020019002200290002008
S31508001720039004900320059001A91848FFF712F9C1
S31508001730002211462B20FFF7A9FA2B20FFF792FA71
S31508001740002211462C20FFF7A1FA2C20FFF78AFA6F
S31508001750002211462D20FFF799FA2D20FFF782FA6D
S31508001760002211462E20FFF791FA2E20FFF77AFA6B
S3150800177006B010BD40380240000002400008004094
S31508001780000C0240000C004000040140002002400A
S315080017902DE9F04104460D46002700BF94F83C00A9
S315080017A0012802D10220BDE8F081012084F83C001E
S315080017B000BF022084F83D002068866826F0770678
S315080017C026F47F46206886602868502833D00CDCCB
S315080017D0202850D004DC00284BD0102851D149E0ED
S315080017E0302849D040284CD139E060282DD07028BF
S315080017F007D0B0F5805F03D0B0F5005F41D10DE0AA
S3150800180041E0D5E902136A68206801F022FB2068E6
S31508001810866846F077062068866034E0D5E90213C4
S315080018206A68206801F015FB2068806840F48040EB
S315080018302168886027E0EA686968206802F0EFF99D
S315080018405021206802F089F91DE0EA686968206875
S3150800185002F0F8F96021206802F07FF913E0EA68DF
S315080018606968206802F0DBF94021206802F075F902
S3150800187009E000BF00BF00BF2968206802F06DF9C3
S3150800188001E0012700BF00BF012084F83D0000BF2A
S31508001890002084F83C0000BF384684E770B504464B
S315080018A02068B0F1804F15D1207F012846D1244801
S315080018B006680021204600F002FC451CB54202D20B
S315080018C04FF6FF700544A81B1E49B1FBF0F01E49F0
S315080018D0086033E01D492068884215D1207F012819
S315080018E02CD1174806680021204600F0E8FB451C65
S315080018F0B54202D24FF6FF700544A81B1149B1FB49
S31508001900F0F01349086019E012492068884215D199
S31508001910207F012812D10A4806680021204600F0D7
S31508001920CEFB451CB54202D24FF6FF700544A81BF4
S315080019300449B1FBF0F00849086000BF70BD00001B
S315080019401C00002040420F00100000200008004044
S315080019501400002000040140180000202DE9F04181
S3150800196004460D461646002700BF94F83C00012899
S3150800197002D10220BDE8F081012084F83C0000BFB6
S3150800198096B9EB68D5E90012206801F0ABFA206831
S31508001990806920F00C002168886120688069A96840
S315080019A008432168886141E0042E13D1EB68D5E924
S315080019B00012206802F07AF82068806920F44060F6
S315080019C02168886120688069A96840EA0120216841
S315080019D088612BE0082E12D1EB68D5E90012206841
S315080019E002F081F82068C06920F00C002168C861FF
S315080019F02068C069A96808432168C86116E00C2EEA
S31508001A0013D1EB68D5E90012206802F088F820683F
S31508001A10C06920F440602168C8612068C069A96867
S31508001A2040EA01202168C86100E0012700BF0020C4
S31508001A3084F83C0000BF38469CE710B504460CB94C
S31508001A40012010BD94F83D0028B9002084F83C0018
S31508001A50204600F025F8022084F83D00211D206864
S31508001A6001F076F9012084F8460000BF84F83E00AC
S31508001A7001213F200155402001554120015500BF55
S31508001A8000BF012084F84200432001554420015537
S31508001A904520015500BF012084F83D000020D0E70D
S31508001AA0704700002DE9F04304460D46002615B997
S31508001AB094F83E000BE0042D02D13F20005D06E0BD
S31508001AC0082D02D14020005D01E04120005D8046DE
S31508001AD015B994F842000BE0042D02D14320005DAD
S31508001AE006E0082D02D14420005D01E04520005D96
S31508001AF08146B8F1010F02D1B9F1010F02D00120D8
S31508001B00BDE8F0831DB9022084F83E000EE0042DDE
S31508001B1003D102213F20015508E0082D03D10221F7
S31508001B204020015502E00221412001551DB902203D
S31508001B3084F842000EE0042D03D10221432001550A
S31508001B4008E0082D03D102214420015502E00221B4
S31508001B504520015535B1042D0BD0082D10D00C2D7C
S31508001B601CD114E02068C06840F002002168C860F3
S31508001B7016E02068C06840F004002168C8600FE0DD
S31508001B802068C06840F008002168C86008E020683E
S31508001B90C06840F010002168C86001E0012600BF57
S31508001BA000BF86BB01222946206801F041F91A497F
S31508001BB0206888421BD02068B0F1804F17D017499B
S31508001BC02068884213D01649206888420FD01549E4
S31508001BD0206888420BD014492068884207D01349E8
S31508001BE02068884203D01249206888420CD12068B0
S31508001BF0806800F00707062F0CD02068006840F0C0
S31508001C0001002168086005E02068006840F00100CE
S31508001C1021680860304673E7000001400004004070
S31508001C2000080040000C004000040140004001404C
S31508001C300018004070B504462068C5682068066923
S31508001C4006F00200022819D105F00200022815D173
S31508001C50401F21680861012020772068806900F00C
S31508001C60030018B12046FFF719FE05E0204600F0EC
S31508001C70E7F8204600F09BF90020207706F00400DC
S31508001C80042819D105F00400042815D1C043216899
S31508001C900861022020772068806900F4407018B136
S31508001CA02046FFF7FBFD05E0204600F0C9F8204670
S31508001CB000F07DF90020207706F00800082819D1E1
S31508001CC005F00800082815D1C043216808610420DA
S31508001CD020772068C06900F0030018B12046FFF796
S31508001CE0DDFD05E0204600F0ABF8204600F05FF980
S31508001CF00020207706F01000102819D105F01000F2
S31508001D00102815D1C043216808610820207720686B
S31508001D10C06900F4407018B12046FFF7BFFD05E022
S31508001D20204600F08DF8204600F041F90020207783
S31508001D3006F0010048B105F0010030B16FF001006E
S31508001D4021680861204600F0B9F906F0800080286D
S31508001D5009D105F08000802805D1C04321680861B3
S31508001D602046FFF78DFB06F04000402809D105F014
S31508001D704000402805D1C04321680861204600F08C
S31508001D80EDF906F02000202809D105F020002028CA
S31508001D9005D1C043216808612046FFF772FB70BD74
S31508001DA010B586B00446142101A8FEF7E8FA2049C2
S31508001DB02068884239D100BF002000901D4800687D
S31508001DC040F480701B4908600846006800F480707B
S31508001DD0009000BF00BF00BF0020009008460068C2
S31508001DE040F0800008600846006800F08000009017
S31508001DF000BF00BF0120019002200290002003903E
S31508001E0004900220059001A90B48FEF7A3FD4FF4A4
S31508001E10C0500190022002900020039004900220F6
S31508001E20059001A90548FEF795FD06B010BD00000E
S31508001E30000C00403038024000200240001C0240DE
S31508001E4070472DE9F04104460D461646002700BFA7
S31508001E5094F83C00012802D10220BDE8F081012057
S31508001E6084F83C0000BF36B1042E1BD0082E31D0B2
S31508001E700C2E5ED145E02946206801F079FD2068E0
S31508001E80806940F00800216888612068806920F030
S31508001E9004002168886120688069296908432168E7
S31508001EA0886148E02946206800F0DEFF20688069DE
S31508001EB040F40060216888612068806920F48060A9
S31508001EC02168886120688069296940EA01202168BB
S31508001ED0886130E02946206801F082FD2068C069E3
S31508001EE040F008002168C8612068C06920F0040035
S31508001EF02168C8612068C069296908432168C861E2
S31508001F0019E02946206801F0A7FD2068C06940F459
S31508001F1000602168C8612068C06920F48060216873
S31508001F20C8612068C069296940EA01202168C8613A
S31508001F3001E0012700BF00BF00BF002084F83C0075
S31508001F4000BF384689E710B504460CB9012010BD14
S31508001F5094F83D0028B9002084F83C00204600F09B
S31508001F6025F8022084F83D00211D206800F0F0FEC7
S31508001F70012084F8460000BF84F83E0001213F2076
S31508001F800155402001554120015500BF00BF0120E1
S31508001F9084F8420043200155442001554520015547
S31508001FA000BF012084F83D000020D0E77047704745
S31508001FB070B504460D4615B994F83E000BE0042D9D
S31508001FC002D13F20005D06E0082D02D14020005DC9
S31508001FD001E04120005D012801D0012070BD1DB936
S31508001FE0022084F83E000EE0042D03D102213F2092
S31508001FF0015508E0082D03D102214020015502E0D1
S3150800200002214120015501222946206800F010FFCF
S3150800201023492068884203D022492068884201D192
S31508002020012000E0002028B12068406C40F4004000
S31508002030216848641A49206888421BD02068B0F194
S31508002040804F17D018492068884213D0174920684E
S3150800205088420FD01649206888420BD0114920685B
S31508002060884207D013492068884203D0124920685D
S3150800207088420CD12068806800F00706062E0CD02E
S315080020802068006840F001002168086005E02068C3
S31508002090006840F001002168086000209EE7000003
S315080020A00000014000040140000400400008004010
S315080020B0000C0040004001400018004070470246EE
S315080020C0002031B1042907D0082908D00C290CD1E1
S315080020D008E01368586B09E01368986B06E0136804
S315080020E0D86B03E01368186C00E000BF00BF7047A8
S315080020F070B504460D4600BF94F83C00012801D18E
S31508002100022070BD012084F83C0000BF022084F83C
S315080021103D002946204601F029FD48B1012084F8F2
S315080021203D0000BF002084F83C0000BF0120E8E71E
S315080021302068C06820F040002168C8602068C06830
S3150800214020F480402168C860012084F83D0000BF63
S31508002150002084F83C0000BF00BFD2E77047F8B5FE
S3150800216004460D46164694F8420020282DD105B19E
S315080021700EB90120F8BD01202063002060633246B5
S315080021802946204600F0F6FE0746206B012819D19D
S3150800219000BF002000902068006800902068406812
S315080021A0009000BF00BF00BF00BF21680C3151E896
S315080021B0001F41F0100021680C3141E80002002A96
S315080021C0F3D100E001273846D4E70220D2E7000021
S315080021D070B504460D464049206888420BD13F4BEE
S315080021E019895868DA6890473C4802894168204648
S315080021F0FFF7B5FF6EE03A49206888420BD1394BA4
S3150800220019895868DA68904736480289416820462D
S31508002210FFF7A5FF5EE03449206888420BD1334BAF
S3150800222019895868DA689047304802894168204613
S31508002230FFF795FF4EE02E49206888420BD12D4BBB
S3150800224019895868DA6890472A48028941682046F9
S31508002250FFF785FF3EE02849206888420BD1274BC7
S3150800226019895868DA6890472448028941682046DF
S31508002270FFF775FF2EE02249206888420BD1214BD3
S3150800228019895868DA6890471E48028941682046C5
S31508002290FFF765FF1EE01C49206888420BD11B4BDF
S315080022A019895868DA6890471848028941682046AB
S315080022B0FFF755FF0EE01649206888420AD1154BEC
S315080022C019895868DA689047124802894168204691
S315080022D0FFF745FF70BD000000100140BC0200205A
S315080022E000440040CC02002000480040DC020020E8
S315080022F0004C0040EC02002000500040FC02002088
S31508002300001401400C030020007800401C03002044
S31508002310007C00402C030020704700002DE9F84F90
S315080023200446206805682068C668206847694FF033
S315080023300009CA4605F00F09B9F1000F0AD105F0E0
S31508002340200038B106F0200020B1204601F0CCFD6F
S31508002350BDE8F88FB9F1000F7CD007F0010018B975
S3150800236006F49070002875D005F0010030B106F427
S31508002370807018B1606C40F00100606405F00400DC
S3150800238030B107F0010018B1606C40F002006064DB
S3150800239005F0020030B107F0010018B1606C40F09A
S315080023A00400606405F0080048B106F0200010B982
S315080023B007F0010018B1606C40F008006064606CBA
S315080023C0002846D005F0200028B106F0200010B1FC
S315080023D0204601F089FD20684069C0F3801A606CC8
S315080023E000F0080010B9BAF1000F2DD0204601F010
S315080023F042FE2068406900F04000402820D100BF16
S3150800240000BF2168143151E8001F21F040002168FF
S31508002410143141E80002002AF3D100BFE06B50B145
S315080024207F48E16B0865E06BFEF78CF888B1E06BD6
S31508002430016D88470DE02046FFF76EFF09E009E0C9
S315080024402046FFF769FF04E02046FFF765FF0020F6
S3150800245060647DE7206B012878D105F0100000281C
S3150800246074D006F010000028FAD000BF00200090B3
S3150800247020680068009020684068009000BF00BF90
S315080024802068406900F04000402870D1E06B006881
S3150800249040681FFA80F8B8F1000F58D0A08D404563
S315080024A055DDA4F82E80E06BC069B0F5807F43D077
S315080024B000BF00BF21680C3151E8001F21F480706D
S315080024C021680C3141E80002002AF3D100BF00BFA1
S315080024D000BF2168143151E8001F21F0010021686E
S315080024E0143141E80002002AF3D100BF00BF00BF43
S315080024F02168143151E8001F21F040002168143189
S3150800250041E80002002AF3D100BF202084F84200E7
S315080025100020206300BF00BF21680C3151E8001F6E
S3150800252021F0100021680C3141E80002002AF3D19D
S3150800253000BFE06BFDF7B0FF02206063A08DE28D5F
S31508002540801A81B22046FFF743FE0EE052E0A08DC6
S3150800255040450AD1E06BC069B0F5807F05D10220FD
S315080025606063A18D2046FFF733FEF1E6FFE7A08DF5
S31508002570E18D401A1FFA80F8E08DD0B3B8F1000F4C
S3150800258037D000BF00BF21680C3151E8001F21F485
S31508002590907021680C3141E80002002AF3D100BF8F
S315080025A000BF00BF2168143151E8001F21F0010067
S315080025B02168143141E80002002AF3D100BF202027
S315080025C084F842000020206300BF00BF21680C3158
S315080025D051E8001F21F0100021680C3141E8000283
S315080025E0002AF3D100BF0220606341462046FFF768
S315080025F0EFFDADE605F0800030B106F0800018B1B9
S31508002600204601F0EFFCA3E605F0400030B106F0E5
S31508002610400018B1204601F0D1FD99E600BF97E6C3
S31508002620DD41000810B504460CB9012010BDA069AB
S3150800263000B100E000BF94F8410028B9002084F8F2
S315080026404000204600F02AF8242084F8410020683B
S31508002650C06820F400502168C860204601F02EFBAF
S315080026602068006920F49040216808612068406964
S3150800267020F02A00216848612068C06840F40050AC
S315080026802168C86000206064202084F8410084F82E
S3150800269042000020606300BFC8E7000010B586B09E
S315080026A00446142101A8FDF76AFE3D4920688842C0
S315080026B073D100BF002000903A48006840F400300B
S315080026C0384908600846006800F40030009000BFEA
S315080026D000BF00BF0020009032481038006840F064
S315080026E008003049103908600846006800F00800FC
S315080026F0009000BF00BF60200190022002900020D9
S315080027000390032004900720059001A92648FEF7A8
S3150800271021F92648264908604FF0006048600021E4
S3150800272023488160C1604FF48061016100214161E5
S315080027308161C16101624162FEF738F808B1FDF7AF
S31508002740A8FE00BF1A48E063846300BF1748183024
S31508002750184908604FF000604860402115488160BC
S315080027600021C1604FF480610161002141618161EE
S31508002770C16101624162FEF719F808B1FDF789FEE9
S3150800278000BF0C48A063846300BF002211462620C0
S31508002790FEF77CFA2620FEF765FA06B010BD0000A3
S315080027A00044004040380240000C02408860024065
S315080027B0FC0100205C02002070477047F7B504460C
S315080027C0154694F8410020283ED1019800B10DB96C
S315080027D00120FEBD01982062A584E584002060647E
S315080027E0212084F841001948A16BC8631848A16BD9
S315080027F008641848A16BC8640020A16B086501AE7F
S3150800280023681A1D31682B46A06BFEF745F830B1D0
S3150800281010206064202084F841000120D9E76FF079
S3150800282040002168086000BF00BF2168143151E8E4
S31508002830001F41F080002168143141E80002002A97
S31508002840F3D100BF0020C4E70220C2E7EF41000829
S31508002850694000086D3C00087047704700BFFEE7F6
S3150800286008B500BF002000900E48006840F400102C
S315080028700C4908600846006800F40010009000BF84
S3150800288000BF002211461020FEF700FA1020FEF7BE
S31508002890E9F9002211461120FEF7F8F91120FEF792
S315080028A0E1F908BD3038024000B587B0142102A806
S315080028B0FDF765FD00BF002001903448006840F030
S315080028C00100324908600846006800F001000190DE
S315080028D000BF00BF00BF002001900846006840F016
S315080028E0080008600846006800F00800019000BF6C
S315080028F000BF00BF002001900846006840F48070C1
S3150800290008600846006800F48070019000BF00BFA8
S3150800291000BF002001900846006840F0800008606B
S315080029200846006800F08000019000BF00BF00BFA5
S31508002930002001900846006840F00200086008463A
S31508002940006800F00200019000BF00BF00223C2191
S315080029500F48FEF707F93C20029001200390022059
S3150800296004900020059002A90948FDF7F3FF03200B
S315080029700290022003900020049005900220069001
S3150800298002A90448FDF7E6FF07B000BD303802404B
S31508002990001C02400004024000B58FB000200B90D6
S315080029A00C900D900E90142106A8FDF7E8FC002067
S315080029B00490059000900190029003904FF080409B
S315080029C025490860532048600021234881604FF656
S315080029D0FF71C160002101618161FEF7ADFD08B19B
S315080029E0FDF757FD4FF480500B900BA91A48FEF7D8
S315080029F0CFFE08B1FDF74DFD1748FFF71EF808B1E1
S31508002A00FDF747FD04200690502007900020089007
S31508002A100A9006A91048FFF76BFB08B1FDF739FDC8
S31508002A2000200490059004A90B48FEF72BFD08B179
S31508002A30FDF72FFD00200090012001900020029054
S31508002A400390002269460448FEF788FF08B1FDF79F
S31508002A5020FD0FB000BD00009400002000B58BB02B
S31508002A60142106A8FDF78BFC002004900590009021
S31508002A70019002900390214821490860532048603C
S31508002A8000211F4881604FF6FF71C1600021016176
S31508002A908161FEF751FD08B1FDF7FBFC1848FEF70A
S31508002AA0CCFF08B1FDF7F5FC0420069050200790EE
S31508002AB0002008900A9006A91148FFF719FB08B1EB
S31508002AC0FDF7E7FC00200490059004A90C48FEF7E2
S31508002AD0D9FC08B1FDF7DDFC00200090012001902B
S31508002AE0002002900390002269460548FEF736FF4B
S31508002AF008B1FDF7CEFC0BB000BD00000008004091
S31508002B00DC00002000B58DB0002009900A900B90DB
S31508002B100C90079008901C216846FDF730FC284861
S31508002B20284908600020486000212648816042F252
S31508002B30CF01C160002101618161FEF7FDFC08B18A
S31508002B40FDF7A7FC4FF48050099009A91D48FEF728
S31508002B501FFE08B1FDF79DFC1A48FFF7F4F908B106
S31508002B60FDF797FC00200790089007A91548FEF77F
S31508002B7089FC08B1FDF78DFC6020009000200190CB
S31508002B8002900490042269460E48FFF75AF908B1E4
S31508002B90FDF77FFC082269460A48FFF752F908B193
S31508002BA0FDF777FC0C2269460648FFF74AF908B193
S31508002BB0FDF76FFC0348FFF7F3F80DB000BD000002
S31508002BC0000C00402401002000B58FB000200B90B7
S31508002BD00C900D900E90142106A8FDF7D0FB00204E
S31508002BE0049005900090019002900390264827498A
S31508002BF00860A72048600021244881604FF6FF71CD
S31508002C00C1600021016141618161FEF795FC08B14F
S31508002C10FDF73FFC4FF480500B900BA91B48FEF7BD
S31508002C20B7FD08B1FDF735FC1848FEF706FF08B1F1
S31508002C30FDF72FFC042006905020079000200890EE
S31508002C400A9006A91148FFF753FA08B1FDF721FCC7
S31508002C5000200490059004A90C48FEF713FC08B15F
S31508002C60FDF717FC0020009001200190002002903B
S31508002C700390002269460548FEF770FE08B1FDF785
S31508002C8008FC0FB000BD0000000401406C010020E4
S31508002C9010B50B480B4908604FF4E1304860002135
S31508002CA008488160C16001610C2141610021816190
S31508002CB0C161FFF7B7FC08B1FDF7EBFB10BD0000DB
S31508002CC000440040B401002000BFFEE700BFFEE755
S31508002CD07047704710B5FDF751FF10BD03480068EF
S31508002CE040F47000014908607047000088ED00E074
S31508002CF010B50248FEF79EFF10BD000094000020A4
S31508002D0010B50248FEF796FF10BD0000DC00002053
S31508002D1010B50248FEF78EFF10BD00006C010020BA
S31508002D2010B50248FEF786FF10BD00006C010020B2
S31508002D3010B50248FEF77EFF10BD00006C010020AA
S31508002D4010B50248FEF776FF10BD00006C010020A2
S31508002D5010B502682B4B98420ED0B0F1804F0BD0BD
S31508002D60294B984208D0294B984205D0284B9842BF
S31508002D7002D0284B984203D122F070024B681A43BE
S31508002D80204B984220D0B0F1804F1DD01E4B984260
S31508002D901AD01E4B984217D01D4B984214D01D4B83
S31508002DA0984211D01C4B98420ED01C4B98420BD01F
S31508002DB01B4B984208D01B4B984205D01A4B984299
S31508002DC002D01A4B984203D122F44072CB681A43B8
S31508002DD022F080034C6943EA04028B68C3620B68DD
S31508002DE08362084B984202D00A4B984201D10B697C
S31508002DF00363036843F0040303600123436102602D
S31508002E0010BD00000000014000040040000800401A
S31508002E10000C00400004014000400140004401400D
S31508002E200048014000180040001C004000200040F7
S31508002E3030B501F01F05012404FA05F3046A9C4322
S31508002E400462046A01F01F0502FA05F52C430462C0
S31508002E5030BD30B50C46816821F47F4142EA03252E
S31508002E6025432943816030BD30B5026A056A25F0DD
S31508002E70100505624368846924F4E04424F4407428
S31508002E800D6844EA052422F020028D6842EA0512FC
S31508002E90124DA84200D103E0114DA84207D100BF48
S31508002EA022F08002CD6842EA051222F040020B4D5C
S31508002EB0A84202D00A4DA84209D123F4806323F41C
S31508002EC000634D6943EA85038D6943EA85034360D8
S31508002ED084614D688563026230BD000000000140D0
S31508002EE00004014070B50C461546026A066A26F0CB
S31508002EF0010606628169184EB04214D0B0F1804FBF
S31508002F0011D0164EB0420ED0154EB0420BD0154E0B
S31508002F10B04208D0144EB04205D0144EB04202D08A
S31508002F20134EB04201D1012600E000261EB121F061
S31508002F300301294301E041F0010121F0F001F026E7
S31508002F4006EA0316314322F00A0204F00A0632435F
S31508002F508161026270BD000000000140000400406B
S31508002F6000080040000C00400004014000400140F9
S31508002F700018004077B581B0044615460298A0624D
S31508002F80A58500206064222084F842002C48E16B65
S31508002F90C8632C48E16B08642B48E16BC8640020C1
S31508002FA0E16B086502AE32682368191D2B46E06B93
S31508002FB0FDF772FC38B110206064202084F84200C6
S31508002FC0012004B070BD00BF002000902068006892
S31508002FD0009020684068009000BF00BF206970B16B
S31508002FE000BF00BF21680C3151E8001F41F4807012
S31508002FF021680C3141E80002002AF3D100BF00BF66
S3150800300000BF2168143151E8001F41F00100216812
S31508003010143141E80002002AF3D100BF00BF00BF07
S315080030202168143151E8001F41F04000216814312D
S3150800303041E80002002AF3D100BF0020C1E70000E2
S3150800304009410008454000086D3C000810B50248D3
S31508003050FFF764F910BD0000B401002000BFFEE7C9
S3150800306000B5002215E002EB02111B4B03EB8100B1
S31508003070DFED1A2A9FED1A2ADFED191A9FED171AA6
S31508003080DFED180A9FED180A002100F0ABF8501C76
S31508003090C2B2032AE7DBDFED112A9FED142ADFED22
S315080030A0141A9FED0E1ADFED130AB0EE000A00217E
S315080030B0114800F097F8DFED092A9FED102ADFED99
S315080030C00C1A9FED061ADFED0B0AB2EE040A01216F
S315080030D00B4800F087F800BD3C0B002000000000FC
S315080030E000007A440AD7233C0AD7A33D000080464D
S315080030F00000FA45CDCCCC3D180D00200060EA460C
S315080031006C0E002070B504460D4616463246294612
S315080031102046FFF753FB70BD00B593B0302107A8D2
S31508003120FDF72DF9142102A8FDF729F900BF0020A3
S3150800313001902448006840F08050224908600846FB
S31508003140006800F08050019000BF00BF00BF00205B
S3150800315001901D48006840F440401B490860084635
S31508003160006800F44040019000BF00BF01200790AE
S315080031700004089002200D9041050E9106210F913A
S31508003180A8211091022111910421129107A8FDF797
S315080031900FFF08B1FDF77DF90F200290022003907A
S315080031A0002004904FF4A05005904FF480500690EC
S315080031B0052102A8FDF7BCFD08B1FDF76AF913B0B1
S315080031C000BD0000403802400070004010B53122B2
S315080031D002490348FFF796FF10BD00003C04002093
S315080031E0B401002000B97047017080ED010AC0EDF6
S315080031F0020A80ED031AC0ED041A80ED052AC0ED17
S31508003200082A00BFEFE70000B0EE401A10B99FED9C
S31508003210940A704790ED060A30EE010A80ED060A18
S31508003220C0ED070A90ED0E0A80ED0F0A90ED0D0A23
S3150800323080ED0E0A30EEC10A80ED0D0A90ED0D0AFA
S31508003240B0EEC00AD0ED081AB4EEE10AF1EE10FAB3
S3150800325006DC90ED080AB5EEC00AF1EE10FA7CD14C
S31508003260017811B10178012978D10178012922D193
S3150800327090ED0D0ADFED7B1AB4EEE10AF1EE10FAD5
S3150800328008DD90ED0D0ADFED781A30EE610A80ED63
S315080032900D0A10E090ED0D0ADFED741AB4EEE10A9E
S315080032A0F1EE10FA07D290ED0D0ADFED6F1A30EE47
S315080032B0210A80ED0D0A90ED010AD0ED0D1A20EED7
S315080032C0210A80ED090A90ED0A0AD0ED021A90ED5E
S315080032D00D2A01EE820A80ED0A0A90ED0D0AD0ED5C
S315080032E00E1A30EE610A80ED0C0A90ED030AD0ED55
S315080032F00C1A20EE210A80ED0B0A90ED0A0AD0ED91
S31508003300041AB4EEE10AF1EE10FA04DD90ED040AAF
S3150800331080ED0A0A10E090ED0A0AD0ED041AF1EEE3
S31508003320611AB4EEE10AF1EE10FA05D290ED040A3C
S31508003330B1EE400A80ED0A0A90ED090AD0ED0A1AA4
S3150800334030EE210AD0ED0B1A30EE210A80ED100A74
S3150800335090ED100AD0ED051A01E079E01BE0B4EE15
S31508003360E10AF1EE10FA04DD90ED050A80ED100A87
S3150800337072E090ED100AD0ED051AF1EE611AB4EE7E
S31508003380E10AF1EE10FA67D290ED050AB1EE400AAD
S3150800339080ED100A60E0017802295DD190ED0D0AF2
S315080033A0D0ED0E1A30EE610AD0ED011A20EE210A90
S315080033B080ED090A90ED020AD0ED0D1A20EE210AD9
S315080033C080ED0A0A90ED0D0AD0ED0E1AB0EE002A2D
S315080033D002EE610AD0ED0F1A30EE210A80ED0C0AD2
S315080033E090ED030AD0ED0C1A20EE210A80ED0B0AA7
S315080033F090ED090AD0ED0A1A30EE210AD0ED0B1A23
S3150800340030EE210AD0ED101A30EE210A80ED100AAE
S3150800341090ED100AD0ED051AB4EEE10AF1EE10FAB5
S3150800342004DD90ED050A80ED100A15E090ED100A0E
S31508003430D0ED051AF1EE611AB4EEE10AF1EE10FAD2
S315080034400AD290ED050AB1EE400A80ED100A03E0B3
S315080034509FED030A80ED100A90ED100AD9E60000E8
S31508003460000000000000804500F8FF45000080C508
S315080034702DE9F04104460D4616461F462A4920689E
S31508003480884205D12948456006810460C76044E042
S3150800349027492068884205D1264845600681046088
S315080034A0C7603AE024492068884205D12348456028
S315080034B006810460C76030E021492068884205D14A
S315080034C02048456006810460C76026E01E492068DA
S315080034D0884205D11D48456006810460C7601CE026
S315080034E01B492068884205D11A4845600681046050
S315080034F0C76012E018492068884205D11748456018
S3150800350006810460C76008E015492068884204D12E
S315080035101448456006810460C7603246294620463D
S31508003520FEF71DFEBDE8F08100100140BC02002038
S3150800353000440040CC02002000480040DC02002085
S31508003540004C0040EC02002000500040FC02002025
S31508003550001401400C030020007800401C030020E2
S31508003560007C00402C03002010B50446204600F0DD
S3150800357093F810BDF0B5DDE90554016006683668B4
S315080035802D4FBE4205D12D4E766886602C4E46607C
S315080035904BE0066836682B4FBE4205D12A4E766840
S315080035A086602A4E466040E006683668284FBE4266
S315080035B005D1284E76688660274E466035E006684F
S315080035C03668264FBE4205D1254E76688660254E5A
S315080035D046602AE006683668234FBE4205D1234E68
S315080035E076688660224E46601FE006683668214F78
S315080035F0BE4205D1204E76688660204E466014E0AD
S31508003600066836681E4FBE4205D11E4E766886602D
S315080036101D4E466009E0066836681C4FBE4204D156
S315080036201B4E766886601B4E4660027303610575FD
S31508003630447546683470F0BD00100140BC02002095
S315080036403C03002000440040CC0200203C0400203B
S3150800365000480040DC0200203C050020004C0040E9
S31508003660EC0200203C06002000500040FC0200202E
S315080036703C070020001401400C0300203C080020F1
S31508003680007800401C0300203C090020007C004014
S315080036902C0300203C0A002010B5002103E000227C
S315080036A043685A54491CFF29F9DD417D4268117067
S315080036B0017D11B1017D03290FD1002108E000F138
S315080036C0180252F8212013784A1C4468A354491C4E
S315080036D090F848208A42F2DCA6E0017D012902D052
S315080036E0017D042919D1002112E000F1180252F8CF
S315080036F0212013784A00521C4468A35400F118028A
S3150800370052F8212053784A00921C4468A354491C55
S3150800371090F848208A42E8DC86E0017D022905D037
S31508003720017D052902D0017D06292BD1002124E03F
S3150800373000F1180252F8212013788A00521C4468B6
S31508003740A35400F1180252F8212053788A00921CDB
S315080037504468A35400F1180252F8212093788A008D
S31508003760D21C4468A35400F1180252F82120D378D9
S315080037708A00121D4468A354491C90F848208A42BE
S31508003780D6DC51E0017D07294ED1002148E000F141
S31508003790180252F821201378CA00521C4468A35410
S315080037A000F1180252F821205378CA00921C446886
S315080037B0A35400F1180252F821209378CA00D21CAB
S315080037C04468A35400F1180252F82120D378CA009D
S315080037D0121D4468A35400F1180252F821201379E7
S315080037E0CA00521D4468A35400F1180252F8212059
S315080037F05379CA00921D4468A35400F1180252F87E
S3150800380021209379CA00D21D4468A35400F11802F6
S3150800381052F82120D379CA0008324468A354491CB7
S3150800382090F848208A42B2DC10BD0FB408B504A946
S315080038300091002109E0009A136800F1180242F885
S315080038402130009A121D0092491C9DF80C209142C5
S31508003850F1DB002100919DF80C1080F8481001B0AA
S315080038605DF814FB30B50468246824F480240568E0
S315080038702C60046863608468402C04D10468A260E4
S315080038800468E16003E00468A1600468E26030BD92
S31508003890014600208A6A8B69CBB932B1012A0DD05C
S315080038A0022A03D0032A10D10EE000BFCB6A03F028
S315080038B08073B3F1807F00D1012007E0CB6AB3F1B2
S315080038C0C07F00D1012001E000E000BF34E08B6931
S315080038D0B3F5005F1AD132B1012A07D0022A03D004
S315080038E0032A11D10AE000BF01200EE0CB6A03F0DB
S315080038F08073B3F1807F00D1012006E0CB6AB3F173
S31508003900C07F00D1012000E000BF15E032B1012AD6
S3150800391005D0022A04D0032A0CD103E000BF00BF59
S31508003920012008E0CB6A03F08073B3F1807F00D1F1
S31508003930012000E000BF00BF70470000014608787C
S3150800394010381823B0FBF3F20848805CC865032AD0
S3150800395005D908686FF30900001D886503E0086843
S315080039606FF309008865886D704700005E4500089A
S3150800397030B5026A056A25F001050562436884695F
S3150800398024F0700424F003040D682C4322F002028C
S315080039908D682A43104DA84200D103E00F4DA84276
S315080039A006D100BF22F00802CD682A4322F004029D
S315080039B0094DA84202D0094DA84207D123F48073C5
S315080039C023F400734D692B438D692B43436084614F
S315080039D04D684563026230BD0000014000040140A5
S315080039E030B5026A056A25F4807505624368C469BC
S315080039F024F0700424F003040D682C4322F40072AA
S31508003A008D6842EA0522124DA84200D103E0114D05
S31508003A10A84207D100BF22F40062CD6842EA052217
S31508003A2022F480620A4DA84202D00A4DA84209D162
S31508003A3023F4805323F400534D6943EA05138D6933
S31508003A4043EA05134360C4614D68C563026230BD2D
S31508003A50000001400004014030B5036A056A25F4F8
S31508003A60805505624468C26922F4E04222F4407235
S31508003A700D6842EA052223F400538D6843EA0533AC
S31508003A80084DA84202D0084DA84204D124F4804427
S31508003A904D6944EA85144460C2614D680564036251
S31508003AA030BD0000000001400004014070B50C461E
S31508003AB01546026A066A26F010060662816921F42E
S31508003AC0407141EA052121F470414FF4704606EA37
S31508003AD00336314322F0A002A02606EA0416324332
S31508003AE08161026270BD70B50C461546026A066AA7
S31508003AF026F480760662C16921F00301294321F084
S31508003B00F001F02606EA0316314322F420624FF448
S31508003B10206606EA04263243C161026270BD70B5AA
S31508003B200C461546026A066A26F480560662C1697C
S31508003B3021F4407141EA052121F470414FF47046A1
S31508003B4006EA0336314322F420424FF4204606EAB9
S31508003B5004363243C161026270BD0A46816821F0AB
S31508003B60700142F007031943816070472DE9F04759
S31508003B7005460C464FF000092868866826F0700648
S31508003B806068064326F007062068064328688660AC
S31508003B90606800F00F0100293BD10011082838D2CF
S31508003BA0DFE800F0333435360B272D04D4E9031348
S31508003BB0A2682868FFF74DF92EE02068052802D18B
S31508003BC00120BDE8F0872868D0F820802868006AB8
S31508003BD020F00100296808622868876927F0F0073D
S31508003BE0206947EA0017286887612868C0F8208096
S31508003BF012E02269A168286800F011F80CE0226931
S31508003C00A168286800F01EF806E000BF00BF00BFE4
S31508003C1002E04FF0010900BF00BF4846D1E730B5C2
S31508003C200B461446026A056A25F001050562816994
S31508003C3021F0F00141EA041122F00A021A438161D7
S31508003C40026230BD30B50B461446026A056A25F095
S31508003C5010050562816921F4704141EA043122F0B8
S31508003C60A00242EA03128161026230BD70B50646BF
S31508003C700025B46B20684069C0F3C01594F841006C
S31508003C80212805D125B10020E084204600F029FA34
S31508003C9020684069C0F3801594F84200222805D1AF
S31508003CA025B10020E085204600F0E5F9606C40F07B
S31508003CB0100060642046FEF72FFB70BD2DE9F84F13
S31508003CC004462068006920F44050E16808432168EA
S31508003CD008612169A068084361690843E1690843E6
S31508003CE000902068C06849F20C618843009908432F
S31508003CF02168C8602068406920F44070A1690843BB
S31508003D002168486176492068884203D07549206849
S31508003D10884203D1FDF7E4F8814602E0FDF7D0F8C2
S31508003D208146E069B0F5004F6CD102206168A0FBBE
S31508003D30015003461920A9FB007001462A46384659
S31508003D40FCF7A6FA6421B0FBF1F04FEA001A02204C
S31508003D506168A0FB01510B461920A9FB00712A4690
S31508003D603846FCF795FA834602206168A0FB0150A5
S31508003D7003461920A9FB00712A463846FCF788FA3B
S31508003D806421B0FBF1F000EBC00101EB0010ABEBD6
S31508003D908000322101EBC0006421B0FBF1F000F095
S31508003DA0F8000AEB400A02206168A0FB01500346AE
S31508003DB01920A9FB007001462A463846FCF768FA1E
S31508003DC0834602206168A0FB015003461920A9FB1F
S31508003DD000712A463846FCF75BFA6421B0FBF1F01D
S31508003DE000EBC00101EB0010ABEB8000322101EBC8
S31508003DF0C0006421B0FBF1F000F0070050442168D0
S31508003E0088606AE004206168A0FB01500346192017
S31508003E10A9FB007001462A463846FCF739FA82465D
S31508003E2004206168A0FB015003461920A9FB007015
S31508003E3001462A463846FCF72BFA6421B0FBF1F016
S31508003E4000EBC00101EB0010AAEB8000322101EB68
S31508003E5000106421B0FBF1F000F0F00A042061685C
S31508003E60A0FB017003461920A9FB00513A462846D3
S31508003E70FCF70EFA6421B0FBF1F00AEB001A0420F5
S31508003E806168A0FB01510B461920A9FB00712A465F
S31508003E903846FCF7FDF9834604206168A0FB01500B
S31508003EA003461920A9FB007001462A463846FCF746
S31508003EB0EFF96421B0FBF1F000EBC00101EB001053
S31508003EC0ABEB8000322101EB00106421B0FBF1F06E
S31508003ED000F00F00504421688860BDE8F88F0000A4
S31508003EE00010014000140140F8B5044600250026DC
S31508003EF094F84200222873D1A068B0F5805F0BD1F0
S31508003F00206948B9A66A20684068C0F3080030806E
S31508003F10A06A801CA06214E0A56AA068B0F5805F5C
S31508003F2003D0A06828B9206918B9206840682870A5
S31508003F3004E02068406800F07F002870A06A401CF2
S31508003F40A062E08D401E80B2E085002846D1206838
S31508003F50C06820F020002168C8602068C06820F486
S31508003F6080702168C8602068406920F001002168D7
S31508003F704861202084F8420000206063206B0128F5
S31508003F8026D10020206300BF00BF21680C3151E80C
S31508003F90001F21F0100021680C3141E80002002AB8
S31508003FA0F3D100BF2068006800F0100010280AD17D
S31508003FB000BF0020009020680068009020684068D4
S31508003FC0009000BF00BFA18D2046FEF701F902E070
S31508003FD02046FEF7F1FB0020F8BD01E00020FBE7D4
S31508003FE00220F9E7014691F84100212828D188687E
S31508003FF0B0F5805F0BD1086948B90A6A1088C0F322
S3150800400008000B685860086A801C086205E00B6A9D
S31508004010581C086218780B685860C88C401E80B215
S31508004020C88458B90868C06820F080000B68D86052
S315080040300868C06840F040000B68D86000207047E8
S315080040400220FCE770B50546AC6B01206063206B67
S31508004050012805D1A08D41082046FEF7B9F802E0EF
S315080040602046FEF7AAFB70BD70B50446A56B284628
S31508004070FEF7F3FB70BD00BF00BF02680C3252E8C2
S31508004080002F22F4907102680C3242E80013002BCC
S31508004090F3D100BF00BF00BF0268143252E8002FF8
S315080040A022F001010268143242E80013002BF3D112
S315080040B000BF016B01290ED100BF00BF02680C3298
S315080040C052E8002F22F0100102680C3242E8001371
S315080040D0002BF3D100BF202180F842100021016394
S315080040E0704700BF00BF02680C3252E8002F22F06A
S315080040F0C00102680C3242E80013002BF3D100BF5E
S31508004100202180F84110704770B50546AC6B2868C9
S31508004110006800F48070002842D1E08500BF00BF27
S3150800412021680C3151E8001F21F4807021680C3198
S3150800413041E80002002AF3D100BF00BF00BF216892
S31508004140143151E8001F21F001002168143141E8BB
S315080041500002002AF3D100BF00BF00BF2168143156
S3150800416051E8001F21F040002168143141E800029F
S31508004170002AF3D100BF202084F84200206B0128D2
S315080041800ED100BF00BF21680C3151E8001F21F095
S31508004190100021680C3141E80002002AF3D100BF63
S315080041A000206063206B012804D1A18D2046FEF70C
S315080041B00FF802E02046FEF7FFFA70BD10B5044678
S315080041C02068C06820F040002168C860202084F874
S315080041D041002046FEF740FB002010BD70B504469E
S315080041E0A56B0020E8852846FEF796F870BD70B5E1
S315080041F00546AC6B2868006800F48070F8B90020A2
S31508004200E08400BF00BF2168143151E8001F21F087
S3150800421080002168143141E80002002AF3D100BF6A
S3150800422000BF00BF21680C3151E8001F41F0400073
S3150800423021680C3141E80002002AF3D102E0204649
S31508004240FEF70AFB70BD000010B5002804DB0A075C
S31508004250130E054A135406E00A07140E034A00F023
S315080042600F031B1FD45410BD00E400E018ED00E056
S3150800427002480068C0F30220704700000CED00E019
S315080042800548002180F8481080F849109FED030B77
S3150800429080ED140B7047000030000020000000007D
S315080042A0000000001CB5FCF775FCFEF735FFFEF7AD
S315080042B0FBFAFEF7D5FAFEF7EBFCFEF76DFBFEF709
S315080042C021FCFEF7CBFBFEF77FFCFEF7C9FE8B4809
S315080042D0FDF739FE00231A4619468948FFF7C8F83C
S315080042E00C218648FDF764FE04218448FDF760FE2C
S315080042F008218248FDF75CFE00218248FDF7D2FBC3
S3150800430000218148FDF7CEFB00218048FDF7CAFB56
S31508004310AB20062100231A46CDE9001078497C48CF
S31508004320FFF728F9E9E07B4800683021B0FBF1F097
S31508004330C0EB0010800000EE100AB8EE400A76487E
S3150800434080ED000A75480068B0FBF1F0C0EB00107C
S31508004350800000EE100AB8EE400A714880ED000AA7
S3150800436070480068B0FBF1F0C0EB0010800000EE6A
S31508004370100AB8EE400A6C4880ED000ADFED6B0AB9
S31508004380654890ED000A6A48FEF73EFF694880EDE9
S31508004390000ADFED660A624890ED000A6448443078
S315080043A0FEF732FF634880ED010ADFED600A5E48DA
S315080043B090ED000A5E488830FEF726FF5D4880EDDE
S315080043C0020A90ED000AB5EEC00AF1EE10FA03D221
S315080043D09FED590A80ED000A5648D0ED000A474875
S315080043E00068C06A00EE100AB8EE400AF4EEC00A89
S315080043F0F1EE10FA09DD41480068C06A00EE100ABD
S31508004400B8EE400A4B4880ED000A4A4890ED010A8A
S31508004410B5EEC00AF1EE10FA03D29FED470A80ED19
S31508004420010A4448D0ED010A34480068C06A00EE23
S31508004430100AB8EE400AF4EEC00AF1EE10FA09DDE9
S315080044402E480068C06A00EE100AB8EE400A3948DD
S3150800445080ED010A374890ED020AB5EEC00AF1EE82
S3150800446010FA03D29FED340A80ED020A3148D0EDE6
S31508004470020A22480068C06A00EE100AB8EE400A2E
S31508004480F4EEC00AF1EE10FA09DD1C480068C06AAD
S3150800449000EE100AB8EE400A264880ED020A2548C2
S315080044A090ED000ABCEEC00A10EE100A134909681E
S315080044B08863204890ED010ABCEEC00A10EE100A87
S315080044C00E490968C8631B4890ED020ABCEEC00A8B
S315080044D010EE100A0949096808641348104B0E4A79
S315080044E0032100900A48FFF7A0F90948FFF73CF8AE
S315080044F0FEF76CFE0A20FCF719FA14E724010020DF
S31508004500B401002094000020DC0000206C0100208B
S3150800451030000020100000200000002014000020B9
S31508004520040000201800002008000020000016449F
S315080045303C0B002088000020000000004FF040706F
S31508004540E1EE100A704700000000000000000102BA
S315080045500304060708090000000001020304000618
S3150800456010160006101600008C45000800000020F2
S3150800457030000000E8010008BC45000830000020B3
S315080045802815000004020008F9FCFFFF00000000DF
S31508004590000000000000000000000000000000000D
S315080045A00000000000000000000000000024F400E5
S311080045B0000000001000000001000000E0
S705080001AD44
