:020000040800F2
:10000000201C002071020008EB210008BD20000820
:10001000E92100082B050008A922000800000000C3
:10002000000000000000000000000000EF210008B8
:100030005D05000800000000ED210008F121000826
:100040008B0200088B0200088B0200088B0200085C
:100050008B0200088B0200088B0200088B0200084C
:100060008B0200088B0200088B0200088B0200083C
:100070008B0200088B0200088B0200088B0200082C
:1000800045050008510500088B0200088B02000896
:100090002D050008390500088B0200088B020008B6
:1000A0008B0200088B0200088B0200088B020008FC
:1000B0008B0200088B0200088B0200088B020008EC
:1000C0008B0200088B0200088B0200088B020008DC
:1000D0008B0200088B0200089D2200088B0200089A
:1000E0008B0200088B0200088B0200088B020008BC
:1000F0008B0200088B0200088B0200088B020008AC
:100100008B0200088B0200088B0200088B0200089B
:100110008B0200088B0200088B0200088B0200088B
:100120008B0200088B0200088B0200088B0200087B
:100130008B0200088B0200088B0200088B0200086B
:100140008B0200088B0200088B0200088B0200085B
:100150008B0200088B0200088B0200088B0200084B
:100160008B0200088B0200088B0200088B0200083B
:100170008B0200088B0200088B02000800000000C0
:100180008B0200088B0200088B0200088B0200081B
:100190008B0200088B0200088B0200088B0200080B
:1001A00000000000000000008B02000800F002F8D0
:1001B00000F04EF80AA090E8000C82448344AAF1B3
:1001C0000107DA4501D100F043F8AFF2090EBAE8B1
:1001D0000F0013F0010F18BFFB1A43F0010318477B
:1001E00004400000244000000A4410F8014B14F0C1
:1001F0000F0508BF10F8015B240908BF10F8014B78
:100200006D1E05D010F8013B6D1E01F8013BF9D1C0
:10021000641E03D0641E01F8015BFBD19142E4D35C
:10022000704700000023002400250026103A28BF54
:1002300078C1FBD8520728BF30C148BF0B60704758
:100240001FB503F014FF00F015F91FBD10B510BD68
:1002500000F036F91146FFF7F3FF03F001FD00F05F
:1002600054F903B4FFF7F2FF03BC00F057F90000A4
:100270000948804709480047FEE7FEE7FEE7FEE73A
:10028000FEE7FEE7FEE7FEE7FEE7FEE70448054976
:10029000054A064B70470000F5210008AD01000833
:1002A00020160020201C00202018002020180020EC
:1002B00053EA020C00F069802DE9F04B4FF0000684
:1002C000002B1FBFB3FA83F503FA05F424FA05F6F1
:1002D0005E4012BF1643B2FA82F502FA05F4C5F188
:1002E00020051EBF22FA05FC44EA0C04203556EA1C
:1002F000044C4FEA144418BF641C4FF000084FF040
:100300000009904271EB030C39D3002919BFB1FAEF
:1003100081F701FA07F6B0FA80F700FA07F6C7F19D
:1003200020071EBF20FA07FC46EA0C062037B6FB62
:10033000F4FCA7EB0507103F07F01F0BCBF12006DD
:100340000CFA0BFB2CFA06F644BFB3460026202F0E
:10035000A4BF5E464FF0000B5BEA060C08BF4FF0EF
:10036000010B19EB0B09ABFB027C48EB0608C01B29
:1003700006FB02CC0BFB03CC71EB0C01C1E70B4677
:10038000024641464846BDE8F08B13B54FF00000E9
:100390004FF00001AFF30080BDE81C4070474FF004
:1003A000000200B5134694469646203922BFA0E8C5
:1003B0000C50A0E80C50B1F12001BFF4F7AF0907D1
:1003C00028BFA0E80C5048BF0CC05DF804EB8900C2
:1003D00028BF40F8042B08BF704748BF20F8022B05
:1003E00011F0804F18BF00F8012B70474FF0013C0F
:1003F00050F8042B51F8043B9A4221D1A2EB0C0394
:10040000934313EACC1317D150F8042B51F8043B53
:100410009A4215D1A2EB0C03934313EACC130BD1F0
:1004200050F8042B51F8043B9A4209D1A2EB0C037B
:10043000934313EACC13DBD04FF00000704700BFAA
:10044000D01A01BAB1FA81F101F0180122FA01F0D3
:10045000CB40C1F12001DBB2C0B2C01A2CFA01F3CB
:10046000D11A914311EAC311E6D170477047704722
:100470007047000070B5064C7C44064D7D4403E097
:10048000206820448047241DAC42F9D170BD000093
:10049000883D0000883D000010B500F009F80068B4
:1004A00010BD10B5044600F003F8046010BD000054
:1004B00000487047BC15002000487047BC1500205C
:1004C0007546FFF7F9FFAE4605006946534620F032
:1004D0000700854618B020B5FFF7D8FEBDE82040DC
:1004E0004FF000064FF000074FF000084FF0000BF0
:1004F00021F00701AC46ACE8C009ACE8C009ACE8A3
:10050000C009ACE8C0098D46704710B50446AFF38A
:1005100000802046BDE81040FFF7A3BE0149182027
:10052000ABBEFEE7260002007047FEE7014800F080
:100530009DB90000D8030020014800F097B90000E1
:10054000D8030020014800F05FBC000044040020F4
:10055000014800F059BC0000A4040020704772B6A6
:10056000FEE7F0B590F820500468A468012D07D08C
:10057000022D05D0416A41F4802141620120F0BD85
:1005800004F0806504F00066354301D1E5005BD5D9
:10059000C4F30164022C05D9416A41F400014162AF
:1005A0000120F0BD0125A5401D608B684FF4C0758A
:1005B0009BB1CE6805EB041733434E6843EAC6038C
:1005C0000668F3514FF4C273076803EB04130E6916
:1005D000FE50097D012909D00DE00E88CB6805EB9E
:1005E000041743EA46530668F351EBE70168CE5817
:1005F00046F48076CE501179D379567941EA036179
:1006000093791B0443EA062319434FF4C676036823
:1006100006EB041699511178D37841EA0361937877
:1006200052781B0443EA022211434FF4C473026858
:1006300003EB0413D150006805EB0411425842F05B
:10064000010242500020F0BD416A41F400114162B4
:100650000120F0BD10B590F82020012A07D0022A11
:1006600005D0416A41F480214162012010BD3C481F
:1006700000F50070026842F001020260026822F494
:100680007C52026002684B6A42EA032202600A7DE1
:1006900002F01F0301229A40C3699343C361A0F58E
:1006A0000070CB69B3B9D0F80C329343C0F80C3268
:1006B0008C894B6864F31F434C6900EBC404C4F895
:1006C00040320C890B6864F31F434C6900EBC4048F
:1006D000C4F84432CB69012B16D1D0F80C32134345
:1006E000C0F80C320C884B6864F31F434C6900EB74
:1006F000C404C4F840320C89CB6864F31F434C69CE
:1007000000EBC404C4F844328B697BB1D0F80432E6
:100710001343C0F804320B6973B1D0F81432134399
:10072000C0F81432096A01290CD010E0D0F8043264
:100730009343C0F80432EEE7D0F814329343C0F884
:100740001432EFE7D0F81C121143C0F81C12D0F895
:10075000001221F00101C0F80012002010BD0000BD
:1007600000640040704730B590F82040012C07D05D
:10077000022C05D0416A41F480214162012030BD44
:1007800021B104682469A4075FD003E00468E46829
:10079000A40754D04FF4D874056804EB01142D5904
:1007A00005F004059560F5B305682D59ED08556011
:1007B00005682C5904F00204D4604FF4DA7405681B
:1007C00004EB01142D5905F00F05156105682D592D
:1007D000C5F30725956105682C59240C54614FF425
:1007E000DC72046802EB0112A4581C700468A4585F
:1007F000240A5C700468A458240C9C700468A258F5
:10080000120EDA704FF4DE72046802EB0112A45883
:100810001C710468A458240A5C710468A458240C50
:100820009C71046800E016E0A258120EDA71B9B1AA
:100830000068016941F020010161002030BD416A7A
:1008400041F400114162012030BD416A41F40011C0
:100850004162012030BD05682D596D0D1560A7E777
:100860000068C16841F02001C160E6E72DE9F05F52
:100870000546002428684669D0F804908768D0F8B7
:100880000CA0D0F810B0D0F81880F10748D0F907C4
:1008900014D001218160B80703D5284600F054FA2E
:1008A0000CE0780702D54FF4006407E0380702D562
:1008B0004FF4805402E0284600F045FAF80516D5BA
:1008C00029684FF480708860B80503D5284600F089
:1008D0003DFA0CE0780502D544F4005407E03805F1
:1008E00002D544F4804402E0284600F02EFAF803D2
:1008F00016D529684FF480308860B80303D52846A0
:1009000000F026FA0CE0780302D544F4004407E036
:10091000380302D544F4803402E0284600F017FA88
:10092000300707D55FEACA6004D544F4007429682B
:100930001020C86070074FF0080707D55FEA0A70FB
:1009400004D52868C760284600F07CF9B00706D5B2
:100950002868C068800702D0284600F075F9700644
:1009600007D55FEACB6004D544F480642968102081
:100970000861B00607D55FEA0B7004D528680761E7
:10098000284600F089F9F00606D528680069800736
:1009900002D0284600F082F9B00308D55FEAC960AA
:1009A00005D5296810204860284600F09FF9F0031B
:1009B00007D55FEA097004D528684760284600F02B
:1009C000C8F9300446D55FEA497040D5F00504D532
:1009D0005FEAC87001D044F00104B00504D55FEAB5
:1009E000887001D544F00204700504D55FEA4870B0
:1009F00001D544F00404300529D518F0700F26D035
:100A000008F07000402815D006DC102809D02028F6
:100A10000AD0302816D10AE050280ED0602811D113
:100A20000EE044F008040DE044F010040AE044F045
:100A3000200407E044F0400404E044F0800401E0B6
:100A400044F480742868816921F07001816129680B
:100A500004204860002C05D0686A2043686228465C
:100A6000FFF780FEBDE8F09F70B50446002C03D070
:100A700094F8200010B104E0012070BD204600F081
:100A80009DF82068016841F00101016000F056FC0A
:100A9000054605260CE000F051FC401B0A2807D94A
:100AA000606A40F40030606284F82060012070BD0C
:100AB00020684068C007EED02068016821F002017C
:100AC000016000F03BFC05460CE000F037FC401BE9
:100AD0000A2807D9606A40F40030606284F8206018
:100AE000012070BD206840688007EED4207E012878
:100AF0003FD02068016821F080010160607E0128FC
:100B00003DD02068016821F040010160A07E0128ED
:100B10003BD02068016821F020010160E07E0128BF
:100B200039D02068016841F010010160207F012860
:100B300037D02068016821F008010160607F01283A
:100B400035D02068016821F004010160D4E9020178
:100B50000843D4E90412114308436168491E08435D
:100B60002168C86100206062012084F82000002014
:100B700070BD2068016841F080010160BEE7206817
:100B8000016841F040010160C0E72068016841F060
:100B900020010160C2E72068016821F010010160B6
:100BA000C4E72068016841F008010160C6E72068D9
:100BB000016841F004010160C8E7000010B586B08B
:100BC0000446142101A8FFF7EAFB1B49206888426C
:100BD0002FD100211948026842F0007202600068BB
:100BE00000F00070009015481038026842F00802CA
:100BF0000260006800F008000090032001900222CB
:100C00000292039104900920059001A90C4800F07C
:100C100097FA00221146142000F000FC142000F086
:100C2000EFFB00221146152000F0F8FB152000F024
:100C3000E7FB06B010BD00000064004040380240F1
:100C4000000C02407047000010B5104A0168914244
:100C50000BD10F4B0021A3F12004221DFFF783FDD0
:100C6000201DA16ABDE8104008470A4A91420CD1F4
:100C7000074B00212C33A3F12004221DFFF773FD45
:100C8000201DA16ABDE81040084710BD0064004067
:100C900084150020006800407047000010B5104A1D
:100CA000016891420BD10F4B0121A3F12004221DB9
:100CB000FFF759FD201DA16ABDE8104008470A4A08
:100CC00091420CD1074B01212C33A3F12004221DAA
:100CD000FFF749FD201DA16ABDE81040084710BD7F
:100CE000006400408415002000680040704770B523
:100CF000044694F82000012805D0606A40F40020E2
:100D00006062012070BD022084F820002068016824
:100D100021F00101016000F011FB05460DE000F03B
:100D20000DFB401B0A2808D9606A40F4003060625D
:100D3000052084F82000012070BD20684068C007AD
:100D4000EDD1606270BD7047704770477047704763
:100D5000704770472DE9F0410446A76D00F0EEFAA8
:100D6000054694F835000026022806D080206065EC
:100D700084F834600120BDE8F0812068016821F02A
:100D8000160101602068416921F080014161206CF9
:100D900008B9A06C20B12068016821F00801016049
:100DA0002068016821F0010101600BE000F0C6FA43
:100DB000401B052806D920203434206203206070AF
:100DC0002670D8E720680068C007EFD134343F2090
:100DD00094F828108840B8600120607026700020C8
:100DE000C9E790F83510022903D080214165012020
:100DF0007047052180F835100068016821F0010175
:100E000001600020704700002DE9F84304464FF0D0
:100E10000009CDF800906F484FF416510068B0FB00
:100E2000F1F7A56D2E6894F85C00082202FA00F133
:100E3000314210D02068016849070CD5016821F0C3
:100E40000401016094F85C0002FA00F1A960606D91
:100E500040F00100606594F85C104FF0010808FA5A
:100E600001F0304208D021684969090604D5A8601C
:100E7000606D40F00200606594F85C1004208840CA
:100E8000304208D021680968890704D5A860606DE0
:100E900040F00400606594F85C10102088403042F7
:100EA00020D02168096809071CD5A860206801685E
:100EB00049030CD50068000304D4216C91B120468D
:100EC00088470FE0A16C69B1204688470AE00168B5
:100ED000C90503D4016821F008010160216C09B142
:100EE0002046884794F85C102020884030424CD03F
:100EF00021680968C90648D5A86094F83500052816
:100F00000BD020680168490330D50068000328D45D
:100F1000616C51B32046884737E02068016821F0B2
:100F2000160101602068416921F080014161206C57
:100F300008B9A06C20B12068016821F008010160A7
:100F400094F85C103F208840A86084F8358084F8CD
:100F50003490216D00293BD001B02046BDE8F0431C
:100F60000847E16B09B1204688470EE00168C905D2
:100F700007D4016821F01001016084F8358084F8FD
:100F80003490E16B09B120468847606D00281FD07E
:100F9000606DC00714D0052084F835002068016812
:100FA00021F0010101600098401C0090B84203D874
:100FB00020680068C007F6D184F8358084F8349042
:100FC000E16C002904D001B02046BDE8F043084799
:100FD000BDE8F883940200202DE9F041044600F0BA
:100FE000ADF905465CB1022084F83500002684F88E
:100FF00034602068016821F0010101600DE00120EA
:10100000BDE8F08100F09AF9401B052805D92020A1
:101010006065032084F83500F2E720680068C007A7
:10102000F0D121680A6820480240D4E9010318433E
:10103000D4E903352B43184363691843A369184364
:10104000E3691843236A18431043626A042A03D1F0
:10105000D4E90B231A43104308602068406920F04C
:101060000700656A29460543012704290DD1A06AB6
:101070000543E06A48B1204601F09DFE28B14020BA
:10108000606584F835700120BAE720684561204624
:1010900001F0CEFE94F85C203F21914081606665AE
:1010A00084F835700020ABE73F8010F02DE9F04167
:1010B00004460025A66D94F8340001280DD00120C7
:1010C00084F8340094F835700020012F07D084F89C
:1010D000340002252846BDE8F0810220FBE7022704
:1010E00084F835706065204601F050FE94F85C107D
:1010F0003F208840B0602068016841F0160101601F
:10110000206C20B12068016841F00801016020686E
:10111000016841F001010160DCE7000070B50446A0
:1011200000F00CF90546601C02D004480078044425
:1011300000F004F9401BA042FAD370BD88020020E1
:101140002DE9F84F0022DFF8B0914FF00108032796
:101150004FF00F0C09F1040AA9F1040B08FA02F58B
:101160000B682B40AB426ED10C7904F00304012CC8
:1011700001D0022C15D18668540007FA04FE26EA35
:101180000E06D1F80CE00EFA04FE4EEA060EC0F888
:1011900008E04468AC430D79C5F30015954025433C
:1011A00045600C79E443A40708D0C568540007FAE9
:1011B00004F6B5438E68A6402E43C6600C7904F051
:1011C0000304022C11D1D40800EB8406356A5407BD
:1011D000E40E0CFA04FE25EA0E05D1F810E00EFA32
:1011E00004FE4EEA050EC6F820E00568540007FA32
:1011F00004F6B5430E7906F00306A6402E430660BA
:101200004C6814F4403F71D03C4C256845F480454F
:101210002560246804F480440094394C22F00305CE
:101220002E19D6F8085894074FEA147E0CFA0EF4DB
:10123000A543344CA04201D100242EE0324CA04200
:1012400002D1012429E051E0304CA04201D1022416
:1012500023E02F4CA04201D103241EE02D4CA042DC
:1012600001D1042419E02C4CA04201D1052414E042
:101270002A4CA04201D106240FE0294CA04201D102
:1012800007240AE0274CA04201D1082405E0264C9F
:10129000A04201D1092400E00A2404FA0EF42C43F0
:1012A000C6F80848D9F800409C434D68ED0200D5C7
:1012B0001C43C9F80040DAF800409C434D68AD0279
:1012C00000D51C43CAF80040DBF800409C434D6841
:1012D000AD0300D51C43CBF80040074D083D2C68FA
:1012E0009C434E68F60300D51C432C60521C102A08
:1012F000FFF434AFBDE8F88F083C014044380240A9
:10130000003001400000024000040240000802409A
:10131000000C02400010024000140240001802407D
:10132000001C02400020024000240240002A01D09C
:10133000816170470904816170470000014880683D
:10134000704700008802002002488168027811443A
:10135000816070478802002010B50B48016841F495
:1013600000710160016841F480610160016841F42D
:1013700080710160032000F071F80F2000F006F882
:1013800000F026F8002010BD003C024070B5044675
:101390000D4D4FF47A712878B1FBF0F00B490968D4
:1013A000B1FBF0F000F088FB08B1012070BD102CFB
:1013B00007D200222146501E00F030F86C60002059
:1013C00070BD012070BD0000880200209402002042
:1013D00008B50A48016841F480410160006800F4E2
:1013E000804000900548001F016841F08051016075
:1013F000006800F08050009008BD000044380240B2
:10140000002809DB00F01F02012191404009800003
:1014100000F1E020C0F8001170470000F0B40D4664
:101420000D4B1B68C3F30223C3F10704042C00D93E
:101430000424191D072901D2002300E0DB1E012628
:1014400006FA04F1491E294099409E40761E164036
:101450003143F0BC01F002BF0CED00E000F00701E9
:10146000054A10684FF6FF03184040EA012003497F
:1014700008431060704700000CED00E00000FA0522
:101480002DE9F8431848016841F080510160006877
:1014900000F080500090DFF854800127C8F84070B9
:1014A000FFF74CFF05464FF47A76114C07E0FFF743
:1014B00045FF401BB04202D90320BDE8F8836068B5
:1014C000C003F4D5C8F84470FFF738FF054606E0BE
:1014D000FFF734FF401BB04201D90320EDE76068FD
:1014E0008003F5D50020E8E74038024000000E42B6
:1014F000007000402DE9F04704460D46002C13D043
:10150000DFF82891D9F80000EFB200F00F00A842F0
:101510000CD289F80070D9F8000000F00F00A84242
:1015200004D00120BDE8F0870120FBE72068404E91
:10153000810712D5400703D5306840F4E050306091
:101540002078000703D5306840F460403060306890
:10155000A16820F0F000084330602078C00731D047
:10156000334960680839012808D002280BD00328C5
:1015700009D0096889070BD40120D3E709688903DA
:1015800006D40120CEE70968890101D40120C9E70A
:10159000316821F0030101433160FFF7CFFE80463F
:1015A00041F2883A07E0FFF7C9FEA0EB080050457A
:1015B00001D90320B6E73068616800F00C00B0EB99
:1015C000810FF0D1D9F8000000F00F00A84209D92E
:1015D00089F80070D9F8000000F00F00A84201D08F
:1015E00001209FE72078400705D53068E16820F4A6
:1015F000E050084330602078000706D53068216944
:1016000020F4604040EAC100306000F03FF83168EB
:10161000084AC1F30311515CC840074908600748F4
:101620000068FFF7B3FE00207CE70000003C0240AA
:10163000083802408A400008940200208C020020F2
:1016400001480068704700009402002000B5FFF7D1
:10165000F7FF04490968044AC1F38221515CC8407C
:1016600000BD0000083802409A40000800B5FFF7AE
:10167000E7FF04490968044AC1F34231515CC8409C
:1016800000BD0000083802409A40000810B5174815
:10169000006810F00C01164816D0164B042912D021
:1016A000082911D1114C241F216801F03F02216843
:1016B00049020AD52068C0F38810A0FB030100236B
:1016C000FEF7F6FD09E0184610BD21680023C1F3BE
:1016D0008811A1FB0001FEF7EBFD2168C1F3014178
:1016E000491C4900B0FBF1F010BD00000838024071
:1016F0000024F400001BB7002DE9F84F0446002C2D
:1017000013D02078DFF8A083C007A8F1040556D0D5
:1017100008F104000168C1F3810101290CD00068BF
:10172000C0F38100022803D00DE00120BDE8F88F4E
:10173000D8F80000400206D5286880033FD56068CD
:1017400070BB0120F2E76068B0F5803F10D0B0F5C3
:10175000A02F12D0286820F480302860286820F458
:10176000802028606068E0B1FFF7E8FD064614E0DD
:10177000286840F480302860F4E7286840F480202E
:101780002860286840F480302860EBE7FFF7D6FD3A
:10179000801B642801D90320C8E728688003F5D599
:1017A0000DE0FFF7CBFD064606E0FFF7C7FD801B07
:1017B000642801D90320B9E728688003F5D420788C
:1017C000BA4F80074FF0000948D5B748001D01689F
:1017D00011F00C0F08D00068C0F38100022813D16B
:1017E000D8F8000040020FD42868800704D5E068CC
:1017F000012801D0012099E72868216920F0F8002C
:1018000040EAC100286029E0E068B8B101203860F2
:10181000FFF794FD064606E0FFF790FD801B0228C7
:1018200001D9032082E728688007F5D52868216957
:1018300020F0F80040EAC10028600FE0C7F80090EF
:10184000FFF77CFD064606E0FFF778FD801B0228C7
:1018500001D903206AE728688007F5D420780007BB
:1018600029D5DFF844A2924861690AF1700A89B16A
:1018700001210160FFF762FD064606E0FFF75EFD0D
:10188000801B022801D9032050E7DAF80000800706
:10189000F4D510E0C0F80090FFF750FD064606E0D2
:1018A000FFF74CFD801B022801D903203EE7DAF840
:1018B00000008007F4D42078400778D54FF0000A64
:1018C00079483C300068C0000BD477483C30016850
:1018D00041F080510160006800F0805000904FF0AE
:1018E000010ADFF8D0B1DBF80000C00514D4DBF842
:1018F000000040F48070CBF80000FFF71FFD0646A3
:1019000006E0FFF71BFD801B022801D903200DE72D
:10191000DBF80000C005F4D5634EA0686C360128E2
:101920000FD0052812D0306820F0010030603068F8
:1019300020F004003060A068F8B1FFF7FFFC834698
:1019400017E0306840F001003060F4E7306840F0A4
:1019500004003060306840F001003060EBE7FFF7D2
:10196000EDFCA0EB0B0141F28830814201D903204C
:10197000DCE630688007F2D510E0FFF7DFFC834635
:1019800009E0FFF7DBFCA0EB0B0141F2883081425C
:1019900001D90320CAE630688007F2D4BAF1010FFA
:1019A00005D141483C30016821F080510160A069B7
:1019B000C0B33D49091D09684FF0FF36C1F38101ED
:1019C000022946D0022805D0C7F86090FFF7B6FC80
:1019D00004463AE0C7F86090FFF7B0FC814607E0A4
:1019E000FFF7ACFCA0EB0900022801D903209DE61B
:1019F00028688001F4D4D4E907010843616AA26A27
:101A0000890106EB520241EA0241084394F82C1086
:101A100040EA0160C8F8000001203866FFF78EFC3C
:101A2000044607E03DE0FFF789FC001B022801D9CE
:101A300003207BE628688001F5D532E0FFF77EFCC5
:101A4000001B022801D9032070E628688001F5D424
:101A500027E0012823D0D8F80000E26900F48001D3
:101A600091421AD1226A00F03F01914215D147F606
:101A7000C071626A0140B1EB821F0ED1A26A00F40C
:101A8000403106EB5202B1EB024F06D194F82C1014
:101A900000F07060B0EB016F03D0012046E601203A
:101AA00044E6002042E600000438024000004742BD
:101AB000800E47420070004010B5401EB0F1807F9C
:101AC00001D3012010BD4FF0E02460610F216017A9
:101AD00001F0C4FB0020A06107202061002010BDA0
:101AE00038B5044694F83E00202801D0022038BDC5
:101AF00071B16AB194F83C0001280BD0012084F840
:101B00003C002063204600F07DFB014621B107E048
:101B1000012038BD022038BD206B012802D00121F0
:101B2000084638BD206802684068009020680C3084
:101B300050E8002F42F0100240E80023002BF5D1BE
:101B4000EEE7000070B50446484A206890420ED186
:101B5000474D05F58270D5F8082206469047B5F83E
:101B6000042231462046BDE87040FFF7B9BF414A24
:101B700090420ED1404D05F58270D5F808220646F8
:101B80009047B5F8042231462046BDE87040FFF783
:101B9000A7BF3A4A90420ED1394D05F58270D5F86B
:101BA000082206469047B5F8042231462046BDE893
:101BB0007040FFF795BF334A90420ED1324D05F584
:101BC0008270D5F8082206469047B5F804223146BF
:101BD0002046BDE87040FFF783BF2C4A90420ED1EB
:101BE0002B4D05F58270D5F8082206469047B5F8CA
:101BF000042231462046BDE87040FFF771BF254AF8
:101C000090420ED1244D05F58270D5F80822064683
:101C10009047B5F8042231462046BDE87040FFF7F2
:101C20005FBF1E4A90420ED11D4D05F58270D5F85A
:101C3000082206469047B5F8042231462046BDE802
:101C40007040FFF74DBF174A90420ED1164D05F573
:101C50008270D5F8082206469047B5F8042231462E
:101C60002046BDE87040FFF73BBF70BD001001404B
:101C700004050020004400401007002000480040F8
:101C80001C090020004C0040280B002000500040A0
:101C9000340D002000140140400F00200078004067
:101CA0004C110020007C00405813002070470000B9
:101CB000F8B5044622681068D168536900F00F0631
:101CC000002E08D1850606D58D0604D52046BDE830
:101CD000F84001F073B90025002E66D003F001062C
:101CE00001F49077374360D0C20705D0CA0503D509
:101CF000226C42F001022264420705D5DA0703D0C4
:101D0000226C42F002022264820705D5DA0703D072
:101D1000226C42F004022264020707D501F020027F
:101D2000324303D0226C42F008022264226C002A63
:101D300031D0800604D5880602D5204601F03EF950
:101D400020684069C0F38010216C090700D438B3C3
:101D5000204601F0D7F92068406940061CD520686C
:101D6000143050E8001F21F0400140E80012002A22
:101D7000F5D1A06B60B157490165A06BFFF731F851
:101D8000002808D0A06B016D01B0BDE8F040084705
:101D90002046FFF78BFFF8BD2046FFF787FFF8BD11
:101DA0002046FFF783FF2564F8BD236B012B7ED10E
:101DB000C3067CD5CB067AD5106850680090506970
:101DC0004FF02003400643D5A16B0868406880B2FD
:101DD0000028E9D0A28D8242E6D9E085C869B0F535
:101DE000807F2DD020680C3050E8001F21F48071D6
:101DF00040E80012002AF5D12068143050E8001F96
:101E000021F0010140E80012002AF5D120681430C9
:101E100050E8001F21F0400140E80012002AF5D1EF
:101E200084F83E30256320680C3050E8001F21F014
:101E3000100140E80012002AF5D1A06BFEF78AFFDE
:101E4000A08DE18D401A81B22046FFF77BFEF8BDE0
:101E5000A08DE18D401A81B2E08D0028F7D00029D5
:101E6000F5D020680C3050E8002F22F4907240E842
:101E70000026002EF5D12068143050E8002F22F003
:101E8000010240E80026002EF5D184F83E3025639B
:101E900020680C3050E8002F22F0100240E80023A8
:101EA000002BF5D12046FFF74DFEF8BDFFE70206F7
:101EB00006D50A0604D52046BDE8F84001F0E1B891
:101EC0004006F2D54806F0D52046BDE8F84001F0BE
:101ED0008FB900000B32000870B50446002C04D006
:101EE00094F83D00002510B106E0012070BD84F893
:101EF0003C50204600F022F8242084F83D00206861
:101F0000C16821F40051C160204600F0CDFF206877
:101F1000016921F4904101612068416921F02A01A1
:101F200041612068C16841F40051C16025642020EE
:101F300084F83D0084F83E00002070BD2DE9F0419A
:101F400086B00546142101A8FEF729FA2F49286812
:101F5000884258D100262E48016841F400310160C2
:101F6000006800F40030009029481038016841F002
:101F700008010160006800F00800009060200190F6
:101F8000022002900396032004900720059001A9E7
:101F90002048FFF7D5F8214C1F4820604FF000681B
:101FA000C4F80480A660E660071527616661A66133
:101FB000E661266266622046FFF70EF808B1FEF77A
:101FC000CEFAAC63A5631448144C1830603420601A
:101FD000C4F804804020A060E66027616661A661C5
:101FE000E661266266622046FEF7F6FF08B1FEF75C
:101FF000B6FA6C63A563002211462620FFF70EFA9D
:102000002620FFF7FDF906B0BDE8F081004400404E
:1020100040380240000C0240886002404404002026
:1020200070477047F7B5044694F83D00202801D06A
:102030000220FEBD019999B392B394F83C000128A7
:1020400031D0012084F83C002162A284E284002582
:102050002564212084F83D00636B1448D863636BCA
:1020600013481864636B1348D864606B0565266871
:102070001346361D3246606BFFF718F821686FF083
:102080004000086084F83C502068143050E8001F7D
:1020900041F0800140E80012002AF5D10020FEBD89
:1020A000FFE70120FBE70220F9E700001B320008F0
:1020B000FB3000085D2E000870477047FEE7000007
:1020C00010B50F480D490160092141600021816070
:1020D000C1604FF480320261120142610176012237
:1020E00042768176C17601774177FEF7BDFC002804
:1020F00003D0BDE81040FEF732BA10BD00640040C6
:10210000D803002008B50D48016841F400110160B2
:10211000006800F400100090002211461020FFF724
:102120007DF91020FFF76CF9002211461120FFF70E
:1021300075F9BDE808401120FFF762B93038024058
:1021400030B587B0142102A8FEF729F900241648FB
:10215000016841F001010160016801F00101019194
:10216000016841F008010160016801F00801019176
:10217000016841F080010160006800F0800001907A
:102180000A4D00223C212846FFF7D0F83C2102915D
:102190000121039102210491059402A92846FEF72A
:1021A000CFFF07B030BD000030380240001C0240B5
:1021B00010B50C480A4901604FF4E131416000213B
:1021C0008160C16001610C2242618161C161FFF7E0
:1021D00083FE002803D0BDE81040FEF7C0B910BD53
:1021E0000044004000040020FEE7FEE7704770470F
:1021F000FFF7AAB80248016841F470010160704716
:1022000088ED00E037B582B004461346039AA26217
:10221000A38500252564222084F83E00A16B1C487C
:10222000C863A16B1B480864A16B1B48C864A06B02
:1022300005652168A06B091DFEF738FF206801685D
:102240004068019084F83C50206948B120680C3007
:1022500050E8001F41F4807140E80012002AF5D1D7
:102260002068143050E8001F41F0010140E80012DE
:10227000002AF5D12068143050E8001F41F04001D9
:1022800040E80012002AF5D105B0002030BD000062
:102290006F310008E13000085D2E00080148FFF7AB
:1022A00007BD000000040020FEE7000002461021E8
:1022B0000148FFF73BB80000001C02400246202105
:1022C0000148FFF733B80000001C02400246042119
:1022D0000148FFF72BB80000001C0240024608210D
:1022E0000148FFF723B80000001C024000B587B08A
:1022F0000191002102910391049105936B4601A97C
:10230000FEF72FF907B000BDFFF78CBE30B5134BB9
:1023100098420DD1124A134B134C0C2908D2DFE816
:1023200001F00706080A0C0E10121416181A0C48B1
:1023300030BD901C30BD101D30BD901D30BD094812
:1023400030BD981C30BD181D30BD981D30BD0648ED
:1023500030BDA01C30BD201D30BD0000D8030020C2
:1023600070020020780200208002002030B593B077
:10237000302107A8FEF713F8142102A8FEF70FF882
:1023800000252048016841F080510160006800F09C
:10239000805001901C48016841F440410160006890
:1023A00000F44040019001200790000408900224AE
:1023B0000D9480010E9006200F90B420109011947F
:1023C0000420129007A8FFF797F908B1FEF7C7F8A5
:1023D000FFF756F808B1FEF7C2F80F2002900394F9
:1023E00004954FF4A05005904FF4805006900521BD
:1023F00002A8FFF77FF8002801D0FEF7B0F813B06D
:1024000030BD000040380240007000400168A1F576
:102410000071053904D100F11C01024800F038BAFE
:1024200070470000E002002030B58BB08D0701F04E
:1024300003040CD5D5040195D20042EA440202926D
:10244000DA040392DA0042EA4402049206E05201FE
:102450000192620002925B0103930492CA08069201
:10246000C1F3800105910121099100220792089191
:102470000E210A9101A9FEF7EDF80BB030BD000066
:1024800010B50146334800F050FB324800F016FB0F
:10249000304C983406285BD2DFE800F0031221307C
:1024A0003E4C2C4800F00DFB51EC100B01F0E8FC09
:1024B00000EE100A2748BDE81040483000F0EDBF9C
:1024C000244800F0FEFA51EC100B01F0D9FC00EEAC
:1024D000100A2048BDE81040483000F0DBBF1D481E
:1024E00000F0EFFA51EC100B01F0CAFC00EE100AFC
:1024F0001848BDE81040483000F0C9BF154800F04A
:10250000E0FA51EC100B01F0BBFC00EE100A204683
:10251000BDE8104000F0C1BF0E4800F0D2FA51EC07
:10252000100B01F0ADFC00EE100A2046BDE8104093
:1025300000F0B0BF074800F0C4FA51EC100B01F0F6
:102540009FFC00EE100A2046BDE8104000F09FBF3F
:1025500010BD00009802002010B5084C2068401CF7
:1025600020600823221D99010548FFF7BFFE20685F
:10257000092801D10020206010BD00006C0200205D
:10258000D8030020312202490248FFF7BDBE0000F7
:10259000140700200004002010B50446C4F3000016
:1025A000FFF78CFEC4F34000FFF780FEC4F3800009
:1025B000FFF794FEC4F3C000FFF788FE44F3001059
:1025C000401C00F0B9F844F34010401C00F0ACF897
:1025D00044F38010401C00F067F844F3C010401C26
:1025E00000F06AF844F30020401C00F06DF844F35A
:1025F0004020401C00F070F844F38020401C00F0A4
:1026000073F844F3C020401C00F076F844F3003027
:10261000401C00F079F844F34030BDE81040401C05
:1026200000F07AB870B504460D462046FEF75FFB11
:102630002068416941F0020141612068416941F02F
:102640001001416115492068884210D11448046086
:10265000856200231A4619462046FFF7E5FE20460C
:10266000BDE8704000231A460C21FFF7DDBE0D497E
:10267000884211D10A482C300460856200231A4632
:1026800070212046FFF7D0FE2046BDE870400023B1
:102690001A467C21FFF7C8BE70BD000000640040F0
:1026A0006415002000680040024602210148FEF740
:1026B0003DBE000000180240024604210148FEF71A
:1026C00035BE000000180240024608210148FEF70E
:1026D0002DBE000000180240024610210148FEF7FE
:1026E00025BE000000180240024620210148FEF7E6
:1026F0001DBE000000180240024640210148FEF7BE
:1027000015BE000000180240024680210148FEF775
:102710000DBE00000018024002464FF480710148CF
:10272000FEF704BE0018024002464FF48041014803
:10273000FEF7FCBD0014024002464FF40061014860
:10274000FEF7F4BD0010024030B4394C0368A342D8
:102750000AD1384B1860C3F80812A3F8042230BC21
:1027600003F58271FFF7BCB9334CA3420AD1334B56
:102770001860C3F80812A3F8042230BC03F5827174
:10278000FFF7AEB92E4CA3420AD12E4B1860C3F806
:102790000812A3F8042230BC03F58271FFF7A0B938
:1027A000294CA3420AD1294B1860C3F80812A3F898
:1027B000042230BC03F58271FFF792B9244CA34286
:1027C0000AD1244B1860C3F80812A3F8042230BCC5
:1027D00003F58271FFF784B91F4CA3420AD11F4B46
:1027E0001860C3F80812A3F8042230BC03F5827104
:1027F000FFF776B91A4CA3420AD11A4B1860C3F8F6
:102800000812A3F8042230BC03F58271FFF768B9FF
:10281000154CA3420AD1154B1860C3F80812A3F84F
:10282000042230BC03F58271FFF75AB930BC7047FF
:102830000010014004050020004400401007002063
:10284000004800401C090020004C0040280B0020DC
:1028500000500040340D002000140140400F0020C3
:10286000007800404C110020007C004058130020EC
:1028700090ED360A704790ED370A704790ED3A0AAE
:10288000704790ED3B0A704780ED3A0A70470000B0
:1028900070B550F8B82F521C0260038903824A7841
:1028A0000C7842EA04220281CC788D7844EA05242F
:1028B00024B244814D790E7945EA06252DB28581F1
:1028C0008E79C681D11A0BB28169B83813F5805F51
:1028D00003DA491CC0F8D01005E0B3F5805F02DDD3
:1028E000491EC0F8D010AC300189436A03FB0122B5
:1028F000026200EE102AF8EEC00A00EE101AB8EEDE
:10290000401A80EE810AF0EE000A20EE200ADFED88
:102910000F0A60EE200A90ED000A80EE801A80ED2A
:102920000B1A00EE904A9FED0A1AF8EEE00A60EEEC
:10293000810A80EE801A80ED0C1A00EE105AB8EE73
:10294000C00A80ED0D0A80F8386070BDDB0F494089
:102950005077D63D70B5044694F8E500002811D0B4
:10296000012821D004F1500502282FD0032841D09E
:1029700020469FED320A00F09EF82046BDE87040E8
:1029800000F086B894ED3C0A94ED2C1AB4F8B60029
:10299000C0EE010A00EE100A2046B8EE400A20EE12
:1029A000800A00F088F8E8E794ED3C0A94ED2C1AD0
:1029B000B4F8B600C0EE010A00EE100A2046B8EEE8
:1029C000400A20EE800A00F076F8D6E794ED3B0A44
:1029D000284600F053FC94ED370A284600F060FDCD
:1029E000284600F04FFC284600F04EFD204600F03F
:1029F00062F8C2E794ED3A0A204600F03FFC94EDFD
:102A0000360A204600F04CFD204600F03BFC2046F4
:102A100000F03AFD84ED3B0A284600F02FFC94EDCF
:102A2000370A284600F03CFD284600F02BFC2846DB
:102A300000F02AFD204600F03EF89EE7000000006E
:102A400030B50D46044611460D4A2868904203D120
:102A50000C48C4F8A00005E00B4A904202D10B4894
:102A6000C4F8A00004F8A41F84F8413084ED020AE1
:102A7000C4ED030A2846FFF749FC606030BD000042
:102A8000006400406415002000680040901500209C
:102A9000A83090ED130A0268BDEEC00A10EE101ABD
:102AA0000912117090ED130A0068BDEEC00A10EE15
:102AB000101A4170704780ED3D0A704790F941004F
:102AC000704710B5406C01F061FA41EC100B10BD7D
:102AD00070B59AB00646002401A901E00855641CAF
:102AE000326804F58270105C3D28F7D1002008554B
:102AF00000250BE005EBC501B06801EB051100EB0B
:102B0000810101A8FDF772FC50B16D1C3079A8421B
:102B1000F0DCFF2086F84100641CE0B21AB070BD02
:102B200086F84150641CE0B2F8E710B50446204630
:102B3000FFF7CEFF01462046BDE81040AFF300800E
:102B400070B50446002201259FED230A84ED110A89
:102B500094F94100401C3BD0236801F58270185C59
:102B60002D2801D1551E491CB2EE040A0DE02E2875
:102B70002FD0303800EE900A94ED111AF8EEE00AEA
:102B800041EE000AC4ED110A491C01F58270185C7F
:102B9000232801D00028EAD182B1881A00EE900AD9
:102BA000B7EE001AF8EEE00A70EEC10A00F0B8FCC9
:102BB000D4ED110A80EE801A84ED111A00EE105A3D
:102BC000D4ED110AB8EEC00A20EE800A84ED110A95
:102BD00070BD0A46D8E700000000000000F05AB8B7
:102BE00070B5DDE9045409681A4EB14202D11A49A0
:102BF000016028E0194EB14202D11949016022E07A
:102C0000184EB14202D1184901601CE0174EB14282
:102C100002D11749016016E0164EB14202D11649A1
:102C2000016010E0154EB14202D1154901600AE081
:102C3000144EB14202D11449016004E0134EB14276
:102C400001D1134901600271836005734473006808
:102C5000047170BD001001400405002000440040D4
:102C600010070020004800401C090020004C0040D4
:102C7000280B002000500040340D002000140140BB
:102C8000400F0020007800404C110020007C0040E4
:102C90005813002030B50021002204680B1DE254B7
:102CA000491CFF29F9DD0268417B1171017B81B16B
:102CB00003290ED0052401291BD0042919D002298B
:102CC00028D0052926D0062924D0072910D1002193
:102CD0003DE0002108E003684A1D1A4400EB81032F
:102CE0001B691B781370491C90F840208A42F2DC63
:102CF00030BD002109E0026804EB41031A4400EBF7
:102D000081031B691B881380491C90F840208A426C
:102D1000F1DC30BD002109E0026804EB81031A44B4
:102D200000EB81031B691B681360491C90F840206D
:102D30008A42F1DC30BD026804EBC1031A4400EBA7
:102D400081031B691D6815605B685360491C90F81E
:102D500040208A42EFDC30BD0FB408B504A90091D1
:102D6000002108E0009A00EB810312681A61009AC2
:102D7000121D0092491C9DF80C209142F2DB9DF837
:102D80000C1080F8401001B05DF814FB30B50468F9
:102D9000256825F480252560046863608368402BDE
:102DA00004D0036899600068C26030BD03689A600F
:102DB0000068C16030BD10B5014600208A6A8B6989
:102DC0004FF0C074002B0ED0B3F5005F1AD062B381
:102DD000012A2AD0022A28D0032A03D1C96AC901AC
:102DE00000D5012010BD1AB1012A06D0022AF9D15E
:102DF000C96AC901F6D5012010BDC96AA142FBD13B
:102E0000012010BD52B1012A0AD0022A06D0032A9D
:102E1000F7D1C96AA142F4D1012010BD012010BD33
:102E2000C96AC901FBD5012010BD012010BD0000F9
:102E30000168CAB2103A1823B2FBF3F2064B9B5C4E
:102E4000C3656FF30901032A02D9091D816500E0FA
:102E50008165806D704700008240000870B5846B0A
:102E600020684069C0F3C01094F83D100025212966
:102E700004D118B1E584204600F06BF92068406960
:102E8000C0F3801094F83E10222904D118B1E585D2
:102E9000204600F037F9206C40F0100020642046F6
:102EA000FEF704FF70BD00002DE9F04104462068E4
:102EB0000169E26821F4405111430161A168206970
:102EC000E26901436069104301432068C26849F226
:102ED0000C639A430A43C26020684169A26921F4E5
:102EE00040711143416133492068884202D0324920
:102EF000884202D1FEF7BAFB01E0FEF7A7FBE169C9
:102F00000023192764253226B1F5004F28D06168C7
:102F10008B0F8A00A0FB0701FDF7CAF90146B0FB41
:102F2000F5F07A42504301EB800006EB0010B0FB55
:102F3000F5F000F0F002B1FBF5F002EB0012B1FB8E
:102F4000F5F07B42584301EB800006EB0010B0FB2C
:102F5000F5F0216800F00F0010448860BDE8F081B2
:102F600061684A18A0FB07015B41FDF7A1F9014622
:102F7000B0FBF5F00201B1FBF5F06FF01803584318
:102F800001EB800006EBC000B0FBF5F000F0F800AC
:102F900002EB4002B1FBF5F0584301EB800006EB79
:102FA000C000B0FBF5F0216800F007001044886015
:102FB000D4E70000001001400014014008B590F86B
:102FC0003E10222901D0022008BD82684FF48053B0
:102FD0009A4201D1016921B1816A9A421DD052B150
:102FE0000BE0816A02685268C2F308020A80816AB3
:102FF000891C816209E002697AB10268526802F0B4
:103000007F020A70816A491C8162C18D491E0904D0
:10301000090CC18505D0002008BD026852680A70FD
:10302000F0E70168CA6822F02002CA600168CA6835
:1030300022F48072CA6001684A6922F001024A6182
:10304000202180F83E10016B012903D0FEF7E8FF34
:10305000002008BD0021016301680C3151E8002FF8
:1030600022F0100241E80023002BF5D101680A6824
:10307000D20602D50A6849680091818DFEF762FD8B
:10308000E6E790F83D10212901D0022070478168C1
:10309000B1F5805F01D1016961B1016A4A1C026228
:1030A000026809785160C18C491E0904090CC18469
:1030B0000AD013E0016A02680988C1F3080151606F
:1030C000016A891C0162EEE70168CA6822F0800289
:1030D000CA600068C16841F04001C16000207047CB
:1030E00010B5806B016B012902D0FEF79AFF10BD6D
:1030F000818D4908FEF726FD10BD10B5806BFEF7E7
:10310000DCFF10BD01680C3151E8002F22F49072F1
:1031100041E80023002BF5D10168143151E8002F5C
:1031200022F0010241E80023002BF5D1016B0129B7
:1031300009D101680C3151E8002F22F0100241E85A
:103140000023002BF5D1202180F83E1000210163DF
:10315000704701680C3151E8002F22F0C00241E8AD
:103160000023002BF5D1202180F83D10704710B5C9
:103170000146886B09680968C9052FD40021C185FB
:1031800001680C3151E8002F22F4807241E80023DD
:10319000002BF5D10168143151E8002F22F0010213
:1031A00041E80023002BF5D10168143151E8002FCC
:1031B00022F0400241E80023002BF5D1202180F8C5
:1031C0003E10016B012909D101680C3151E8002F33
:1031D00022F0100241E80023002BF5D1016B0129F8
:1031E00002D0FEF71DFF10BD818DFEF7ABFC10BDB8
:1031F00010B50168CA6822F04002CA60202180F838
:103200003D10FEF759FF002010BD10B5806B002166
:10321000C185C184FEF74AFD10BD10B50146886B1B
:1032200009680968C90516D40021C18401681431F0
:1032300051E8002F22F0800241E80023002BF5D155
:1032400001680C3151E8002F42F0400241E80023B0
:10325000002BF5D110BDFEF72FFF10BD0907090E99
:10326000002804DB00F1E02080F80014704700F033
:103270000F0000F1E02080F8141D704780ED110A66
:103280007047000010B504462DED068BDFED719AF6
:1032900094ED110AD4ED120A70EE608AB0EE680A5D
:1032A00000F0E6FDB0EE408AD4ED010AB0EE480A27
:1032B000F4EEC00AF1EE10FA07DD94ED120A84ED87
:1032C000110AF0EE698AB0EE688A94ED080A20EEE1
:1032D00028AA94ED0E0AB7EE001AB5EEC00AF1EE78
:1032E00010FA07D1B5EEC00AF1EE10FA02D1B0EE35
:1032F000419A20E0D4ED0F0AF4EEC80AF1EE10FA7C
:1033000002DBB0EE419A0FE0F4EEC80AF1EE10FADB
:103310000AD230EE201AB4EEC81AF1EE10FA03DD2C
:1033200031EE481A81EE009AF4EEC80AF1EE10FA76
:1033300001D8B0EE699A94ED0C0AB5EEC00AF1EE30
:1033400010FA0BD094ED091AF1EE401A04F14C007A
:10335000C0EE010A81EE810A00F078FD94ED100ABA
:10336000B5EEC00AF1EE10FA0ED1D4ED000A94EDDC
:10337000130A60EE890A00EEA80A84ED130AD4ED60
:10338000090A60EE809A17E0B4EEC80AF1EE10FA6E
:103390000EDDD4ED000A94ED130A60EE890A00EE0A
:1033A000A80A84ED130AD4ED090A60EE809A03E0BE
:1033B000B0EE690A84ED130A207AE8B394ED070AA7
:1033C000D4ED050A94ED001A30EE600AD4ED0A0A35
:1033D00060EE200A80EE810AD4ED110A94ED041A01
:1033E00070EEC10A94ED0B1A60EE810A3AEE291ACA
:1033F00031EE000A30EE200A84ED070AD4ED0D0A02
:10340000F5EEC00AF1EE10FA05D0B1EE600A04F153
:103410001C0000F01BFD94ED120A84ED030A94EDEC
:10342000110A84ED040A94ED070A84ED050AC4ED3F
:10343000068ABDEC068B10BDFFE7D4ED060A94EDBD
:103440000A0A94ED001A78EEE00A60EE200A80EE97
:10345000810AC1E70000000080ED080AC0ED090AFA
:1034600080ED0A1AC0ED0B1A80ED0C2AC0ED0D2A72
:1034700080ED003AC0ED013A80ED0E4AC0ED0F4AF2
:1034800080ED105A0172704790ED070A704780ED89
:103490000A0A704780ED090A704780ED080A7047F4
:1034A00080ED120A704700009FED120A80ED030ABA
:1034B00080ED040A80ED050A80ED060A80ED070A1A
:1034C00080ED080A80ED090A80ED0A0A80ED0B0AFA
:1034D00080ED0C0A80ED0D0A80ED0E0A80ED0F0ADA
:1034E00080ED100A80ED110A80ED120A80ED130ABA
:1034F00070470000000000004100080218BF0420CF
:103500000A0E18BF40F001004FF07F4232EA01017D
:1035100008BF40F00200012808BF052070470000E6
:1035200010B510EE100A2DED068BB7EE001A10EE56
:10353000901AB0EE418A0022A0F5000CDFEDFE9A51
:103540004FF00073BCF1FE4F4FF07F4403EB410C92
:1035500080F0B481BCF1804FC0F02082F749014473
:103560009FEDF73AB1F5005F40F2D48200F580217B
:10357000CB0C03F00F0101EE901AC3F307137F3B4E
:10358000A0EBC350B8EEE12A00EE100A1A44DFEDBA
:10359000ED2AF0EE411A42EE221AF0EE613A70EE98
:1035A000232A30EE632A12EE900A00F500606FF3D2
:1035B0000B0001EE900A73EEE13A33EE804AC1EE61
:1035C000223A22EE230A10EE100A00F500606FF393
:1035D0000B0000EE100A00EE612A00EE442A62EEB3
:1035E000232A70EE221A21EEA12ADFEDD73A02EE4D
:1035F000233A23EE023A20EE012A22EE811A03EE4C
:10360000211A32EE010A10EE100A00F500606FF385
:103610000B0000EE100A72EE401A31EE812A9FED87
:10362000CB1A60EE011A9FEDCA1A20EE011A9FED27
:10363000C90A02EE001A31EE810A10EE100A00F5F6
:1036400000606FF30B0000EE100AC34871EEC01A61
:1036500031EE812A784400EBC10090ED003AD0EDC4
:10366000011A100101EE100AF8EEC12A32EE211AF9
:1036700031EE001A31EE031A31EE221A11EE100A61
:1036800000F500606FF30B0009EE100A39EE621AC4
:1036900031EE431A31EE400A30EE610A32EE40AAB2
:1036A00010EE900A002100F500606FF30B0008EEA9
:1036B000900A084670EEE8AA4FF0000029EE280AAA
:1036C00000F00C01F0EEC00A10EE900AB0F18B4F42
:1036D0000DDD10EE900AB4EB400F08D310EE100A87
:1036E0004FF08B4262F31E0008EE900A13E069EE81
:1036F0002A0A38EEAA1A4AEE010A30EE201A11EE12
:10370000100A00F500606FF30B0008EE900A30EE2F
:10371000680A70EE209A0C204FF0000038EEA90ADB
:10372000B5EEC00AF1EE10FA34BFFEEE000AF6EE76
:10373000000A30EE800ABDEEC00A10EE100A011138
:1037400000EE101AF8EEC00A00EE100AB8EEC00A39
:1037500038EEC00A30EE290ADFED801A9FED801A9C
:1037600000EE211ADFED7F1A7F4900F00F0040EED6
:10377000011A21EE800A794401EB800191ED001AD3
:103780007A49794401EB8001D1ED001A784901EEC4
:10379000801A794401EB8000764990ED000A31EE01
:1037A000001AB0EEE00A10EE100A884215DA10EEA8
:1037B000100AB4EB400F10D39FED6F0A30EE800A71
:1037C000DFED6E0A20EE200A68EE010ABDEC068BE2
:1037D000BCEEC00A20EE200A10BD10EE100A6849A7
:1037E000884243DA10EE100AB4EB400F3ED3BDEE30
:1037F000E00A68EE010A10EE100A00EBD0725110D8
:10380000C90501F17E5100EE101AA0EB6200C0055F
:1038100060EE200A00F17E5000EE100A60EE808A11
:1038200018EE900AB4EB400F0FD10220FCF739FEDE
:1038300000F0BEF910EE101A18EE100ABDEC068B5F
:1038400061F31E0000EE100A10BD18EE900A400051
:1038500011D018EE900AFFF74FFE042808BF00F0C1
:10386000AFF9B0EE680ABDEC068B10BDF5EEC00AEC
:10387000F1EE10FA0FD20220FCF713FE00F0A0F9CF
:1038800010EE101A18EE100ABDEC068B61F31E0044
:1038900000EE100A10BD0220FCF703FE00F088F9CC
:1038A00010EE101AB0EE480A10EE100ABDEC068BAE
:1038B00061F31E0000EE100A10BD00BFBCF1804F86
:1038C0006CD300BF00F1FF43B3F1FE4F24D200BF21
:1038D000B0EEC00A10EE100AC1F3C7537F2B0DDB08
:1038E000972BBFF63BAEC3F196034FF0010C0CFAD9
:1038F00003F3A3F1010C1CEA010F08D00120FCF72F
:10390000D0FDBDEC068BBDE8104000F049B90B427C
:1039100018BFBFEE008A21E643001CBF4FF0807342
:10392000B3EB400F34D96FF01A02DFED161A20EE18
:10393000210A10EE100A27E000000000001080C0ED
:10394000ABAAAA3E0000803D7EE24C3E00B0384269
:10395000D49AB8BB3BAA38424C0A0000FC596337E2
:10396000C9FF753A1872313DEA0900001E0A0000CD
:103970008E0900000000FC420000FE420000004BE7
:10398000000040430000004D10F0004FA0D1E5E5DD
:10399000A0F50003B3F1FE4F21D2DFE503EB4103B5
:1039A000B3F1007F11D3F5EEC00AF1EE10FA05D1A4
:1039B000430018BFB4EB400F76D883E701F0004115
:1039C00041F0FC5100EE901A7CE7B3F1807F06D203
:1039D00010EE903AA3F5000300EE903A72E720F063
:1039E00000426FF0FF4C604C02EB0C03A34210D37B
:1039F00021F000439C44A4450BD3B0F17E5F18BF77
:103A00005FEA410C50D0B2F1FF4F98BFB3F1FF4FC6
:103A100005D9BDEC068BBDE8104000F0BDB8B0F193
:103A2000FF4F0FD0C1F3C7527F2A09DB972A11DA63
:103A3000C2F19602012303FA02F2531E0B4205D093
:103A4000002208E011F0004F55D128E00A4218BFCB
:103A5000012200D1022210F5000F13D028B3B0F1DB
:103A6000004F26D010F1814F4FD04FF0FE42B2EB05
:103A7000400F94BF01200020012202EBE171884237
:103A800039D10CE011F0004F02D0012A38D032E0D9
:103A9000012A02BF9FED350ABDEC068B10BD9FEDDC
:103AA000340ABDEC068B10BD2FE011F0004F0CD195
:103AB00021E0B1F1FF4F1ED011F5000F05D011F03C
:103AC000004F15D00AB1012A08D00220FCF7E9FC0A
:103AD000BDEC068BBDE8104000F054B80220FCF7A6
:103AE000E0FC00F04FF8BDEC068BB1EE400A10BDD3
:103AF0000AB1012A04D0B0EE690ABDEC068B10BDF4
:103B0000BDEC068B9FED1B0A10BDBDEC068BB7EE1E
:103B1000000A10BD30EE410AB5EE001A9FED172ADB
:103B200000EE413AB6EE001A60EE001A00EE431ABB
:103B300061EEC11A9FED101A20EE011A20EE020A62
:103B40009FED0F2A01EE820A71EE001A11EE900A23
:103B500000F500606FF30B0009EE100A31EE491A10
:103B600031EE00AA9CE50000FFFF3F00000080FF4F
:103B70000000807F0000008000B0B841D49A38BBBC
:103B80003BAAB841DFED030AB7EE001A81EE200A26
:103B9000704700000000000030EE200A704700006F
:103BA000DFED020A80EEA00A70470000000000006E
:103BB0009FED020A20EE000A70470000000000702E
:103BC0009FED020A20EE000A70470000000000107E
:103BD00010B52DED028B00241D489FED1E8A047048
:103BE000447080ED018A0830FFF75EFC5030FFF72B
:103BF0005BFC9FED190A5C304FF4005180ED000A28
:103C00009FED160A80ED010A018149004181C460DF
:103C100004618482C4820483448384830462446292
:103C200080F8284080ED0B8A80ED0C8A80ED0D8AAB
:103C300080F83840032180F8391080ED0F8A80ED3C
:103C4000108A80ED118A80ED128ABDEC028B10BDC6
:103C5000D8020020000000002CA0994100008046FE
:103C60002DED028B82B0FDF777FBFEF77FFBFEF7B1
:103C700067FAFEF747FAFEF723FAFEF799FA9FED87
:103C8000618A0F20F0EE480AB0EE480AFEF784FC85
:103C90005D495E48FEF7C6FC64225D495D48FEF75B
:103CA00053FD0621AB20CDE900100A465A4B594975
:103CB0005A48FEF795FF0021B0EE485AF0EE484A08
:103CC000B0EE484AF0EE483ADFED558AB0EE683A79
:103CD0009FED542A5148F0EE481AF0EE422AB0EE19
:103CE000481AF7EE040AB3EE020A4830FFF7B4FBB5
:103CF0000021B0EE485AF0EE484AB0EE484AF0EEE5
:103D0000483AB0EE683A9FED482AF0EE481AB0EE15
:103D1000481AF0EE422ADFED450A9FED450A3F487A
:103D200098308146FFF798FBDFED420A9FED420A8B
:103D30003A480323052235494830FEF781FE3748CB
:103D40009FED3E0A4830FEF79FFD0025324C4FF4B0
:103D5000E168143C04F11006371F2168491C2160FA
:103D600041451FD3F5B90125002020602B48B2EE54
:103D7000040A4830FFF791FB28489FED310A48308C
:103D8000FFF788FB9FED2F0A4846FFF786FB9FED64
:103D90002E0A4846FFF77EFB2048B0EE480A48301E
:103DA000FEF772FD1D484830FEF768FD84ED010AFC
:103DB0001A484830FEF75CFD84ED020A1748483087
:103DC000FEF75FFD84ED030A14484830FEF753FD0B
:103DD00084ED040A104BCDE900760C3B1A1F042138
:103DE0000E48FEF7B9FF0D48FEF7F8FE0B484830C5
:103DF000FEF7B0FDFEF7B0FBFEF7C4FB0020FDF7B9
:103E00008DF9AAE7000000000D240008D803002067
:103E100081240008000400201400002098020020E3
:103E20006F12833ADD7E3C4200401C450000824216
:103E300000004843000080462CA09941E4CB16C105
:103E4000CDCC4C3F0000F0420000484290ED001AFB
:103E5000B4EEC01AF1EE10FA02D280ED000A7047FB
:103E6000B4EEE01AF1EE10FAF9DDC0ED000A704789
:103E7000B5EEC00AF1EE10FA01DCB1EE400A70476F
:103E800021F00042A2F16052B2F5801F01F0004320
:103E900028BFD2F17F6C0BD95FEA001C43EAC20253
:103EA00042EB507018BF704728BF20F001007047E8
:103EB000B2F5801FBCBF184670474FEA410C1CF595
:103EC000001F02D2084600F0D7B870B500F009F81C
:103ED00000000089FFF7F6BF4FF00040A0F580001A
:103EE00070470EF1020E2EF0030E5EF8046B3642A0
:103EF00005D4012A43EB030515F5001F12D801284C
:103F000041EB010C1CF5001F0CD80ED14FEAD17CFF
:103F100015F5001F0CEB4C0C0CF1020C08BF4CEB20
:103F2000D37C04E04FF0080C01E04FEAD37C0CEBAB
:103F30004C0526FA05F606F00706B6F1040C06D283
:103F40000EEB860CBDE870404CF0010C6047DFE8DA
:103F50000CF0090B02024FF000414FF00000A1F5F8
:103F6000002170BD19461046012851EB010418BF0D
:103F7000D4F5001484BF002001F0004170BD080892
:103F8000A0F500114FEA31017047000043004FEAED
:103F9000D30C4FEA3C0C43401FBF40070CF160516B
:103FA00013F0FE4F70471CF0006F03D100200CF09F
:103FB000004170470CF0004343EA507010B540EAEE
:103FC000CC0000F00EF800BF000000924FEA0001A4
:103FD000FFF7D5BF4FF000414FF00000A1F50021E1
:103FE00070470EF1020E2EF0030E5EF8044B2442D1
:103FF00004D44FEA4102B2F17F4F11D84FEA400397
:10400000B3F17F4F0CD80ED14FEAD07CB2F17F4F85
:104010000CEB4C0C0CF1020C08BF4CEBD17C04E017
:104020004FF0080C01E04FEAD17C0CEB4C0324FA72
:1040300003F404F00704B4F1040C06D20EEB840C74
:10404000BDE810404CF0010C6047DFE80CF00708B9
:1040500002024FF00040A0F5800010BD084642006B
:1040600018BFD2F1807288BF00F0004010BD4FF041
:104070004070E1EE100A7047FF2141EAD050C005C0
:104080007047000610160006101600000000000021
:1040900000000102030406070809000000000102F5
:1040A0000304000000000000000000000000B33F17
:1040B000B2BE7D3A00002E40DFCF513800007E4076
:1040C000BF51FABA00E0A44019DAC3BA00E0C84010
:1040D000C2ED8AB90040EB40CD1F2CBA001006415A
:1040E0002AFFFABA00C01541DFCFD13700D02441F2
:1040F0009A97703A0050334189478E3600404141CB
:10410000E75B9D3800B04E41C00A98B900A05B4102
:10411000558F943A00306841DA92C0BA0040744139
:1041200062B3C63A0000803F00A0853F00908B3FFD
:1041300000C0913F0030983F00F09E3F00F0A53F47
:104140000050AD3F0000B53F0000BD3F0060C53FDF
:104150000020CE3F0040D73F00C0E03F00C0EA3F14
:104160000020F53F000000007D36AC397D3C383939
:10417000EBDCF438320A7E39124C26399B6AED3971
:10418000A4EE83397F661E39F6398A392B426539A8
:10419000A48211395B991F39C3EECD39DDE7C637EB
:1041A000A5A22F390000803FC3AA853FC2958B3F4F
:1041B000D3C3913FF037983F32F59E3FD7FEA53FDE
:1041C0003F58AD3FF304B53FA408BD3F2A67C53F44
:1041D0008C24CE3FFD44D73FDFCCE03FC7C0EA3F51
:1041E0007D25F53F084200080000002098020000ED
:1041F000E80100082C4200089802002088190000FD
:1042000024020008CDF9FFFF011503637061036309
:104210006961036364610363706F0363696F037FA4
:0C422000646F420192101424F4000000AE
:04000005080001AD41
:00000001FF
