:020000040800F2
:10000000401C00207102000809280008A5260008ED
:10001000052800082B0500080D2900080000000035
:100020000000000000000000000000000F28000891
:1000300071050008000000000D28000811280008C4
:100040008B0200088B0200088B0200088B0200085C
:100050008B0200088B0200088B0200088B0200084C
:100060008B0200088B0200088B0200088B0200083C
:100070008B0200088B0200088B0200088B0200082C
:1000800051050008610500088B0200088B0200087A
:1000900031050008410500088B0200088B020008AA
:1000A0008B0200088B0200088B0200088B020008FC
:1000B0008B0200088B0200088B0200088B020008EC
:1000C0008B0200088B0200088B0200088B020008DC
:1000D0008B0200088B020008FD2800088B02000834
:1000E0008B0200088B0200088B0200088B020008BC
:1000F0008B0200088B0200088B0200088B020008AC
:100100008B0200088B0200088B0200088B0200089B
:100110008B0200088B0200088B0200088B0200088B
:100120008B0200088B0200088B0200088B0200087B
:100130008B0200088B0200088B0200088B0200086B
:100140008B0200088B0200088B0200088B0200085B
:100150008B0200088B0200088B0200088B0200084B
:100160008B0200088B0200088B0200088B0200083B
:100170008B0200088B0200088B02000800000000C0
:100180008B0200088B0200088B0200088B0200081B
:100190008B0200088B0200088B0200088B0200080B
:1001A00000000000000000008B02000800F002F8D0
:1001B00000F04EF80AA090E8000C82448344AAF1B3
:1001C0000107DA4501D100F043F8AFF2090EBAE8B1
:1001D0000F0013F0010F18BFFB1A43F0010318477B
:1001E000C04B0000E04B00000A4410F8014B14F033
:1001F0000F0508BF10F8015B240908BF10F8014B78
:100200006D1E05D010F8013B6D1E01F8013BF9D1C0
:10021000641E03D0641E01F8015BFBD19142E4D35C
:10022000704700000023002400250026103A28BF54
:1002300078C1FBD8520728BF30C148BF0B60704758
:100240001FB504F0F2FC00F015F91FBD10B510BD8C
:1002500000F036F91146FFF7F3FF04F0F3FA00F06F
:1002600054F903B4FFF7F2FF03BC00F057F90000A4
:100270000948804709480047FEE7FEE7FEE7FEE73A
:10028000FEE7FEE7FEE7FEE7FEE7FEE70448054976
:10029000054A064B7047000019280008AD01000808
:1002A00040160020401C002040180020401800206C
:1002B00053EA020C00F069802DE9F04B4FF0000684
:1002C000002B1FBFB3FA83F503FA05F424FA05F6F1
:1002D0005E4012BF1643B2FA82F502FA05F4C5F188
:1002E00020051EBF22FA05FC44EA0C04203556EA1C
:1002F000044C4FEA144418BF641C4FF000084FF040
:100300000009904271EB030C39D3002919BFB1FAEF
:1003100081F701FA07F6B0FA80F700FA07F6C7F19D
:1003200020071EBF20FA07FC46EA0C062037B6FB62
:10033000F4FCA7EB0507103F07F01F0BCBF12006DD
:100340000CFA0BFB2CFA06F644BFB3460026202F0E
:10035000A4BF5E464FF0000B5BEA060C08BF4FF0EF
:10036000010B19EB0B09ABFB027C48EB0608C01B29
:1003700006FB02CC0BFB03CC71EB0C01C1E70B4677
:10038000024641464846BDE8F08B13B54FF00000E9
:100390004FF00001AFF30080BDE81C4070474FF004
:1003A000000200B5134694469646203922BFA0E8C5
:1003B0000C50A0E80C50B1F12001BFF4F7AF0907D1
:1003C00028BFA0E80C5048BF0CC05DF804EB8900C2
:1003D00028BF40F8042B08BF704748BF20F8022B05
:1003E00011F0804F18BF00F8012B70474FF0013C0F
:1003F00050F8042B51F8043B9A4221D1A2EB0C0394
:10040000934313EACC1317D150F8042B51F8043B53
:100410009A4215D1A2EB0C03934313EACC130BD1F0
:1004200050F8042B51F8043B9A4209D1A2EB0C037B
:10043000934313EACC13DBD04FF00000704700BFAA
:10044000D01A01BAB1FA81F101F0180122FA01F0D3
:10045000CB40C1F12001DBB2C0B2C01A2CFA01F3CB
:10046000D11A914311EAC311E6D170477047704722
:100470007047000070B5064C7C44064D7D4403E097
:10048000206820448047241DAC42F9D170BD000093
:10049000444900004449000010B500F009F8006824
:1004A00010BD10B5044600F003F8046010BD000054
:1004B00000487047DC15002000487047DC1500201C
:1004C0007546FFF7F9FFAE4605006946534620F032
:1004D0000700854618B020B5FFF7D8FEBDE82040DC
:1004E0004FF000064FF000074FF000084FF0000BF0
:1004F00021F00701AC46ACE8C009ACE8C009ACE8A3
:10050000C009ACE8C0098D46704710B50446AFF38A
:1005100000802046BDE81040FFF7A3BE0149182027
:10052000ABBEFEE726000200704700BFFEE70000FA
:1005300010B5024800F01CFA10BD0000F8030020BE
:1005400010B5024800F014FA10BD0000F8030020B6
:1005500010B5024800F040FD10BD0000640400200A
:1005600010B5024800F038FD10BD0000C4040020A2
:10057000704772B600BFFEE7F0B504460D461E4652
:1005800094F8207020688368A86800B900E000BF74
:10059000012F01D0022F7CD103F0806030B903F02D
:1005A000006018B903F08050002873D0C3F30161D4
:1005B000022905D9606A40F4000060620120F0BDA4
:1005C000012088403060A86860B9B5F800C0E868CC
:1005D00040EA4C5C206800F5C07000EB0110C0F8E8
:1005E00000C00FE0D5E901C040EACC00D5F80CC04E
:1005F00040EA0C00D4F800C00CF5C07C0CEB011CE8
:10060000CCF80000D5F810C0206800F5C07000EBF1
:100610000110C0F804C0287D01280ED1206800F523
:10062000C07000EB0110406840F4807C206800F549
:10063000C07000EB0110C0F804C0D079000692F839
:1006400006C040EA0C4092F805C040EA0C2C107934
:100650004CEA000C206800F5C07000EB0110C0F8F7
:100660000CC0D078000692F802C040EA0C4092F824
:1006700001C040EA0C2092F800C040EA0C00D4F817
:1006800000C00CF5C07C0CEB011CCCF80800206805
:1006900001E016E00FE000F5C07000EB011000680B
:1006A00040F0010C206800F5C07000EB0110C0F8AC
:1006B00000C0002083E7606A40F4001060620120FF
:1006C0007DE7606A40F480206062012077E70000E7
:1006D000F0B504460A46216894F82050012D01D057
:1006E000022D7ED1424901F50071086840F00100F9
:1006F0000860086820F47C5008600868566A40EA80
:1007000006200860107D00F01F06012000FA06F3A5
:10071000C8699843C861A1F50071D069C8B9D1F81A
:100720000C029843C1F80C02908880B2968940EA86
:10073000064601F51070576940F83760108880B29E
:10074000168940EA064601F51070576900EBC700AC
:100750004660D069012819D1D1F80C021843C1F8BC
:100760000C02908880B2168840EA064601F51070A7
:10077000576940F83760908980B2168940EA06468A
:1007800001F51070576900EBC7004660906928B901
:10079000D1F804029843C1F8040204E0D1F804023D
:1007A0001843C1F80402106928B9D1F8140298431B
:1007B000C1F8140204E0D1F814021843C1F814027D
:1007C000106A012804D1D1F81C021843C1F81C0298
:1007D000D1F8000220F00100C1F800020020F0BDB5
:1007E000FFE7606A40F4802060620120F7E70000C4
:1007F00000640040704770B5044694F82050012D05
:1008000001D0022D7DD151B92068C06800F00300ED
:1008100080B9606A40F400106062012070BD2068F9
:10082000006900F0030028B9606A40F400106062BB
:100830000120F3E7206800F5D87000EB0110006894
:1008400000F004009060906840B9206800F5D8700E
:1008500000EB01100068400D106007E0206800F513
:10086000D87000EB01100068C0085060206800F5E7
:10087000D87000EB0110006800F00200D060206822
:1008800000F5D87000EB0110406800F00F00106117
:10089000206800F5D87000EB0110406800F47F403C
:1008A000000A9061206800F5D87000EB01104068E4
:1008B000000C5061206800F5D87000EB01108068D2
:1008C0001870206800F5D87000EB0110806800F403
:1008D0007F40000A5870206800F5D87000EB0110C6
:1008E000806800F47F00000C9870206800F5D870D4
:1008F00000EB01108068000ED870206800F5D870F9
:1009000000E02FE000EB0110C0681871206800F5CE
:10091000D87000EB0110C06800F47F40000A5871E5
:10092000206800F5D87000EB0110C06800F47F006B
:10093000000C9871206800F5D87000EB0110C068B9
:10094000000ED87131B92068C06840F020002668D8
:10095000F06005E02068006940F020002668306102
:1009600000205BE7606A40F480206062012055E768
:100970002DE9F05F04460025206846692068D0F81C
:100980000490206887682068D0F80CA02068D0F810
:1009900010B02068D0F8188006F00100002855D06B
:1009A00007F00100C0B101202168886007F0020053
:1009B00018B1204600F09FFA0EE007F0040010B1D5
:1009C00045F4006508E007F0080010B145F48055D3
:1009D00002E0204600F08EFA07F48070C8B14FF4B0
:1009E00080702168886007F4007018B1204600F01C
:1009F00084FA0EE007F4806010B145F4005508E079
:100A000007F4006010B145F4804502E0204600F094
:100A100073FA07F48030C8B14FF4803021688860E1
:100A200007F4003018B1204600F069FA0EE007F430
:100A3000802010B145F4004508E007F4002010B113
:100A400045F4803502E0204600F058FA06F0080030
:100A500038B10AF0100020B145F40075102021686B
:100A6000C86006F0040040B10AF0080028B1082070
:100A70002168C860204600F0B1F906F0020038B1E4
:100A80002068C06800F0030010B1204600F0A8F90B
:100A900006F0400038B10BF0100020B145F480653D
:100AA00010202168086106F0200040B10BF008001A
:100AB00028B1082021680861204600F0BDF906F041
:100AC000100038B12068006900F0030010B1204622
:100AD00000F0B4F906F4003040B109F0100028B17C
:100AE000102021684860204600F0D4F906F48030D8
:100AF00040B109F0080028B108202168486020466C
:100B000000F0FEF906F4004088B309F0040078B361
:100B100006F4807020B108F0010008B145F001052D
:100B200006F4007020B108F0020008B145F002059B
:100B300006F4806020B108F0040008B145F0040517
:100B400006F40060A0B108F0700088B108F07000F1
:100B5000402817D006DC10280BD020280CD03028D5
:100B600019D10CE0502810D0602814D110E01DE0FD
:100B700019E045F008050FE045F010050CE045F0E0
:100B8000200509E045F0400506E045F0800503E05A
:100B900045F4807500E000BF00BF2068806920F048
:100BA0007000216888610420216848602DB1606A66
:100BB000284360622046FFF71DFEBDE8F09F70B538
:100BC00004460CB9012070BD94F8200010B92046ED
:100BD00000F0B0F82068006840F00100216808606B
:100BE00000F0FCFC05460DE000F0F8FC401B0A2874
:100BF00008D9606A40F400306062052084F8200063
:100C00000120E0E72068406800F001000028EBD0F8
:100C10002068006820F002002168086000F0DEFC17
:100C200005460DE000F0DAFC401B0A2808D9606A8E
:100C300040F400306062052084F820000120C2E703
:100C40002068406800F002000028EBD1207E0128D7
:100C500006D12068006840F080002168086005E047
:100C60002068006820F0800021680860607E01280C
:100C700006D12068006840F040002168086005E067
:100C80002068006820F0400021680860A07E0128EC
:100C900006D12068006840F020002168086005E067
:100CA0002068006820F0200021680860E07E0128AC
:100CB00006D12068006820F010002168086005E077
:100CC0002068006840F0100021680860207F01283B
:100CD00006D12068006840F008002168086005E03F
:100CE0002068006820F0080021680860607F012803
:100CF00006D12068006840F004002168086005E023
:100D00002068006820F0040021680860D4E902012E
:100D1000084321690843616908436168491E084323
:100D20002168C86100206062012084F82000002052
:100D300049E7000010B586B00446142101A8FFF76A
:100D40002EFB2349206888423FD100BF002000903D
:100D50002048006840F000701E490860084600689E
:100D600000F00070009000BF00BF00BF00200090A6
:100D700018481038006840F008001649103908601B
:100D80000846006800F00800009000BF00BF032084
:100D9000019002200290002003900320049009207B
:100DA000059001A90C4800F00BFB0022114614200D
:100DB00000F09EFC142000F08BFC00221146152050
:100DC00000F096FC152000F083FC06B010BD00007A
:100DD0000064004040380240000C024070470000B0
:100DE00010B504461049206888420CD10F4BA3F17E
:100DF0001C0200212046FFF7FEFC0C482038816AC7
:100E0000001D88470FE00A49206888420BD1094B32
:100E1000A3F11C0200212046FFF7EDFC0548203815
:100E2000816A001D884710BD00640040A4150020A1
:100E300000680040D01500207047000010B504463F
:100E40001049206888420CD10F4BA3F11C020121EC
:100E50002046FFF7D0FC0C482038816A001D8847E7
:100E60000FE00A49206888420BD1094BA3F11C020C
:100E700001212046FFF7BFFC05482038816A001D8C
:100E8000884710BD00640040A415002000680040A1
:100E9000D0150020704770B5044694F82000012852
:100EA00022D1022084F820002068006820F0010090
:100EB0002168086000F092FB05460DE000F08EFB13
:100EC000401B0A2808D9606A40F40030606205209F
:100ED00084F82000012070BD2068406800F0010007
:100EE0000028EBD16062F6E7606A40F4002060629F
:100EF0000120F0E7704770477047704770477047B0
:100F0000704770B50446A56D00F068FB064694F87E
:100F10003500022808D08020606500BF002084F8DA
:100F2000340000BF012070BD2068006820F016006A
:100F3000216808602068406920F0800021684861CD
:100F4000206C08B9A06C28B12068006820F0080067
:100F5000216808602068006820F0010021680860AE
:100F600010E000F03BFB801B05280BD920206065BA
:100F7000032084F8350000BF002084F8340000BF4F
:100F80000320D0E72068006800F001000028E8D1C5
:100F900094F85C103F208840A860012084F8350058
:100FA00000BF002084F8340000BF00BFBBE701464B
:100FB00091F83500022803D0802048650120704751
:100FC000052081F835000868006820F001000A68F3
:100FD00010600020F3E70000F8B504460020009000
:100FE0008C4800684FF41651B0FBF1F7A56D2E68E0
:100FF00094F85C1008208840304098B12068006860
:1010000000F0040070B12068006820F0040021683E
:10101000086094F85C1008208840A860606D40F07B
:101020000100606594F85C1001208840304068B190
:101030002068406900F0800040B194F85C10012005
:101040008840A860606D40F00200606594F85C1014
:1010500004208840304068B12068006800F0020039
:1010600040B194F85C1004208840A860606D40F0A6
:101070000400606594F85C1010208840304078B31C
:101080002068006800F0080050B394F85C1010204D
:101090008840A8602068006800F4802080B1206843
:1010A000006800F4002028B9206CC8B12046216CEB
:1010B000884715E0A06C98B12046A16C88470FE0E6
:1010C0002068006800F4807028B92068006820F06B
:1010D000080021680860206C10B12046216C884708
:1010E00094F85C10202088403040002865D02068AB
:1010F000006800F0100000285FD094F85C102020F9
:101100008840A86094F83500052828D12068006838
:1011100020F01600216808602068406920F08000F7
:1011200021684861206C08B9A06C28B1206800686B
:1011300020F008002168086094F85C103F20884087
:10114000A860012084F8350000BF002084F8340036
:1011500000BF206D10B12046216D8847F8BD206882
:10116000006800F4802080B12068006800F400204E
:1011700028B9606C10B12046616C88471DE0E06BB7
:10118000D8B12046E16B884717E02068006800F47A
:10119000807068B92068006820F01000216808603D
:1011A000012084F8350000BF002084F8340000BF1F
:1011B000E06B10B12046E16B8847606D38B3606D1D
:1011C00000F00100F0B1052084F8350020680068C7
:1011D00020F001002168086000BF0098401C0090CA
:1011E000B84200D905E02068006800F0010000283E
:1011F000F3D100BF012084F8350000BF002084F83F
:10120000340000BFE06C10B12046E16C884700BF9D
:10121000A4E70000B40200202DE9F04104460025B7
:1012200000F0DCF9074614B90120BDE8F081606ADE
:1012300000B100BF022084F8350000BF002084F810
:10124000340000BF2068006820F0010021680860B9
:101250000AE000F0C3F9C01B052805D9202060650D
:10126000032084F83500E0E72068006800F0010002
:101270000028EED12068056821480540D4E9010125
:101280000843E16808432169084361690843A1698B
:101290000843E1690843216A08430543606A04285A
:1012A00003D1D4E90B010843054320680560206899
:1012B000456925F00705606A0543606A04280DD179
:1012C000A06A0543E06A48B1204602F018FA28B146
:1012D00040206065012084F83500A6E7206845615C
:1012E000204602F061FA064694F85C103F208840E0
:1012F000B06000206065012084F83500002094E78C
:101300003F8010F02DE9F04704460D4616461F4673
:101310004FF00008D4F8589000BF94F8340001282A
:1013200002D10220BDE8F087012084F8340000BF1C
:1013300094F83500012825D1022084F835000020DA
:1013400060653B4632462946204602F0C2F994F8D1
:101350005C103F208840C9F808002068006840F011
:10136000160021680860206C28B12068006840F0F1
:101370000800216808602068006840F001002168CA
:10138000086006E000BF002084F8340000BF4FF082
:1013900002084046C6E7000070B5044600F01EF99A
:1013A00006462546681C10B104480078054400BF75
:1013B00000F014F9801BA842FAD370BDB0020020DF
:1013C000F8B502460B460025002400200021E0E08D
:1013D000012606FA01F51E6806EA0504AC4274D13E
:1013E0001E7906F00306012E04D01E7906F00306CE
:1013F000022E13D190684F000326BE40B0434F0029
:10140000DE68BE4030439060506801268E40B04395
:101410001E79C6F300168E40304350601E7906F0E8
:101420000306032E09D0D0684F000326BE40B04308
:101430004F009E68BE403043D0601E7906F0030620
:10144000022E13D1CF0802F1200656F827004E07CE
:10145000F70E0F26BE40B0434F07FF0E1E69BE4079
:101460003043CF0802F1200646F8270010684F00ED
:101470000326BE40B0431E7906F003064F00BE406F
:10148000304310605E6806F44036002E1DD000BF69
:1014900000260096414E366846F480463F4F3E6037
:1014A0003E46366806F48046009600BF00BF3C4EBC
:1014B0008F0856F827008E07370F0F26BE40B0431F
:1014C000384EB24202D100262EE061E0364EB242E2
:1014D00001D1012628E0354EB24201D1022623E097
:1014E000334EB24201D103261EE0324EB24201D148
:1014F000042619E0304EB24201D1052614E02F4EE9
:10150000B24201D106260FE02D4EB24201D107268C
:101510000AE02C4EB24201D1082605E02A4EB24222
:1015200001D1092600E00A268F073F0FBE40304355
:101530001B4E8F0846F82700244E3068A0435E6893
:1015400006F4801606B12043204E3060361D306808
:10155000A0435E6806F4001606B120431B4E361DFC
:1015600030601A4E361F3068A0435E6806F40036BD
:1015700006B12043154E361F3060361F3068A04339
:101580005E6806F4803606B12043104E083E306097
:10159000491C1029FFF41CAFF8BD0000443802407C
:1015A00008380140000002400004024000080240E8
:1015B000000C0240001002400014024000180240DB
:1015C000001C02400020024000240240083C014070
:1015D0000AB1816101E00B04836170470148006832
:1015E00070470000A80200200348006803490978FA
:1015F0000844014908607047A8020020B00200209A
:1016000010B50D48006840F400700B4908600846AA
:10161000006840F4806008600846006840F480700C
:101620000860032000F0A2F80F2000F007F800F097
:101630002BF8002010BD0000003C024070B50446AD
:101640000E4800784FF47A71B1FBF0F00C4909684C
:10165000B1FBF0F5284600F071FC08B1012070BD27
:10166000102C07D200222146501E00F041F80548F8
:10167000046001E00120F2E70020F0E7B002002062
:10168000B4020020AC02002008B500BF002000908A
:101690000E48006840F480400C4908600846006825
:1016A00000F48040009000BF00BF00BF0020009009
:1016B000081F006840F08050091F08600846006855
:1016C00000F08050009000BF00BF08BD44380240C9
:1016D00001460846002809DB00F01F0301229A405A
:1016E00043099B0003F1E023C3F8002100BF7047CA
:1016F0002DE9F05F80460D461646002702F06AFB92
:10170000074639462A46334601F00700C0F1070A6A
:10171000BAF1040F02D94FF0040A01E0C0F1070A40
:10172000D14600F1040ABAF1070F02D24FF0000AC5
:1017300001E0A0F1030AD4464FF0010A0AFA09FABF
:10174000AAF1010A0AEA020A0AFA0CFA4FF0010B9E
:101750000BFA0CFBABF1010B0BEA030B4AEA0B048F
:101760002146404602F022FBBDE8F09F00BF00F09A
:101770000702064B19684FF6FF031940044B0B4351
:1017800043EA0221014B196000BF70470CED00E0F5
:101790000000FA0538B5002400BF002000901D4865
:1017A000006840F080501B4908600846006800F05F
:1017B0008050009000BF00BF012017490864FFF768
:1017C0000DFF044607E0FFF709FF001BB0F57A7F25
:1017D00001D9032038BD1148406800F48030B0F5CD
:1017E000803FF0D101200C494864FFF7F7FE044622
:1017F00007E0FFF7F3FE001BB0F57A7F01D9032065
:10180000E8E70648406800F40030B0F5003FF0D14A
:101810000020DFE74038024000000E420070004028
:1018200070B504460D460CB9012070BD58480068DB
:1018300000F00F00A84209D255490D700846006813
:1018400000F00F00A84201D00120EEE7207800F060
:10185000020002281DD1207800F00400042805D1E0
:101860004C48006840F4E0504A490860207800F095
:101870000800082805D14748006840F46040454901
:1018800008604448006820F0F000A168084341491E
:101890000860207800F00100A8B36068012807D133
:1018A0003C4808380068C0F34040B8B90120BCE7A4
:1018B0006068022802D06068032807D135480838DC
:1018C0000068C0F3406048B90120AEE731480838ED
:1018D0000068C0F3400008B90120A6E72D48006861
:1018E00020F00300616808432A490860FFF776FE8C
:1018F000064609E0FFF772FE801B41F288318842FC
:1019000002D9032091E707E02248006800F00C00AC
:101910006168B0EB810FEDD11D48006800F00F0049
:10192000A84209D91A490D700846006800F00F0056
:10193000A84201D0012078E7207800F004000428B4
:1019400007D11448006820F4E050E16808431149C9
:101950000860207800F00800082808D10D480068C9
:1019600020F46040216940EAC1000A49086000F0A3
:101970003FF808490968C1F30311074A515CC840A0
:101980000649086006480068FFF758FE00204CE74B
:10199000003C024008380240464C0008B4020020D7
:1019A000AC0200200148006870470000B40200202B
:1019B00000B5FFF7F7FF04490968C1F38221034A24
:1019C000515CC84000BD000008380240564C000879
:1019D00000B5FFF7E7FF04490968C1F34231034A44
:1019E000515CC84000BD000008380240564C000859
:1019F0002DE9F047002400250026A146254800686F
:101A000000F00C0020B1042805D008283AD105E0E8
:101A1000DFF8849039E0DFF8849036E01D48001F3D
:101A2000006800F03F041B48001F006800F48000BD
:101A300078B11A481749091F0968C1F38811A0FB3A
:101A400001700146224600233846FEF731FC054668
:101A50000EE011480F49091F0968C1F38811A0FB66
:101A600001700146224600233846FEF721FC054658
:101A70000848001F0068C0F30140401C4600B5FB49
:101A8000F6F902E0DFF8109000BF00BF4846BDE85D
:101A9000F0870000083802400024F400001BB70063
:101AA000F8B504460CB90120F8BD207800F001001B
:101AB000002874D0F948006800F00C0004280DD00C
:101AC000F648006800F00C00082813D1F348001F06
:101AD000006800F48000B0F5800F0BD1EF480838A3
:101AE0000068C0F34040002859D06068002856D1F3
:101AF0000120D9E700BF6068B0F5803F08D1E74812
:101B00000838006840F48030E449083908601EE075
:101B10006068B0F5A02F0DD1E0480838006840F4A7
:101B20008020DE49083908600846006840F48030AB
:101B300008600CE0D9480838006820F48030D749A4
:101B4000083908600846006820F48020086000BF5B
:101B5000606890B1FFF742FD054606E0FFF73EFDE5
:101B6000401B642801D903209EE7CC480838006850
:101B7000C0F340400028F1D011E0FFF72FFD0546EB
:101B800006E0FFF72BFD401B642801D903208BE7FB
:101B9000C24808380068C0F340400028F1D12078DE
:101BA00000F0020002285FD1BC48006800F00C0081
:101BB00058B1BA48006800F00C0008281CD1B7489A
:101BC000001F006800F48000B0B9B448083800680D
:101BD000C0F3400020B1E068012801D0012063E794
:101BE000AE480838006820F0F800216940EAC100DA
:101BF000AA490839086037E0E06800B30120A84925
:101C00000860FFF7EBFC054606E0FFF7E7FC401B2A
:101C1000022801D9032047E7A04808380068C0F32C
:101C200040000028F1D09D480838006820F0F800F6
:101C3000216940EAC10099490839086014E0002090
:101C400097490860FFF7CAFC054606E0FFF7C6FCA7
:101C5000401B022801D9032026E790480838006875
:101C6000C0F340000028F1D1207800F008000828D7
:101C70002CD16069A8B101208A490860FFF7AEFC49
:101C8000054606E0FFF7AAFC401B022801D9032005
:101C90000AE782486C300068C0F340000028F1D0A9
:101CA00014E000207F490860FFF798FC054606E035
:101CB000FFF794FC401B022801D90320F4E6774883
:101CC0006C300068C0F340000028F1D1207800F0AB
:101CD0000400042870D1002770483830006800F0F4
:101CE000805090B900BF002000906C4838300068E8
:101CF00040F080506949383108600846006800F0BB
:101D00008050009000BF00BF01276748006800F4C2
:101D10008070B0B96448006840F48070624908601F
:101D2000FFF75CFC054606E0FFF758FC401B022865
:101D300001D90320B8E65C48006800F480700028F0
:101D4000F2D000BFA068012808D15448683000686C
:101D500040F001005149683108601DE0A068052885
:101D60000DD14E486830006840F004004B4968319E
:101D700008600846006840F0010008600CE0474831
:101D80006830006820F00100444968310860084666
:101D9000006820F00400086000BFA068A8B1FFF749
:101DA0001DFC054609E0FFF719FC401B41F2883194
:101DB000884202D9032077E626E038486830006878
:101DC000C0F340000028EED013E0FFF707FC054603
:101DD00008E0FFF703FC401B41F28831884201D93B
:101DE000032061E62D4868300068C0F340000028F9
:101DF000EFD1012F07D129483830006820F08050FA
:101E000026493831086000BFA069002845D0234822
:101E1000006800F00C0008285DD0A069022845D1B8
:101E200000201F490866FFF7D9FB054606E0FFF7CB
:101E3000D5FB401B022801D9032035E61748083896
:101E40000068C0F340600028F1D1D4E907010843DD
:101E5000616A40EA81110122A06AC2EB500041EAA6
:101E600000412C20005D41EA00600C49091F086018
:101E700001200B490866FFF7B1FB054606E0FFF7B6
:101E8000ADFB401B022801D903200DE603480838AA
:101E90000068C0F340600028F1D049E008380240F3
:101EA00000004742800E4742007000400020214958
:101EB0000866FFF793FB054606E0FFF78FFB401B24
:101EC000022801D90320EFE51B480068C0F34060F9
:101ED0000028F2D12CE0A069012800D1E4E51648E1
:101EE000001D0668A069012820D006F48001E06981
:101EF00081421BD106F03F01206A814216D147F68C
:101F0000C0703040616AB0EB811F0FD106F44031E0
:101F10000122A06AC2EB5000B1EB004F06D106F0DF
:101F200070612C20005DB1EB006F01D00120BBE59A
:101F30000020B9E5000047420038024070B5044671
:101F40002546681EB0F1807F01D301200FE0681E96
:101F50004FF0E02148610F214FF0FF3001F026FFE4
:101F600000204FF0E021886107200861002070BD4B
:101F7000F8B504460E46174694F83E00202836D1A0
:101F800006B10FB90120F8BD00BF94F83C0001284C
:101F900001D10220F7E7012084F83C0000BF206354
:101FA0003A463146204600F041FC0546EDB9206B2B
:101FB000012819D100BF002000902068006800901F
:101FC00020684068009000BF00BF00BF00BF2168CC
:101FD0000C3151E8001F41F0100021680C3141E83C
:101FE0000002002AF3D100E001252846CBE70220B9
:101FF000C9E7000070B504460D4650492068884284
:102000000FD14F482946D0F8082200F5827090473A
:102010004B48B0F8042200F582712046FFF7A8FF74
:102020008AE04849206888420FD147482946D0F8BD
:10203000082200F5827090474348B0F8042200F56A
:1020400082712046FFF794FF76E04049206888427D
:102050000FD13F482946D0F8082200F582709047FA
:102060003B48B0F8042200F582712046FFF780FF5C
:1020700062E03849206888420FD137482946D0F8B5
:10208000082200F5827090473348B0F8042200F52A
:1020900082712046FFF76CFF4EE03049206888428D
:1020A0000FD12F482946D0F8082200F582709047BA
:1020B0002B48B0F8042200F582712046FFF758FF44
:1020C0003AE02849206888420FD127482946D0F8AD
:1020D000082200F5827090472348B0F8042200F5EA
:1020E00082712046FFF744FF26E02049206888429D
:1020F0000FD11F482946D0F8082200F5827090477A
:102100001B48B0F8042200F582712046FFF730FF2B
:1021100012E01849206888420ED117482946D0F8A5
:10212000082200F5827090471348B0F8042200F5A9
:1021300082712046FFF71CFF70BD000000100140B7
:1021400024050020004400403007002000480040E3
:102150003C090020004C0040480B0020005000408B
:10216000540D002000140140600F00200078004052
:102170006C110020007C00407813002070470000A4
:102180002DE9F84F0446206805682068C668206875
:1021900047694FF00009CA4605F00F09B9F1000F71
:1021A0000AD105F0200038B106F0200020B1204609
:1021B00001F052FCBDE8F88FB9F1000F7CD007F0B8
:1021C000010018B906F49070002875D005F00100E0
:1021D00030B106F4807018B1206C40F0010020642A
:1021E00005F0040030B107F0010018B1206C40F098
:1021F0000200206405F0020030B107F0010018B1C0
:10220000206C40F00400206405F0080048B106F09E
:10221000200010B907F0010018B1206C40F0080050
:102220002064206C002846D005F0200028B106F07C
:10223000200010B1204601F00FFC20684069C0F377
:10224000801A206C00F0080010B9BAF1000F2DD0F0
:10225000204601F0C4FC2068406900F0400040289E
:1022600020D100BF00BF2168143151E8001F21F0C8
:1022700040002168143141E80002002AF3D100BF78
:10228000A06B50B17548A16B0865A06BFEF78FFE7F
:1022900088B1A06B016D88470DE02046FFF76EFF07
:1022A00009E009E02046FFF769FF04E02046FFF758
:1022B00065FF002020647DE7206B012876D105F0C2
:1022C0001000002872D006F010000028FAD000BFDD
:1022D000002000902068006800902068406800900E
:1022E00000BF00BF2068406900F0400040285ED178
:1022F000A06B006840681FFA80F8B8F1000F54D056
:10230000A08D404551DDA4F82E80A06BC069B0F5CA
:10231000807F43D000BF00BF21680C3151E8001F0F
:1023200021F4807021680C3141E80002002AF3D1C9
:1023300000BF00BF00BF2168143151E8001F21F029
:1023400001002168143141E80002002AF3D100BFE6
:1023500000BF00BF2168143151E8001F21F0400088
:102360002168143141E80002002AF3D100BF202087
:1023700084F83E000020206300BF00BF21680C31BC
:1023800051E8001F21F0100021680C3141E80002E3
:10239000002AF3D100BFA06BFEF7B3FDA08DE28D44
:1023A000801A81B22046FFF725FE03E740E0A08DAA
:1023B000E18D401A1FFA80F8E08DC0B3B8F1000F2C
:1023C00035D000BF00BF21680C3151E8001F21F457
:1023D000907021680C3141E80002002AF3D100BF5F
:1023E00000BF00BF2168143151E8001F21F0010037
:1023F0002168143141E80002002AF3D100BF2020F7
:1024000084F83E000020206300BF00BF21680C312B
:1024100051E8001F21F0100021680C3141E8000252
:10242000002AF3D100BF41462046FFF7E3FDC1E695
:1024300005F0800030B106F0800018B1204601F0B0
:1024400087FBB7E605F0400030B106F0400018B158
:10245000204601F065FCADE600BFABE6413D00085B
:1024600010B504460CB9012010BDA06900B100E010
:1024700000BF94F83D0028B9002084F83C002046B5
:1024800000F028F8242084F83D002068C06820F47B
:1024900000502168C860204601F0C8F92068006932
:1024A00020F49040216808612068406920F02A00EB
:1024B000216848612068C06840F400502168C86005
:1024C00000202064202084F83D0084F83E00002095
:1024D000CAE7000010B586B00446142101A8FDF734
:1024E0005EFF3D492068884273D100BF0020009004
:1024F0003A48006840F400303849086008460068EF
:1025000000F40030009000BF00BF00BF002000902A
:1025100032481038006840F008003049103908602F
:102520000846006800F00800009000BF00BF60206F
:1025300001900220029000200390032004900720C5
:10254000059001A92648FEF73BFF2648264908606A
:102550004FF000604860002123488160C1604FF463
:1025600080610161002141618161C161016241625B
:10257000FEF752FE08B1FDF7FCFF00BF1A48A0634A
:10258000846300BF17481830184908604FF0006096
:1025900048604021154881600021C1604FF480618E
:1025A0000161002141618161C16101624162FEF707
:1025B00033FE08B1FDF7DDFF00BF0C4860638463A4
:1025C00000BF002211462620FFF792F82620FFF7D1
:1025D0007FF806B010BD00000044004040380240C3
:1025E000000C02408860024064040020C404002003
:1025F00070477047F7B50446154694F83D0020280B
:1026000046D1019800B10DB90120FEBD00BF94F87C
:102610003C00012801D10220F7E7012084F83C00AA
:1026200000BF01982062A584E58400202064212059
:1026300084F83D001748616BC8631748616B0864F4
:102640001648616BC8640020616B086501AE2368A1
:102650001A1D31682B46606BFEF754FE6FF0400088
:102660002168086000BF002084F83C0000BF00BF64
:1026700000BF2168143151E8001F41F0800021683B
:10268000143141E80002002AF3D100BF0020BCE76A
:102690000220BAE7553D0008D13B0008DD370008AD
:1026A0007047704700BFFEE710B50E480E4908603E
:1026B0000920486000210C488160C1604FF48031DE
:1026C000016109014161002101760121417600216A
:1026D0008176C17601774177FEF771FA08B1FDF78F
:1026E00048FF10BD00640040F803002008B500BF9B
:1026F000002000900E48006840F400100C4908606B
:102700000846006800F40010009000BF00BF0022DF
:1027100011461020FEF7ECFF1020FEF7D9FF002233
:1027200011461120FEF7E4FF1120FEF7D1FF08BD8E
:102730003038024000B587B0142102A8FDF72FFE03
:1027400000BF002001901F48006840F001001D49B3
:1027500008600846006800F00100019000BF00BF5B
:1027600000BF002001900846006840F008000860A3
:102770000846006800F00800019000BF00BF00BFDD
:10278000002001900846006840F08000086008467C
:10279000006800F08000019000BF00BF00223C21D3
:1027A0000948FEF715FF3C2002900120039002200B
:1027B00004900020059002A90348FEF701FE07B02F
:1027C00000BD000030380240001C024010B50B482C
:1027D0000B4908604FF4E1304860002108488160EF
:1027E000C16001610C21416100218161C161FFF77C
:1027F00037FE08B1FDF7BDFE10BD000000440040EB
:102800002004002000BFFEE700BFFEE770477047CE
:1028100010B5FEF7E9FE10BD0348006840F47000F3
:10282000014908607047000088ED00E077B581B08D
:10283000044615460298A062A58500202064222047
:1028400084F83E002A48A16BC8632A48A16B08643B
:102850002948A16BC8640020A16B086502AE3268EC
:102860002368191D2B46A06BFEF74CFD00BF00200E
:10287000009020680068009020684068009000BFC9
:1028800000BF00BF002084F83C0000BF206970B189
:1028900000BF00BF21680C3151E8001F41F4807077
:1028A00021680C3141E80002002AF3D100BF00BFCB
:1028B00000BF2168143151E8001F41F00100216878
:1028C000143141E80002002AF3D100BF00BF00BF6D
:1028D0002168143151E8001F41F040002168143193
:1028E00041E80002002AF3D100BF002004B070BD0F
:1028F000713C0008B13B0008DD37000810B5024804
:10290000FFF73EFC10BD00002004002000BFFEE7E2
:1029100010B50446224610210148FEF759FE10BDAD
:10292000001C024010B50446224620210148FEF753
:102930004FFE10BD001C024010B504462246042183
:102940000148FEF745FE10BD001C024010B50446CC
:10295000224608210148FEF73BFE10BD001C024044
:10296000F0B587B006460C4617461D460194002078
:1029700002900390049005956B463A4601A93046B3
:10298000FDF7FAFD07B0F0BD70B504460D461646DA
:10299000324629462046FFF72DFE70BD0246164BF3
:1029A0009A4228D10C2925D2DFE801F02406080B31
:1029B0000E111316191C1E2110481BE00F48801C15
:1029C00018E00E48001D15E00C48801D12E00C4870
:1029D00010E00B48801C0DE00948001D0AE0084883
:1029E000801D07E0074805E00648801C02E0054816
:1029F000001D00BF00BF7047F803002074020020D4
:102A00006C0200207C02002000B593B0302107A8A2
:102A1000FDF7C5FC142102A8FDF7C1FC00BF002092
:102A200001902648006840F080502449086008461C
:102A3000006800F08050019000BF00BF00BF002080
:102A400001901F48006840F440401D490860084656
:102A5000006800F44040019000BF00BF01200790D3
:102A60000004089002200D9041050E9106210F915F
:102A7000B4211091022111910421129107A8FFF7AE
:102A80000FF808B1FDF775FDFEF784FE08B1FDF7FC
:102A900070FD0F20029002200390002004904FF45C
:102AA000A05005904FF480500690052102A8FEF733
:102AB000B7FE08B1FDF75DFD13B000BD4038024020
:102AC0000070004010B504462068A0F2012028B92B
:102AD00004F11C01024800F0B1FA00BF00BF10BDB4
:102AE00000030020F0B58BB007460C4615461E4685
:102AF00004F0020080B1E8040190E80004F0030152
:102B000040EA41000290F0040390F00004F0030159
:102B100040EA4100049009E068010190A007400FDD
:102B2000029070010390A007400F0490E0100690FF
:102B3000C4F3800005900120099000200790012037
:102B400008900E200A9001A93846FDF7C1FD0BB090
:102B5000F0BD000070B52DED048B04460D462146F6
:102B6000424800F047FC414800F004FC062879D2B6
:102B7000DFE800F00316293C50643C4800F0FEFBFF
:102B8000B0EE409AF0EE609A51EC190B01F056FF4E
:102B900008EE100AB0EE480A354801F082FA61E00A
:102BA000324800F0EBFBB0EE409AF0EE609A51EC48
:102BB000190B01F043FF08EE100AB0EE480A2C484A
:102BC00001F06CFA4EE0294800F0D8FBB0EE409AD4
:102BD000F0EE609A51EC190B01F030FF08EE100A8C
:102BE000B0EE480A224801F056FA3BE01F4800F0D8
:102BF000C5FBB0EE409AF0EE609A51EC190B01F073
:102C00001DFF08EE100AB0EE480A1948503001F0D6
:102C100048FA27E0154800F0B1FBB0EE409AF0EE1C
:102C2000609A51EC190B01F009FF08EE100AB0EEA2
:102C3000480A0F48503001F031FA13E00B4800F019
:102C40009DFBB0EE409AF0EE609A51EC190B01F04A
:102C5000F5FE08EE100AB0EE480A0548503001F0C3
:102C60001AFA00BF00BFBDEC048B70BDB802002093
:102C70000003002010B509480068401C074908609F
:102C80000823074A99010748FFF76AFE03480068CE
:102C9000092802D100200149086010BDA4020020CB
:102CA00074020020F803002010B5312202490348C5
:102CB000FFF76AFE10BD000034070020200400204A
:102CC00010B52DED028B0446B0EE408AF0EE608A1E
:102CD00004F00100FFF726FEC4F34000FFF718FEE2
:102CE000C4F38000FFF732FEC4F3C000FFF724FEF8
:102CF000012121EA141000F0D1F8012121EA541039
:102D000000F0C0F8012121EA941000F069F80121D7
:102D100021EAD41000F06EF8012121EA142000F01D
:102D200073F8012121EA542000F078F8012121EA0A
:102D3000942000F07DF8012121EAD42000F082F8EF
:102D4000012121EA143000F087F8012121EA5430F2
:102D500000F08CF8BDEC028B10BD000070B504468D
:102D60000D462046FEF797F82068406940F00200C3
:102D7000216848612068406940F01000216848617E
:102D80001349206888420FD11248046085620023ED
:102D90001A4619462046FFF7A5FE00231A460C21C5
:102DA0002046FFF79FFE12E00B49206888420ED1B3
:102DB0000A480460856200231A4670212046FFF706
:102DC00091FE00231A467C212046FFF78BFE70BD42
:102DD000006400408415002000680040B015002009
:102DE00010B50446224602210148FEF7F1FB10BD52
:102DF0000018024010B50446224604210148FEF79F
:102E0000E7FB10BD0018024010B504462246082119
:102E10000148FEF7DDFB10BD0018024010B5044666
:102E2000224610210148FEF7D3FB10BD00180240D6
:102E300010B50446224620210148FEF7C9FB10BD0B
:102E40000018024010B50446224640210148FEF712
:102E5000BFFB10BD0018024010B504462246802179
:102E60000148FEF7B5FB10BD0018024010B504463E
:102E700022464FF480710248FEF7AAFB10BD000005
:102E80000018024010B5044622464FF48041024823
:102E9000FEF79EFB10BD00000014024010B5044672
:102EA00022464FF400610248FEF792FB10BD00007D
:102EB0000010024070B504460D461646474920688A
:102EC00088420DD146480460C0F80852A0F8046258
:102ED000B0F8042200F582712046FFF749F87CE043
:102EE0004049206888420DD13F480460C0F808522C
:102EF000A0F80462B0F8042200F582712046FFF7C2
:102F000037F86AE03949206888420DD138480460B2
:102F1000C0F80852A0F80462B0F8042200F58271EB
:102F20002046FFF725F858E03249206888420DD145
:102F300031480460C0F80852A0F80462B0F80422D6
:102F400000F582712046FFF713F846E02B49206810
:102F500088420DD12A480460C0F80852A0F80462E3
:102F6000B0F8042200F582712046FFF701F834E042
:102F70002449206888420DD123480460C0F80852D3
:102F8000A0F80462B0F8042200F582712046FEF732
:102F9000EFFF22E01D49206888420DD11C480460E3
:102FA000C0F80852A0F80462B0F8042200F582715B
:102FB0002046FEF7DDFF10E01649206888420CD15C
:102FC00015480460C0F80852A0F80462B0F8042262
:102FD00000F582712046FEF7CBFF70BD0010014066
:102FE0002405002000440040300700200048004035
:102FF0003C090020004C0040480B002000500040DD
:10300000540D002000140140600F002000780040A3
:103010006C110020007C00407813002090ED360AEF
:10302000704790ED370A704790ED3A0A704790ED7F
:103030003B0A704780ED3A0A7047000030B550F8FF
:10304000B83F5B1C0360038903824B780C7843EA2A
:1030500004230381CB788C7843EA04231BB2438199
:103060004B790C7943EA04231BB283818B79C381AA
:103070000389048AB8381B1B1AB212F5805F05DA7F
:10308000D0F8D0305B1CC0F8D03007E0B2F5805FDC
:1030900004DDD0F8D0305B1EC0F8D030AC30838A6D
:1030A0000589446A04FB0533036290ED080AF8EED3
:1030B000C00A038900EE103AB8EE400A80EE801A8A
:1030C000B0EE000A21EE000ADFED130A20EE200A1E
:1030D000D0ED000A80EE201A80ED0B1AB0F9163000
:1030E00000EE103AB8EEC00ADFED0C0A20EE200A1E
:1030F000D0ED000A80EE201A80ED0C1AB0F91830DD
:1031000000EE103AB8EEC00A80ED0D0A837E80F81A
:103110003830AC3830BD0000DB0F49405077D63D29
:1031200010B52DED028B044694F8E50030B101286E
:1031300018D002282AD003287BD145E094ED3C0A20
:10314000D4ED2C1A80EE211AB4F8B60000EE100A65
:10315000B8EE400A21EE000AF0EE400A204600F0E8
:10316000B7F86CE094ED3C0AD4ED2C1A80EE211AED
:10317000B4F8B60000EE100AB8EE400A21EE000ADC
:10318000F0EE400A204600F0A3F858E0D4ED3B0AE8
:10319000B0EE600A04F1500000F024FED4ED370ACE
:1031A000B0EE600A04F1500000F07EFF04F1500020
:1031B00000F01CFE04F1500000F06AFFB0EE408AFF
:1031C000204600F085F83AE0D4ED3A0AB0EE600A05
:1031D000204600F007FED4ED360AB0EE600A204625
:1031E00000F062FF204600F001FE204600F050FF94
:1031F00084ED3B0AD4ED3B0AB0EE600A04F15000C6
:1032000000F0F0FDD4ED370AB0EE600A04F1500092
:1032100000F04AFF04F1500000F0E8FD04F1500016
:1032200000F036FFB0EE408A204600F051F806E08C
:10323000FFE79FED060A204600F04AF800BF00BFF6
:10324000204600F031F8BDEC028B10BD00000000FC
:10325000F0B504460D4616461F460F4928688842B9
:1032600003D10E48C4F8A00006E00D492868884242
:1032700002D10C48C4F8A00084F8A46084F8E5707A
:1032800084ED2B0AC4ED2C0A31462846FFF786FB55
:10329000C4F8A800F0BD00000064004084150020C0
:1032A00000680040B015002090ED3D0ABDEEC00A58
:1032B00010EE101A090AD0F8A820117090ED3D0AFE
:1032C000BDEEC00A10EE101AD0F8A8205170704759
:1032D00080ED3D0A7047000010B50446204600F01E
:1032E000E7FE0446503000F0E3FE9FED1F0A00F1B8
:1032F0005C0480ED170A9FED1D0A80ED180A4FF45B
:1033000000502081400060810020E0602061A082A8
:10331000E08220836083A0832062606284F82800BA
:103320009FED130A84ED0B0A9FED110A84ED0C0A40
:103330009FED0F0A84ED0D0A84F83800032084F80D
:1033400039009FED0B0A84ED0F0A9FED090A84ED09
:10335000100A9FED070A84ED110A9FED050A84ED1E
:10336000120AAC3C204610BD2CA0994100008046BA
:1033700000000000014691F94100704710B5044675
:1033800094ED110A10EE101A084601F0DDFB41EC35
:10339000100B10BD70B59AB00446002506E02068F9
:1033A00000F58270405D01A948556D1C206800F54C
:1033B0008270405D3D28F2D1002001A948550026C9
:1033C0000FE06422A06802FB060101A8FDF70EF8D9
:1033D00030B970B284F84100681CC0B21AB070BD38
:1033E000761C2079B042ECDCFF2084F84100681C98
:1033F000C0B2F3E770B504460E462046FFF7CAFF99
:1034000005462946204600F001F870BD2DE9F0413F
:103410002DED048B04460E460027012008EE100A0D
:103420009FED300A84ED110A94F94100401C18B94F
:10343000BDEC048BBDE8F081206800F58270805DF2
:103440002D2804D14FF0FF3008EE100A761C3546C7
:1034500019E0206800F58270405D2E2801D12F46CA
:1034600010E0206800F58270405D303800EE100AF0
:10347000B8EEC00AD4ED110AB2EE041A00EE810AC9
:1034800084ED110A6D1C206800F58270405D2328D0
:1034900005D0206800F58270405D0028D9D1B7B111
:1034A000F2EE048AE81B00EE100AB8EEC00AF7EE4E
:1034B000000A30EE609AF0EE490AB0EE680A00F0B9
:1034C00053FED4ED110A80EE801A84ED111A94EDAA
:1034D000110AF8EEC80A20EE200A84ED110A00BF96
:1034E000A6E700000000000010B50446204600F0EA
:1034F00063F810BDF0B5DDE905541F4F0E68BE42FC
:1035000002D11E4E06602FE01D4F0E68BE4202D152
:103510001C4E066028E01C4F0E68BE4202D11B4EB6
:10352000066021E01A4F0E68BE4202D1194E0660B5
:103530001AE0194F0E68BE4202D1184E066013E021
:10354000174F0E68BE4202D1164E06600CE0164FB1
:103550000E68BE4202D1154E066005E0144F0E689B
:10356000BE4201D1134E066002718360057344733D
:1035700006683471F0BD00000010014024050020F1
:103580000044004030070020004800403C09002073
:10359000004C0040480B002000500040540D00201B
:1035A00000140140600F0020007800406C110020E2
:1035B000007C00407813002010B5002104E00023B7
:1035C0000268121D5354491CFF29F8DD417B026833
:1035D0001171017B11B1017B032910D1002109E098
:1035E0000268121D531800F1100252F821201278BF
:1035F0005A70491C90F840208A42F1DC4BE0017B74
:10360000012902D0017B042912D100210BE00268BC
:10361000121D02EB410300F1100252F82120128822
:10362000A3F80120491C90F840208A42EFDC32E0E8
:10363000017B022905D0017B052902D0017B0629E7
:1036400012D100210BE00268121D02EB810300F190
:10365000100252F821201268C3F80120491C90F88A
:1036600040208A42EFDC16E0017B072913D10021BC
:103670000DE00268121D02EBC10300F1100252F8C6
:103680002120146843F8014F52685A60491C90F891
:1036900040208A42EDDC10BD0FB408B504A90091AA
:1036A000002109E0009A136800F1100242F821306D
:1036B000009A121D0092491C9DF80C209142F1DBEA
:1036C000002100919DF80C1080F8401001B05DF8C9
:1036D00014FB30B50468246824F4802405682C6049
:1036E000046863608468402C04D10468A2600468A4
:1036F000E16003E00468A1600468E26030BD014657
:1037000000208A6A8B69CBB932B1012A0DD0022A16
:1037100003D0032A10D10EE000BFCB6A03F0807300
:10372000B3F1807F00D1012007E0CB6AB3F1C07F05
:1037300000D1012001E000E000BF34E08B69B3F567
:10374000005F1AD132B1012A07D0022A03D0032A1E
:1037500011D10AE000BF01200EE0CB6A03F08073B4
:10376000B3F1807F00D1012006E0CB6AB3F1C07FC6
:1037700000D1012000E000BF15E032B1012A05D0E0
:10378000022A04D0032A0CD103E000BF00BF0120AD
:1037900008E0CB6A03F08073B3F1807F00D1012091
:1037A00000E000BF00BF70470146087810381823BA
:1037B000B0FBF3F20848805CC865032A05D90868A5
:1037C0006FF30900001D886503E008686FF30900C6
:1037D0008865886D704700003E4C000870B506464D
:1037E0000025B46B20684069C0F3C01594F83D0013
:1037F000212805D125B10020E084204600F025FADB
:1038000020684069C0F3801594F83E00222805D155
:1038100025B10020E085204600F0E1F9206C40F061
:10382000100020642046FEF7A9FC70BD2DE9F84F7A
:1038300004462068006920F44050E168084321688C
:1038400008612169A068084361690843E169084388
:1038500000902068C06849F20C61884300990843D1
:103860002168C8602068406920F44070A16908435D
:103870002168486176492068884203D075492068EC
:10388000884203D1FEF7A4F8814602E0FEF790F8E3
:103890008146E069B0F5004F6CD102206168A0FB61
:1038A000015003461920A9FB007001462A463846FC
:1038B000FCF7FEFC6421B0FBF1F04FEA001A022095
:1038C0006168A0FB01510B461920A9FB00712A4633
:1038D0003846FCF7EDFC834602206168A0FB0150EE
:1038E00003461920A9FB00712A463846FCF7E0FC84
:1038F0006421B0FBF1F000EBC00101EB0010ABEB79
:103900008000322101EBC0006421B0FBF1F000F037
:10391000F8000AEB400A02206168A0FB0150034650
:103920001920A9FB007001462A463846FCF7C0FC66
:10393000834602206168A0FB015003461920A9FBC1
:1039400000712A463846FCF7B3FC6421B0FBF1F065
:1039500000EBC00101EB0010ABEB8000322101EB6A
:10396000C0006421B0FBF1F000F007005044216872
:1039700088606AE004206168A0FB015003461920BA
:10398000A9FB007001462A463846FCF791FC8246A6
:1039900004206168A0FB015003461920A9FB0070B8
:1039A00001462A463846FCF783FC6421B0FBF1F05F
:1039B00000EBC00101EB0010AAEB8000322101EB0B
:1039C00000106421B0FBF1F000F0F00A04206168FF
:1039D000A0FB017003461920A9FB00513A46284676
:1039E000FCF766FC6421B0FBF1F00AEB001A04203E
:1039F0006168A0FB01510B461920A9FB00712A4602
:103A00003846FCF755FC834604206168A0FB015052
:103A100003461920A9FB007001462A463846FCF7E8
:103A200047FC6421B0FBF1F000EBC00101EB00109A
:103A3000ABEB8000322101EB00106421B0FBF1F010
:103A400000F00F00504421688860BDE8F88F000046
:103A50000010014000140140F8B5044694F83E00FF
:103A6000222873D1A068B0F5805F0CD1206950B9CD
:103A70000025A66A20684068C0F308003080A06A6C
:103A8000801CA06215E0A56A0026A068B0F5805FE2
:103A900003D0A06828B9206918B920684068287048
:103AA00004E02068406800F07F002870A06A401C95
:103AB000A062E08D401E80B2E085002844D12068DD
:103AC000C06820F020002168C8602068C06820F429
:103AD00080702168C8602068406920F0010021687A
:103AE0004861202084F83E00206B012826D1002068
:103AF000206300BF00BF21680C3151E8001F21F096
:103B0000100021680C3141E80002002AF3D100BF07
:103B10002068006800F0100010280AD100BF0020C3
:103B2000009020680068009020684068009000BF06
:103B300000BFA18D2046FEF75DFA02E02046FEF7A9
:103B400057FD0020F8BD01E00020FBE70220F9E767
:103B5000014691F83D00212828D18868B0F5805FA2
:103B60000BD1086948B90A6A1088C0F308000B68CD
:103B70005860086A801C086205E00B6A581C0862DD
:103B800018780B685860C88C401E80B2C88458B939
:103B90000868C06820F080000B68D8600868C068BA
:103BA00040F040000B68D860002070470220FCE71E
:103BB00070B50546AC6B206B012805D1A08D41087E
:103BC0002046FEF717FA02E02046FEF712FD70BD10
:103BD00070B50446A56B2846FEF763FD70BD00BFB7
:103BE00000BF02680C3252E8002F22F49071026884
:103BF0000C3242E80013002BF3D100BF00BF00BF1E
:103C00000268143252E8002F22F0010102681432D7
:103C100042E80013002BF3D100BF016B01290ED144
:103C200000BF00BF02680C3252E8002F22F01001E2
:103C300002680C3242E80013002BF3D100BF2021B0
:103C400080F83E1000210163704700BF00BF02688A
:103C50000C3252E8002F22F0C00102680C3242E818
:103C60000013002BF3D100BF202180F83D107047D6
:103C700070B50546AC6B2868006800F480700028B9
:103C800042D1E08500BF00BF21680C3151E8001F20
:103C900021F4807021680C3141E80002002AF3D140
:103CA00000BF00BF00BF2168143151E8001F21F0A0
:103CB00001002168143141E80002002AF3D100BF5D
:103CC00000BF00BF2168143151E8001F21F04000FF
:103CD0002168143141E80002002AF3D100BF2020FE
:103CE00084F83E00206B01280ED100BF00BF216880
:103CF0000C3151E8001F21F0100021680C3141E81F
:103D00000002002AF3D100BF206B012804D1A18D4D
:103D10002046FEF76FF902E02046FEF769FC70BD11
:103D200010B504462068C06820F040002168C860D3
:103D3000202084F83D002046FEF7B2FC002010BD94
:103D400070B50546AC6B0020E085E0842046FEF7A8
:103D500015FA70BD70B50546AC6B2868006800F4B4
:103D60008070F8B90020E08400BF00BF21681431E2
:103D700051E8001F21F080002168143141E8000261
:103D8000002AF3D100BF00BF00BF21680C3151E809
:103D9000001F41F0400021680C3141E80002002A78
:103DA000F3D102E02046FEF77BFC70BD10B5002881
:103DB00004DB0A07130E054A135406E00A07140E23
:103DC000034A00F00F031B1FD45410BD00E400E0B1
:103DD00018ED00E002480068C0F3022070470000C0
:103DE0000CED00E080ED110A7047000010B52DEDDC
:103DF0000A8B04469FED990AF0EE409A9FED970AD0
:103E0000B0EE40AA9FED950AF0EE40AA9FED930A0E
:103E1000B0EE40BA94ED110AD4ED120A30EE600A09
:103E2000F0EE408AB0EE680A00F0FAFDB0EE408A8B
:103E300094ED010AB4EEC80AF1EE10FA0BDD94ED30
:103E4000120A84ED110A9FED850AF0EE408A9FED7B
:103E5000830AB0EE408A94ED080A20EE280AF0EEBC
:103E6000409A94ED0E0AB5EEC00AF1EE10FA09D1AF
:103E700094ED0E0AB5EEC00AF1EE10FA02D1B7EEDB
:103E8000009A32E094ED0F0AB4EEC80AF1EE10FA8F
:103E900002DBB7EE009A1DE094ED0F0AB4EEC80AFB
:103EA000F1EE10FA16D294ED0E0AD4ED0F0A30EEB0
:103EB000200AB4EEC80AF1EE10FA0BDD94ED0E0AFA
:103EC000D4ED0F0A30EE200A30EE480AD4ED0E0A87
:103ED00080EE209A94ED0F0AB4EEC80AF1EE10FAC3
:103EE00003D89FED5E0AB0EE409A94ED0C0AB5EE51
:103EF000C00AF1EE10FA19D094ED0C0AD4ED090ABB
:103F000080EE201AF0EE41BA94ED0C0AB1EE400AB0
:103F1000D4ED090A80EE201AB0EE41CAF0EE6B0A29
:103F2000B0EE4C0A04F14C0000F066FD94ED100A6E
:103F3000B5EEC00AF1EE10FA12D194ED130AD4EDE9
:103F4000000A60EE890A00EEA80A84ED130A94EDD7
:103F5000090AD4ED130A20EE200AB0EE40AA21E0AF
:103F600094ED100AB4EEC80AF1EE10FA12DD94EDE9
:103F7000130AD4ED000A60EE890A00EEA80A84ED67
:103F8000130A94ED090AD4ED130A20EE200AB0EECC
:103F900040AA07E09FED310A84ED130A9FED2F0A36
:103FA000B0EE40AA207A70B994ED0A0AD4ED060A60
:103FB00078EEE00A20EE200AD4ED000A80EE201A06
:103FC000F0EE41AA0FE094ED070AD4ED050A30EEB9
:103FD000600AD4ED0A0A20EE200AD4ED000A80EE31
:103FE000201AF0EE41AA94ED110AD4ED040A30EE45
:103FF000600AD4ED0B0A20EE200AB0EE40BA39EE8A
:104000008A0A30EE2A0A30EE0B0A84ED070A94ED94
:104010000D0AB5EEC00AF1EE10FA0DD094ED0D1AAE
:10402000F0EE410A94ED0D1AB1EE411AB0EE410ADC
:1040300004F11C0000F0E0FC94ED120A84ED030A88
:1040400094ED110A84ED040A94ED070A84ED050A43
:10405000C4ED068ABDEC0A8B10BD00000000000014
:1040600080ED080AC0ED090A80ED0A1AC0ED0B1AAE
:1040700080ED0C2AC0ED0D2A80ED003AC0ED013A2A
:1040800080ED0E4AC0ED0F4A80ED105A0172704764
:1040900090ED070A704780ED0A0A704780ED090A23
:1040A000704780ED080A704780ED120A70470000E3
:1040B0009FED220A80ED030A9FED200A80ED040A9D
:1040C0009FED1E0A80ED050A9FED1C0A80ED060A91
:1040D0009FED1A0A80ED070A9FED180A80ED080A85
:1040E0009FED160A80ED090A9FED140A80ED0A0A79
:1040F0009FED120A80ED0B0A9FED100A80ED0C0A6D
:104100009FED0E0A80ED0D0A9FED0C0A80ED0E0A60
:104110009FED0A0A80ED0F0A9FED080A80ED100A54
:104120009FED060A80ED110A9FED040A80ED120A48
:104130009FED020A80ED130A7047000000000000A6
:104140004100080218BF04200A0E18BF40F0010009
:104150004FF07F4232EA010108BF40F0020001281F
:1041600008BF05207047000010B510EE100A2DEDB5
:10417000068BB7EE001A10EE901AB0EE418A0022BC
:10418000A0F5000CDFEDFE9A4FF00073BCF1FE4F7E
:104190004FF07F4403EB410C80F0B481BCF1804FC1
:1041A000C0F02082F74901449FEDF73AB1F5005F76
:1041B00040F2D48200F58021CB0C03F00F0101EE18
:1041C000901AC3F307137F3BA0EBC350B8EEE12A6C
:1041D00000EE100A1A44DFEDED2AF0EE411A42EE2D
:1041E000221AF0EE613A70EE232A30EE632A12EEC4
:1041F000900A00F500606FF30B0001EE900A73EE79
:10420000E13A33EE804AC1EE223A22EE230A10EE62
:10421000100A00F500606FF30B0000EE100A00EECC
:10422000612A00EE442A62EE232A70EE221A21EE61
:10423000A12ADFEDD73A02EE233A23EE023A20EE2E
:10424000012A22EE811A03EE211A32EE010A10EE43
:10425000100A00F500606FF30B0000EE100A72EE1A
:10426000401A31EE812A9FEDCB1A60EE011A9FEDC4
:10427000CA1A20EE011A9FEDC90A02EE001A31EEA9
:10428000810A10EE100A00F500606FF30B0000EEDB
:10429000100AC34871EEC01A31EE812A784400EB4F
:1042A000C10090ED003AD0ED011A100101EE100AA4
:1042B000F8EEC12A32EE211A31EE001A31EE031A5D
:1042C00031EE221A11EE100A00F500606FF30B00B8
:1042D00009EE100A39EE621A31EE431A31EE400A45
:1042E00030EE610A32EE40AA10EE900A002100F58D
:1042F00000606FF30B0008EE900A084670EEE8AA23
:104300004FF0000029EE280A00F00C01F0EEC00A80
:1043100010EE900AB0F18B4F0DDD10EE900AB4EB69
:10432000400F08D310EE100A4FF08B4262F31E00CC
:1043300008EE900A13E069EE2A0A38EEAA1A4AEE4D
:10434000010A30EE201A11EE100A00F500606FF33A
:104350000B0008EE900A30EE680A70EE209A0C20EE
:104360004FF0000038EEA90AB5EEC00AF1EE10FADF
:1043700034BFFEEE000AF6EE000A30EE800ABDEE13
:10438000C00A10EE100A011100EE101AF8EEC00A71
:1043900000EE100AB8EEC00A38EEC00A30EE290A64
:1043A000DFED801A9FED801A00EE211ADFED7F1AF3
:1043B0007F4900F00F0040EE011A21EE800A794497
:1043C00001EB800191ED001A7A49794401EB8001FB
:1043D000D1ED001A784901EE801A794401EB800092
:1043E000764990ED000A31EE001AB0EEE00A10EEC8
:1043F000100A884215DA10EE100AB4EB400F10D301
:104400009FED6F0A30EE800ADFED6E0A20EE200A83
:1044100068EE010ABDEC068BBCEEC00A20EE200A55
:1044200010BD10EE100A6849884243DA10EE100AF7
:10443000B4EB400F3ED3BDEEE00A68EE010A10EE89
:10444000100A00EBD0725110C90501F17E5100EE47
:10445000101AA0EB6200C00560EE200A00F17E5049
:1044600000EE100A60EE808A18EE900AB4EB400F5E
:104470000FD10220FCF715F800F0BEF910EE101A6B
:1044800018EE100ABDEC068B61F31E0000EE100A58
:1044900010BD18EE900A400011D018EE900AFFF7F8
:1044A0004FFE042808BF00F0AFF9B0EE680ABDEC7B
:1044B000068B10BDF5EEC00AF1EE10FA0FD2022005
:1044C000FBF7EFFF00F0A0F910EE101A18EE100A3B
:1044D000BDEC068B61F31E0000EE100A10BD022039
:1044E000FBF7DFFF00F088F910EE101AB0EE480A73
:1044F00010EE100ABDEC068B61F31E0000EE100AF0
:1045000010BD00BFBCF1804F6CD300BF00F1FF4372
:10451000B3F1FE4F24D200BFB0EEC00A10EE100A75
:10452000C1F3C7537F2B0DDB972BBFF63BAEC3F117
:1045300096034FF0010C0CFA03F3A3F1010C1CEAF3
:10454000010F08D00120FBF7ACFFBDEC068BBDE8E6
:10455000104000F049B90B4218BFBFEE008A21E6B7
:1045600043001CBF4FF08073B3EB400F34D96FF0A2
:104570001A02DFED161A20EE210A10EE100A27E0CB
:1045800000000000001080C0ABAAAA3E0000803DE1
:104590007EE24C3E00B03842D49AB8BB3BAA3842C7
:1045A000C0090000FC596337C9FF753A1872313DE4
:1045B0005E09000092090000020900000000FC42B0
:1045C0000000FE420000004B000040430000004D90
:1045D00010F0004FA0D1E5E5A0F50003B3F1FE4FC8
:1045E00021D2DFE503EB4103B3F1007F11D3F5EEF8
:1045F000C00AF1EE10FA05D1430018BFB4EB400F2A
:1046000076D883E701F0004141F0FC5100EE901AAA
:104610007CE7B3F1807F06D210EE903AA3F5000359
:1046200000EE903A72E720F000426FF0FF4C604CD1
:1046300002EB0C03A34210D321F000439C44A44599
:104640000BD3B0F17E5F18BF5FEA410C50D0B2F1DE
:10465000FF4F98BFB3F1FF4F05D9BDEC068BBDE806
:10466000104000F0BDB8B0F1FF4F0FD0C1F3C752FA
:104670007F2A09DB972A11DAC2F19602012303FA95
:1046800002F2531E0B4205D0002208E011F0004F49
:1046900055D128E00A4218BF012200D1022210F5AC
:1046A000000F13D028B3B0F1004F26D010F1814F86
:1046B0004FD04FF0FE42B2EB400F94BF01200020DC
:1046C000012202EBE171884239D10CE011F0004F78
:1046D00002D0012A38D032E0012A02BF9FED350A0C
:1046E000BDEC068B10BD9FED340ABDEC068B10BDF2
:1046F0002FE011F0004F0CD121E0B1F1FF4F1ED09F
:1047000011F5000F05D011F0004F15D00AB1012AA4
:1047100008D00220FBF7C5FEBDEC068BBDE81040BB
:1047200000F054B80220FBF7BCFE00F04FF8BDECDF
:10473000068BB1EE400A10BD0AB1012A04D0B0EEDA
:10474000690ABDEC068B10BDBDEC068B9FED1B0A04
:1047500010BDBDEC068BB7EE000A10BD30EE410A6D
:10476000B5EE001A9FED172A00EE413AB6EE001A98
:1047700060EE001A00EE431A61EEC11A9FED101AA6
:1047800020EE011A20EE020A9FED0F2A01EE820AA6
:1047900071EE001A11EE900A00F500606FF30B0045
:1047A00009EE100A31EE491A31EE00AA9CE500002C
:1047B000FFFF3F00000080FF0000807F00000080BE
:1047C00000B0B841D49A38BB3BAAB841DFED030A28
:1047D000B7EE001A81EE200A7047000000000000CA
:1047E00030EE200A70470000DFED020A80EEA00ADA
:1047F00070470000000000009FED020A20EE000A52
:1048000070470000000000709FED020A20EE000AD1
:10481000704700000000001010B50748002180F824
:10482000401080F841109FED050A80ED110A044800
:10483000FEF752FD10BD0000B8020020000000008D
:10484000000300201CB5FCF7DBFEFEF7DDF8FDF7EA
:1048500071FFFDF74BFFFDF727FFFDF7B7FFDFED1A
:10486000510A9FED500A0F20FEF72AFA4E494F4891
:10487000FEF774FA64224E494E48FEF71BFBAB204C
:1048800006214D4B0A46CDE900104A494B48FEF738
:1048900031FE00219FED435ADFED424A9FED414A30
:1048A000DFED403A9FED463ADFED462A9FED452A7F
:1048B000DFED3C1A9FED3B1AF7EE040AB2EE0E0A4A
:1048C0004148FFF7CDFB00219FED365ADFED354A19
:1048D0009FED344ADFED333A9FED393ADFED3B2A65
:1048E0009FED3A2ADFED2F1A9FED2E1ADFED380AE1
:1048F0009FED380A34485030FFF7B2FBDFED360A3F
:104900009FED360A0323012228492F48FEF7A0FC19
:104910009FED330A2C48FEF78DFB002440E0314820
:104920000068401C2F49086008460068B0F5FA6F1F
:1049300008D33CB90124002008609FED1A0A2248E0
:10494000FEF778FB2048FEF76FFB274880ED000A52
:104950001D48FEF763FB254880ED000A1A48FEF764
:1049600066FB234880ED000A1748FEF75AFB2148F2
:1049700080ED000A1E491D4B1B4ACDE900100421A1
:104980000E48FEF789FE0D48FEF7AEFD0E48FEF715
:10499000C7FBFEF76FF9FEF787F90020FCF7FCFC78
:1049A000BDE7000000000000C52A0008F803002051
:1049B000552B00082004002014000020B80200201D
:1049C0006F12833ADD7E3C420003002000401C450C
:1049D0000000824200003443000080462CA0994130
:1049E000E4CB16C1100000200000002004000020CD
:1049F000080000200C00002090ED001AB4EEC01A50
:104A0000F1EE10FA02D280ED000A08E090ED001AF3
:104A1000B4EEE01AF1EE10FA01DDC0ED000A7047C5
:104A2000F0EE400AF5EEC00AF1EE10FA02DDB0EE4B
:104A3000600A7047B1EE600AFBE7000021F0004217
:104A4000A2F16052B2F5801F01F0004328BFD2F1FD
:104A50007F6C0BD95FEA001C43EAC20242EB507044
:104A600018BF704728BF20F001007047B2F5801FC3
:104A7000BCBF184670474FEA410C1CF5001F02D21C
:104A8000084600F0D7B870B500F009F800000089BA
:104A9000FFF7F6BF4FF00040A0F5800070470EF121
:104AA000020E2EF0030E5EF8046B364205D4012A86
:104AB00043EB030515F5001F12D8012841EB010C4B
:104AC0001CF5001F0CD80ED14FEAD17C15F5001F44
:104AD0000CEB4C0C0CF1020C08BF4CEBD37C04E04B
:104AE0004FF0080C01E04FEAD37C0CEB4C0526FAA2
:104AF00005F606F00706B6F1040C06D20EEB860C9E
:104B0000BDE870404CF0010C6047DFE80CF0090B89
:104B100002024FF000414FF00000A1F5002170BDEE
:104B200019461046012851EB010418BFD4F50014B2
:104B300084BF002001F0004170BD0808A0F50011FD
:104B40004FEA31017047000043004FEAD30C4FEAAF
:104B50003C0C43401FBF40070CF1605113F0FE4F67
:104B600070471CF0006F03D100200CF0004170472B
:104B70000CF0004343EA507010B540EACC0000F05E
:104B80000EF800BF000000924FEA0001FFF7D5BF0A
:104B90004FF000414FF00000A1F5002170470EF1E9
:104BA000020E2EF0030E5EF8044B244204D44FEAAA
:104BB0004102B2F17F4F11D84FEA4003B3F17F4F6A
:104BC0000CD80ED14FEAD07CB2F17F4F0CEB4C0CDD
:104BD0000CF1020C08BF4CEBD17C04E04FF0080C48
:104BE00001E04FEAD17C0CEB4C0324FA03F404F00F
:104BF0000704B4F1040C06D20EEB840CBDE810409F
:104C00004CF0010C6047DFE80CF0070802024FF09F
:104C10000040A0F5800010BD0846420018BFD2F148
:104C2000807288BF00F0004010BD4FF04070E1EE90
:104C3000100A7047FF2141EAD050C00570470006B6
:104C4000101600061016000000000000000001020F
:104C50000304060708090000000001020304000025
:104C600000000000000000000000B33FB2BE7D3A2B
:104C700000002E40DFCF513800007E40BF51FABA0D
:104C800000E0A44019DAC3BA00E0C840C2ED8AB916
:104C90000040EB40CD1F2CBA001006412AFFFABAA3
:104CA00000C01541DFCFD13700D024419A97703A28
:104CB0000050334189478E3600404141E75B9D38C3
:104CC00000B04E41C00A98B900A05B41558F943A9C
:104CD00000306841DA92C0BA0040744162B3C63A0B
:104CE0000000803F00A0853F00908B3F00C0913FB7
:104CF0000030983F00F09E3F00F0A53F0050AD3FD0
:104D00000000B53F0000BD3F0060C53F0020CE3F22
:104D10000040D73F00C0E03F00C0EA3F0020F53F21
:104D2000000000007D36AC397D3C3839EBDCF438CE
:104D3000320A7E39124C26399B6AED39A4EE83394A
:104D40007F661E39F6398A392B426539A4821139BA
:104D50005B991F39C3EECD39DDE7C637A5A22F39E0
:104D60000000803FC3AA853FC2958B3FD3C3913FCC
:104D7000F037983F32F59E3FD7FEA53F3F58AD3FF5
:104D8000F304B53FA408BD3F2A67C53F8C24CE3F3E
:104D9000FD44D73FDFCCE03FC7C0EA3F7D25F53F6C
:104DA000C44D000800000020B8020000E80100081F
:104DB000E84D0008B802002088190000240200080D
:104DC00059FAFFFF011503637061036369610363AF
:104DD00064610363706F0363696F03A3646F4210C0
:084DE00052011424F40000004C
:04000005080001AD41
:00000001FF
