:020000040800F2
:1000000010200020710200082D270008B3250008E9
:10001000292700082B0500083928000800000000E7
:10002000000000000000000000000000332700086E
:10003000710500080000000031270008352700087E
:100040008B0200088B0200088B0200088B0200085C
:100050008B0200088B0200088B0200088B0200084C
:100060008B0200088B0200088B0200088B0200083C
:100070008B0200088B0200088B0200088B0200082C
:1000800051050008610500088B0200088B0200087A
:1000900031050008410500088B0200088B020008AA
:1000A0008B0200088B0200088B0200088B020008FC
:1000B0008B0200088B0200088B0200088B020008EC
:1000C0008B0200088B0200088B0200088B020008DC
:1000D0008B0200088B020008292800088B02000808
:1000E0008B0200088B0200088B0200088B020008BC
:1000F0008B0200088B0200088B0200088B020008AC
:100100008B0200088B0200088B0200088B0200089B
:100110008B0200088B0200088B0200088B0200088B
:100120008B0200088B0200088B0200088B0200087B
:100130008B0200088B0200088B0200088B0200086B
:100140008B0200088B0200088B0200088B0200085B
:100150008B0200088B0200088B0200088B0200084B
:100160008B0200088B0200088B0200088B0200083B
:100170008B0200088B0200088B02000800000000C0
:100180008B0200088B0200088B0200088B0200081B
:100190008B0200088B0200088B0200088B0200080B
:1001A00000000000000000008B02000800F002F8D0
:1001B00000F04EF80AA090E8000C82448344AAF1B3
:1001C0000107DA4501D100F043F8AFF2090EBAE8B1
:1001D0000F0013F0010F18BFFB1A43F0010318477B
:1001E000344F0000544F00000A4410F8014B14F043
:1001F0000F0508BF10F8015B240908BF10F8014B78
:100200006D1E05D010F8013B6D1E01F8013BF9D1C0
:10021000641E03D0641E01F8015BFBD19142E4D35C
:10022000704700000023002400250026103A28BF54
:1002300078C1FBD8520728BF30C148BF0B60704758
:100240001FB504F0ACFE00F015F91FBD10B510BDD0
:1002500000F036F91146FFF7F3FF04F07FFC00F0E1
:1002600054F903B4FFF7F2FF03BC00F057F90000A4
:100270000948804709480047FEE7FEE7FEE7FEE73A
:10028000FEE7FEE7FEE7FEE7FEE7FEE70448054976
:10029000054A064B704700003D270008AD010008E5
:1002A000101A002010200020101C0020101C00201C
:1002B00053EA020C00F069802DE9F04B4FF0000684
:1002C000002B1FBFB3FA83F503FA05F424FA05F6F1
:1002D0005E4012BF1643B2FA82F502FA05F4C5F188
:1002E00020051EBF22FA05FC44EA0C04203556EA1C
:1002F000044C4FEA144418BF641C4FF000084FF040
:100300000009904271EB030C39D3002919BFB1FAEF
:1003100081F701FA07F6B0FA80F700FA07F6C7F19D
:1003200020071EBF20FA07FC46EA0C062037B6FB62
:10033000F4FCA7EB0507103F07F01F0BCBF12006DD
:100340000CFA0BFB2CFA06F644BFB3460026202F0E
:10035000A4BF5E464FF0000B5BEA060C08BF4FF0EF
:10036000010B19EB0B09ABFB027C48EB0608C01B29
:1003700006FB02CC0BFB03CC71EB0C01C1E70B4677
:10038000024641464846BDE8F08B13B54FF00000E9
:100390004FF00001AFF30080BDE81C4070474FF004
:1003A000000200B5134694469646203922BFA0E8C5
:1003B0000C50A0E80C50B1F12001BFF4F7AF0907D1
:1003C00028BFA0E80C5048BF0CC05DF804EB8900C2
:1003D00028BF40F8042B08BF704748BF20F8022B05
:1003E00011F0804F18BF00F8012B70474FF0013C0F
:1003F00050F8042B51F8043B9A4221D1A2EB0C0394
:10040000934313EACC1317D150F8042B51F8043B53
:100410009A4215D1A2EB0C03934313EACC130BD1F0
:1004200050F8042B51F8043B9A4209D1A2EB0C037B
:10043000934313EACC13DBD04FF00000704700BFAA
:10044000D01A01BAB1FA81F101F0180122FA01F0D3
:10045000CB40C1F12001DBB2C0B2C01A2CFA01F3CB
:10046000D11A914311EAC311E6D170477047704722
:100470007047000070B5064C7C44064D7D4403E097
:10048000206820448047241DAC42F9D170BD000093
:10049000B84C0000B84C000010B500F009F8006836
:1004A00010BD10B5044600F003F8046010BD000054
:1004B00000487047AC19002000487047AC19002074
:1004C0007546FFF7F9FFAE4605006946534620F032
:1004D0000700854618B020B5FFF7D8FEBDE82040DC
:1004E0004FF000064FF000074FF000084FF0000BF0
:1004F00021F00701AC46ACE8C009ACE8C009ACE8A3
:10050000C009ACE8C0098D46704710B50446AFF38A
:1005100000802046BDE81040FFF7A3BE0149182027
:10052000ABBEFEE726000200704700BFFEE70000FA
:1005300010B5024800F021FA10BD00009C03002015
:1005400010B5024800F019FA10BD00009C0300200D
:1005500010B5024800F044FD10BD00000C0400205E
:1005600010B5024800F03CFD10BD00006C040020F6
:10057000704772B600BFFEE7F0B504460D461E4652
:1005800094F8207020688368A86800B900E000BF74
:10059000012F01D0022F7DD103F0806030B903F02C
:1005A000006018B903F0805000287ED0C3F30161C9
:1005B000012088403060A86860B9B5F800C0E868DC
:1005C00040EA4C5C206800F5C07000EB0110C0F8F8
:1005D00000C00FE0D5E901C040EACC00D5F80CC05E
:1005E00040EA0C00D4F800C00CF5C07C0CEB011CF8
:1005F000CCF80000D5F810C0206800F5C07000EB02
:100600000110C0F804C0287D01280ED1206800F533
:10061000C07000EB0110406840F4807C206800F559
:10062000C07000EB0110C0F804C0D079000692F849
:1006300006C040EA0C4092F805C040EA0C2092F84F
:1006400004C040EA0C00D4F800C00CF5C07C0CEBF0
:10065000011CCCF80C00D078000692F802C040EAE9
:100660000C4092F801C040EA0C2092F800C040EA29
:100670000C00D4F800C00CF5C07C0CEB011CCCF8CD
:100680000800206800F5C07000EB0110006840F021
:10069000010C01E00FE008E0206800F5C07000EBFD
:1006A0000110C0F800C00020F0BD606A40F40010E6
:1006B00060620120F8E7606A40F4802060620120F7
:1006C000F2E70000F0B504460A4694F82050012DE8
:1006D00001D0022D7ED1424901F50071086840F039
:1006E00001000860086820F47C5008600868566AB9
:1006F00040EA06200860107D00F01F06012000FA85
:1007000006F3C8699843C861A1F50071D069C8B9FA
:10071000D1F80C029843C1F80C02908880B29689F7
:1007200040EA064601F51070576940F837601088B6
:1007300080B2168940EA064601F51070576900EB51
:10074000C7004660D069012819D1D1F80C021843BE
:10075000C1F80C02908880B2168840EA064601F57E
:100760001070576940F83760908980B2168940EA66
:10077000064601F51070576900EBC70046609069A6
:1007800028B9D1F804029843C1F8040204E0D1F872
:1007900004021843C1F80402106928B9D1F8140200
:1007A0009843C1F8140204E0D1F814021843C1F8C8
:1007B0001402106A012804D1D1F81C021843C1F8B0
:1007C0001C02D1F8000220F00100C1F80002002054
:1007D000F0BDFFE7606A40F4802060620120F7E727
:1007E00000640040704770B5044694F82050012D15
:1007F00001D0022D7DD151B92068C06800F00300FE
:1008000080B9606A40F400106062012070BD206809
:10081000006900F0030028B9606A40F400106062CB
:100820000120F3E7206800F5D87000EB01100068A4
:1008300000F004009060906840B9206800F5D8701E
:1008400000EB01100068400D106007E0206800F523
:10085000D87000EB01100068C0085060206800F5F7
:10086000D87000EB0110006800F00200D060206832
:1008700000F5D87000EB0110406800F00F00082868
:1008800002D30820106108E0206800F5D87000EB62
:100890000110406800F00F001061206800F5D8706A
:1008A00000EB0110406800F47F40000A906120686E
:1008B00000F5D87000EB01104068000C5061206812
:1008C00000F5D87000EB011080681870206800F502
:1008D000D87000EB0110806800F47F40000A587067
:1008E000206800F5D87000EB0110806800F47F00EC
:1008F00000E03CE0000C9870206800F5D87000EB38
:1009000001108068000ED870206800F5D87000EBE8
:100910000110C0681871206800F5D87000EB011054
:10092000C06800F47F40000A5871206800F5D87054
:1009300000EB0110C06800F47F00000C9871206883
:1009400000F5D87000EB0110C068000ED87131B905
:100950002068C06840F020002668F06005E020684C
:10096000006940F020002668306100204EE7606A90
:1009700040F480206062012048E72DE9F05F0446E2
:100980000025206846692068D0F8049020688768B0
:100990002068D0F80CA02068D0F810B02068D0F8FB
:1009A000188006F00100002855D007F00100C0B102
:1009B00001202168886007F0020018B1204600F08D
:1009C0009EFA0EE007F0040010B145F4006508E05F
:1009D00007F0080010B145F4805502E0204600F011
:1009E0008DFA07F48070C8B14FF480702168886078
:1009F00007F4007018B1204600F083FA0EE007F407
:100A0000806010B145F4005508E007F4006010B1B3
:100A100045F4804502E0204600F072FA07F4803089
:100A2000C8B14FF480302168886007F4003018B1F5
:100A3000204600F068FA0EE007F4802010B145F47B
:100A4000004508E007F4002010B145F4803502E0CD
:100A5000204600F057FA06F0080038B10AF01000FE
:100A600020B145F4007510202168C86006F004002C
:100A700040B10AF0080028B108202168C86020466B
:100A800000F0B0F906F0020038B12068C06800F04C
:100A9000030010B1204600F0A7F906F0400038B17D
:100AA0000BF0100020B145F480651020216808612A
:100AB00006F0200040B10BF0080028B108202168A2
:100AC0000861204600F0BCF906F0100038B120683B
:100AD000006900F0030010B1204600F0B3F906F4FD
:100AE000003040B109F0100028B1102021684860A2
:100AF000204600F0D3F906F4803040B109F0080038
:100B000028B1082021684860204600F0FDF906F46D
:100B1000004088B309F0040078B306F4807020B177
:100B200008F0010008B145F0010506F4007020B19D
:100B300008F0020008B145F0020506F4806020B11B
:100B400008F0040008B145F0040506F40060A0B107
:100B500008F0700088B108F07000402817D006DC5B
:100B600010280BD020280CD0302819D10CE05028A8
:100B700010D0602814D110E01DE019E045F0080500
:100B80000FE045F010050CE045F0200509E045F0C8
:100B9000400506E045F0800503E045F4807500E07F
:100BA00000BF00BF2068806920F070002168886164
:100BB0000420216848602DB1606A284360622046A5
:100BC000FFF710FEBDE8F09F70B504460CB9012098
:100BD00070BD94F8200010B9204600F0AFF82068EE
:100BE000006840F001002168086000F0F5FC05464F
:100BF0000DE000F0F1FC401B0A2808D9606A40F4BF
:100C000000306062052084F820000120E0E72068C1
:100C1000406800F001000028EBD02068006820F058
:100C200002002168086000F0D7FC05460DE000F0E6
:100C3000D3FC401B0A2808D9606A40F40030606287
:100C4000052084F820000120C2E72068406800F0F9
:100C500002000028EBD1207E012806D12068006820
:100C600040F080002168086005E02068006820F0FE
:100C7000800021680860607E012806D12068006835
:100C800040F040002168086005E02068006820F01E
:100C9000400021680860A07E012806D12068006815
:100CA00040F020002168086005E02068006820F01E
:100CB000200021680860E07E012806D120680068D5
:100CC00020F010002168086005E02068006840F00E
:100CD000100021680860207F012806D12068006884
:100CE00040F008002168086005E02068006820F0F6
:100CF000080021680860607F012806D1206800682C
:100D000040F004002168086005E02068006820F0D9
:100D1000040021680860D4E90201084321690843FE
:100D2000616908436168491E08432168C861002061
:100D30006062012084F82000002049E710B586B0E9
:100D40000446142101A8FFF72AFB234920688842A2
:100D50003FD100BF002000902048006840F00070A4
:100D60001E4908600846006800F00070009000BF4F
:100D700000BF00BF0020009018481038006840F005
:100D800008001649103908600846006800F008009D
:100D9000009000BF00BF03200190022002900020BD
:100DA0000390032004900920059001A90C4800F04D
:100DB0000BFB00221146142000F09CFC142000F0D4
:100DC00085FC00221146152000F094FC152000F04F
:100DD0007DFC06B010BD00000064004040380240B9
:100DE000000C02407047000010B50446104920680E
:100DF00088420CD10F4BA3F11C0200212046FFF7C3
:100E0000F2FC0C482038816A001D88470FE00A492F
:100E1000206888420BD1094BA3F11C020021204617
:100E2000FFF7E1FC05482038816A001D884710BDA6
:100E300000640040140900200068004040090020C0
:100E40007047000010B504461049206888420CD154
:100E50000F4BA3F11C0201212046FFF7C4FC0C48F4
:100E60002038816A001D88470FE00A4920688842BF
:100E70000BD1094BA3F11C0201212046FFF7B3FC63
:100E800005482038816A001D884710BD0064004075
:100E9000140900200068004040090020704770B528
:100EA000044694F82000012822D1022084F8200072
:100EB0002068006820F001002168086000F08CFBC9
:100EC00005460DE000F088FB401B0A2808D9606A3F
:100ED00040F400306062052084F82000012070BDDD
:100EE0002068406800F001000028EBD16062F6E75E
:100EF000606A40F4002060620120F0E770477047AC
:100F00007047704770477047704770B50446A56DCD
:100F100000F062FB064694F83500022808D08020D5
:100F2000606500BF002084F8340000BF012070BD60
:100F30002068006820F01600216808602068406979
:100F400020F0800021684861206C08B9A06C28B1AD
:100F50002068006820F008002168086020680068A8
:100F600020F001002168086010E000F035FB801BD4
:100F700005280BD920206065032084F8350000BFC8
:100F8000002084F8340000BF0320D0E72068006808
:100F900000F001000028E8D194F85C103F20884060
:100FA000A860012084F8350000BF002084F83400D8
:100FB00000BF00BFBBE7014691F83500022803D00F
:100FC0008020486501207047052081F835000868B9
:100FD000006820F001000A6810600020F3E70000BC
:100FE000F8B50446002000908C4800684FF4165174
:100FF000B0FBF1F7A56D2E6894F85C1008208840CE
:10100000304098B12068006800F0040070B120689A
:10101000006820F004002168086094F85C10082043
:101020008840A860606D40F00100606594F85C1035
:1010300001208840304068B12068406900F080009D
:1010400040B194F85C1001208840A860606D40F0C9
:101050000200606594F85C1004208840304068B15C
:101060002068006800F0020040B194F85C10042091
:101070008840A860606D40F00400606594F85C10E2
:1010800010208840304078B32068006800F00800E5
:1010900050B394F85C1010208840A8602068006865
:1010A00000F4802080B12068006800F4002028B996
:1010B000206CC8B12046216C884715E0A06C98B11F
:1010C0002046A16C88470FE02068006800F480701B
:1010D00028B92068006820F0080021680860206CAA
:1010E00010B12046216C884794F85C10202088407D
:1010F0003040002865D02068006800F0100000280B
:101100005FD094F85C1020208840A86094F83500E7
:10111000052828D12068006820F0160021680860A2
:101120002068406920F0800021684861206C08B97F
:10113000A06C28B12068006820F0080021680860D1
:1011400094F85C103F208840A860012084F83500A6
:1011500000BF002084F8340000BF206D10B120468D
:10116000216D8847F8BD2068006800F4802080B1B8
:101170002068006800F4002028B9606C10B1204697
:10118000616C88471DE0E06BD8B12046E16B884771
:1011900017E02068006800F4807068B92068006873
:1011A00020F0100021680860012084F8350000BF9D
:1011B000002084F8340000BFE06B10B12046E16BE2
:1011C0008847606D38B3606D00F00100F0B1052014
:1011D00084F835002068006820F00100216808606C
:1011E00000BF0098401C0090B84200D905E020687C
:1011F000006800F001000028F3D100BF012084F84E
:10120000350000BF002084F8340000BFE06C10B14E
:101210002046E16C884700BFA4E700005C03002083
:101220002DE9F0410446002500F0D6F9074614B92F
:101230000120BDE8F081606A00B100BF022084F89F
:10124000350000BF002084F8340000BF206800682B
:1012500020F00100216808600AE000F0BDF9C01B21
:10126000052805D920206065032084F83500E0E7D3
:101270002068006800F001000028EED120680568B1
:1012800021480540D4E901010843E1680843216988
:10129000084361690843A1690843E1690843216A79
:1012A00008430543606A042803D1D4E90B010843CD
:1012B0000543206805602068456925F00705606AD8
:1012C0000543606A04280DD1A06A0543E06A48B16D
:1012D000204602F0BFFB28B140206065012084F861
:1012E0003500A6E720684561204602F009FC064665
:1012F00094F85C103F208840B060002060650120B9
:1013000084F83500002094E73F8010F02DE9F04785
:1013100004460D4616461F464FF00008D4F8589074
:1013200000BF94F83400012802D10220BDE8F08704
:10133000012084F8340000BF94F83500012825D13D
:10134000022084F83500002060653B46324629467D
:10135000204602F069FB94F85C103F208840C9F8F1
:1013600008002068006840F0160021680860206CC2
:1013700028B12068006840F00800216808602068F3
:10138000006840F001002168086006E000BF00200E
:1013900084F8340000BF4FF002084046C6E7000062
:1013A00070B5044600F018F906462546681C10B1D1
:1013B00004480078054400BF00F00EF9801BA842E5
:1013C000FAD370BD58030020F8B502460B4600253D
:1013D000002400200021E0E0012606FA01F51E6845
:1013E00006EA0504AC4274D11E7906F00306012E0C
:1013F00004D01E7906F00306022E13D190684F0028
:101400000326BE40B0434F00DE68BE4030439060CC
:10141000506801268E40B0431E79C6F300168E40F8
:10142000304350601E7906F00306032E09D0D068C1
:101430004F000326BE40B0434F009E68BE4030437D
:10144000D0601E7906F00306022E13D1CF0802F1F8
:10145000200656F827004E07F70E0F26BE40B04371
:101460004F07FF0E1E69BE403043CF0802F1200631
:1014700046F8270010684F000326BE40B0431E798F
:1014800006F003064F00BE40304310605E6806F46D
:101490004036002E1DD000BF00260096414E366813
:1014A00046F480463F4F3E603E46366806F480462E
:1014B000009600BF00BF3C4E8F0856F827008E07ED
:1014C000370F0F26BE40B043384EB24202D100263D
:1014D0002EE061E0364EB24201D1012628E0354EC1
:1014E000B24201D1022623E0334EB24201D103269B
:1014F0001EE0324EB24201D1042619E0304EB24213
:1015000001D1052614E02F4EB24201D106260FE08C
:101510002D4EB24201D107260AE02C4EB24201D133
:10152000082605E02A4EB24201D1092600E00A262B
:101530008F073F0FBE4030431B4E8F0846F82700F1
:10154000244E3068A0435E6806F4801606B120433E
:10155000204E3060361D3068A0435E6806F40016E9
:1015600006B120431B4E361D30601A4E361F3068C0
:10157000A0435E6806F4003606B12043154E361FC0
:101580003060361F3068A0435E6806F4803606B1CE
:101590002043104E083E3060491C1029FFF41CAF58
:1015A000F8BD000044380240083801400000024005
:1015B0000004024000080240000C024000100240FB
:1015C0000014024000180240001C024000200240AB
:1015D00000240240083C01400148006870470000B8
:1015E0005003002003480068034909780844014972
:1015F00008607047500300205803002010B50D48C4
:10160000006840F400700B4908600846006840F428
:10161000806008600846006840F48070086003201D
:1016200000F0A6F80F2000F007F800F02BF80020DB
:1016300010BD0000003C024070B504460E48007822
:101640004FF47A71B1FBF0F00C490968B1FBF0F589
:10165000284600F075FC08B1012070BD102C07D29F
:1016600000222146501E00F045F80548046001E0C4
:101670000120F2E70020F0E7580300205C0300207F
:101680005403002008B500BF002000900E480068F9
:1016900040F480400C4908600846006800F480402F
:1016A000009000BF00BF00BF00200090081F00682E
:1016B00040F08050091F08600846006800F0805024
:1016C000009000BF00BF08BD4438024001460846F4
:1016D00000280DDB00BF00BF00F01F0301229A406D
:1016E00043099B0003F1E023C3F8002100BF00BFC2
:1016F00000BF70472DE9F05F80460D461646002773
:1017000002F0E6FC074639462A46334601F0070058
:10171000C0F1070ABAF1040F02D94FF0040A01E040
:10172000C0F1070AD14600F1040ABAF1070F02D24C
:101730004FF0000A01E0A0F1030AD4464FF0010A7D
:101740000AFA09FAAAF1010A0AEA020A0AFA0CFAE2
:101750004FF0010B0BFA0CFBABF1010B0BEA030B87
:101760004AEA0B042146404602F09EFCBDE8F09F89
:1017700000BF00F00702064B19684FF6FF0319403F
:10178000044B0B4343EA0221014B196000BF704731
:101790000CED00E00000FA0538B5002400BF002081
:1017A00000901D48006840F080501B4908600846C2
:1017B000006800F08050009000BF00BF0120174972
:1017C0000864FFF709FF044607E0FFF705FF001B69
:1017D000B0F57A7F01D9032038BD1148406800F484
:1017E0008030B0F5803FF0D101200C494864FFF70C
:1017F000F3FE044607E0FFF7EFFE001BB0F57A7F2B
:1018000001D90320E8E70648406800F40030B0F54D
:10181000003FF0D10020DFE74038024000000E42D8
:101820000070004070B504460D460CB9012070BD33
:101830005848006800F00F00A84209D255490D70C1
:101840000846006800F00F00A84201D00120EEE732
:10185000207800F0020002281DD1207800F004005A
:10186000042805D14C48006840F4E0504A4908601B
:10187000207800F00800082805D14748006840F4A7
:101880006040454908604448006820F0F000A168C5
:10189000084341490860207800F00100A8B360685F
:1018A000012807D13C4808380068C0F34040B8B967
:1018B0000120BCE76068022802D06068032807D1D5
:1018C000354808380068C0F3406048B90120AEE7E9
:1018D000314808380068C0F3400008B90120A6E785
:1018E0002D48006820F00300616808432A49086019
:1018F000FFF772FE064609E0FFF76EFE801B41F21D
:101900008831884202D9032091E707E02248006825
:1019100000F00C006168B0EB810FEDD11D4800684C
:1019200000F00F00A84209D91A490D700846006856
:1019300000F00F00A84201D0012078E7207800F0E5
:101940000400042807D11448006820F4E050E1683E
:10195000084311490860207800F00800082808D1E1
:101960000D48006820F46040216940EAC1000A493E
:10197000086000F03FF808490968C1F30311074AFD
:10198000515CC8400649086006480068FFF754FEED
:1019900000204CE7003C024008380240BA4F0008E3
:1019A0005C030020540300200148006870470000D9
:1019B0005C03002000B5FFF7F7FF04490968C1F395
:1019C0008221034A515CC84000BD00000838024033
:1019D000CA4F000800B5FFF7E7FF04490968C1F3E3
:1019E0004231034A515CC84000BD00000838024043
:1019F000CA4F00082DE9F047002400250026A14623
:101A00002548006800F00C0020B1042805D0082803
:101A10003AD105E0DFF8849039E0DFF8849036E0D1
:101A20001D48001F006800F03F041B48001F0068AD
:101A300000F4800078B11A481749091F0968C1F3FA
:101A40008811A0FB01700146224600233846FEF7AC
:101A50002FFC05460EE011480F49091F0968C1F324
:101A60008811A0FB01700146224600233846FEF78C
:101A70001FFC05460848001F0068C0F30140401CD9
:101A80004600B5FBF6F902E0DFF8109000BF00BF9A
:101A90004846BDE8F0870000083802400024F40002
:101AA000001BB700F8B504460CB90120F8BD20783A
:101AB00000F00100002874D0F948006800F00C0024
:101AC00004280DD0F648006800F00C00082813D157
:101AD000F348001F006800F48000B0F5800F0BD1C0
:101AE000EF4808380068C0F34040002859D06068CB
:101AF000002856D10120D9E700BF6068B0F5803FCB
:101B000008D1E7480838006840F48030E4490839D3
:101B100008601EE06068B0F5A02F0DD1E0480838DD
:101B2000006840F48020DE490839086008460068F3
:101B300040F4803008600CE0D9480838006820F490
:101B40008030D749083908600846006820F48020B2
:101B5000086000BF606890B1FFF73EFD054606E0F3
:101B6000FFF73AFD401B642801D903209EE7CC48CB
:101B700008380068C0F340400028F1D011E0FFF7BA
:101B80002BFD054606E0FFF727FD401B642801D921
:101B900003208BE7C24808380068C0F340400028A3
:101BA000F1D1207800F0020002285FD1BC48006823
:101BB00000F00C0058B1BA48006800F00C0008288A
:101BC0001CD1B748001F006800F48000B0B9B448C9
:101BD00008380068C0F3400020B1E068012801D057
:101BE000012063E7AE480838006820F0F80021695A
:101BF00040EAC100AA490839086037E0E06800B34C
:101C00000120A8490860FFF7E7FC054606E0FFF75A
:101C1000E3FC401B022801D9032047E7A04808380D
:101C20000068C0F340000028F1D09D4808380068E3
:101C300020F0F800216940EAC1009949083908609C
:101C400014E0002097490860FFF7C6FC054606E04F
:101C5000FFF7C2FC401B022801D9032026E7904869
:101C600008380068C0F340000028F1D1207800F067
:101C7000080008282CD16069A8B101208A490860B1
:101C8000FFF7AAFC054606E0FFF7A6FC401B02286A
:101C900001D903200AE782486C300068C0F3400095
:101CA0000028F1D014E000207F490860FFF794FC81
:101CB000054606E0FFF790FC401B022801D90320EF
:101CC000F4E677486C300068C0F340000028F1D19A
:101CD000207800F00400042870D1002770483830C4
:101CE000006800F0805090B900BF002000906C4860
:101CF0003830006840F08050694938310860084643
:101D0000006800F08050009000BF00BF01276748C6
:101D1000006800F48070B0B96448006840F48070D6
:101D200062490860FFF758FC054606E0FFF754FCDF
:101D3000401B022801D90320B8E65C48006800F483
:101D400080700028F2D000BFA068012808D1544854
:101D50006830006840F001005149683108601DE0BA
:101D6000A06805280DD14E486830006840F0040096
:101D70004B49683108600846006840F0010008607F
:101D80000CE047486830006820F0010044496831A1
:101D900008600846006820F00400086000BFA068E2
:101DA000A8B1FFF719FC054609E0FFF715FC401B39
:101DB00041F28831884202D9032077E626E038488C
:101DC00068300068C0F340000028EED013E0FFF751
:101DD00003FC054608E0FFF7FFFB401B41F288319A
:101DE000884201D9032061E62D4868300068C0F3BD
:101DF00040000028EFD1012F07D129483830006872
:101E000020F0805026493831086000BFA0690028C2
:101E100045D02348006800F00C0008285DD0A06978
:101E2000022845D100201F490866FFF7D5FB05466B
:101E300006E0FFF7D1FB401B022801D9032035E65D
:101E4000174808380068C0F340600028F1D1D4E991
:101E500007010843616A40EA81110122A06AC2EBCE
:101E6000500041EA00412C20005D41EA00600C492D
:101E7000091F086001200B490866FFF7ADFB054606
:101E800006E0FFF7A9FB401B022801D903200DE65D
:101E9000034808380068C0F340600028F1D049E0EA
:101EA0000838024000004742800E47420070004060
:101EB000002021490866FFF78FFB054606E0FFF783
:101EC0008BFB401B022801D90320EFE51B4800686B
:101ED000C0F340600028F2D12CE0A069012800D1B5
:101EE000E4E51648001D0668A069012820D006F424
:101EF0008001E06981421BD106F03F01206A8142E6
:101F000016D147F6C0703040616AB0EB811F0FD127
:101F100006F440310122A06AC2EB5000B1EB004F41
:101F200006D106F070612C20005DB1EB006F01D08E
:101F30000120BBE50020B9E500004742003802401F
:101F400070B504462546681EB0F1807F01D301209C
:101F50000FE0681E4FF0E02148610F214FF0FF3085
:101F600002F0A2F800204FF0E0218861072008610C
:101F7000002070BDF8B504460D46164694F84200A0
:101F800020282DD105B10EB90120F8BD0120206314
:101F90000020606332462946204600F0D9FB074600
:101FA000206B012819D100BF002000902068006834
:101FB000009020684068009000BF00BF00BF00BFD5
:101FC00021680C3151E8001F41F0100021680C31EC
:101FD00041E80002002AF3D100E001273846D4E7A7
:101FE0000220D2E770B504460D463C49206888427D
:101FF0000FD13B482946D0F8082200F5827090475F
:102000003748B0F8042200F582712046FFF7B2FF8E
:1020100062E03449206888420FD133482946D0F81D
:10202000082200F5827090472F48B0F8042200F58E
:1020300082712046FFF79EFF4EE02C4920688842BF
:102040000FD12B482946D0F8082200F5827090471E
:102050002748B0F8042200F582712046FFF78AFF76
:102060003AE02449206888420FD123482946D0F815
:10207000082200F5827090471F48B0F8042200F54E
:1020800082712046FFF776FF26E01C4920688842CF
:102090000FD11B482946D0F8082200F582709047DE
:1020A0001748B0F8042200F582712046FFF762FF5E
:1020B00012E01449206888420ED113482946D0F80E
:1020C000082200F5827090470F48B0F8042200F50E
:1020D00082712046FFF74EFF70BD000000100140E6
:1020E0004C09002000440040580B002000480040EC
:1020F000640D0020004C0040700F00200050004094
:102100007C1100200014014088130020704700005B
:102110002DE9F84F0446206805682068C6682068E5
:1021200047694FF00009CA4605F00F09B9F1000FE1
:102130000AD105F0200038B106F0200020B1204679
:1021400001F036FEBDE8F88FB9F1000F7CD007F042
:10215000010018B906F49070002875D005F0010050
:1021600030B106F4807018B1606C40F0010060641A
:1021700005F0040030B107F0010018B1606C40F0C8
:102180000200606405F0020030B107F0010018B1F0
:10219000606C40F00400606405F0080048B106F08F
:1021A000200010B907F0010018B1606C40F0080081
:1021B0006064606C002846D005F0200028B106F06D
:1021C000200010B1204601F0F3FD20684069C0F303
:1021D000801A606C00F0080010B9BAF1000F2DD021
:1021E000204601F0A5FE2068406900F0400040282C
:1021F00020D100BF00BF2168143151E8001F21F039
:1022000040002168143141E80002002AF3D100BFE8
:10221000E06B50B17F48E16B0865E06BFEF7CBFEE9
:1022200088B1E06B016D88470DE02046FFF76EFF37
:1022300009E009E02046FFF769FF04E02046FFF7C8
:1022400065FF002060647DE7206B012878D105F0F0
:102250001000002874D006F010000028FAD000BF4B
:10226000002000902068006800902068406800907E
:1022700000BF00BF2068406900F04000402870D1D6
:10228000E06B006840681FFA80F8B8F1000F58D082
:10229000A08D404555DDA4F82E80E06BC069B0F5F7
:1022A000807F43D000BF00BF21680C3151E8001F80
:1022B00021F4807021680C3141E80002002AF3D13A
:1022C00000BF00BF00BF2168143151E8001F21F09A
:1022D00001002168143141E80002002AF3D100BF57
:1022E00000BF00BF2168143151E8001F21F04000F9
:1022F0002168143141E80002002AF3D100BF2020F8
:1023000084F842000020206300BF00BF21680C3128
:1023100051E8001F21F0100021680C3141E8000253
:10232000002AF3D100BFE06BFEF7EFFD02206063EF
:10233000A08DE28D801A81B22046FFF753FE0EE099
:1023400052E0A08D40450AD1E06BC069B0F5807FB6
:1023500005D102206063A18D2046FFF743FEF1E620
:10236000FFE7A08DE18D401A1FFA80F8E08DD0B311
:10237000B8F1000F37D000BF00BF21680C3151E821
:10238000001F21F4907021680C3141E80002002AFE
:10239000F3D100BF00BF00BF2168143151E8001F16
:1023A00021F001002168143141E80002002AF3D134
:1023B00000BF202084F842000020206300BF00BF3F
:1023C00021680C3151E8001F21F0100021680C3108
:1023D00041E80002002AF3D100BF022060634146B9
:1023E0002046FFF7FFFDADE605F0800030B106F0B6
:1023F000800018B1204601F059FDA3E605F0400029
:1024000030B106F0400018B1204601F034FE99E6E4
:1024100000BF97E69740000810B504460CB90120AC
:1024200010BDA06900B100E000BF94F8410028B9D8
:10243000002084F84000204600F02AF8242084F888
:1024400041002068C06820F400502168C860204620
:1024500001F098FB2068006920F490402168086131
:102460002068406920F02A00216848612068C0681F
:1024700040F400502168C86000206064202084F887
:10248000410084F842000020606300BFC8E70000FC
:1024900010B586B00446142101A8FDF780FF3D4920
:1024A0002068884273D100BF002000903A4800683D
:1024B00040F40030384908600846006800F40030F5
:1024C000009000BF00BF00BF0020009032481038CD
:1024D000006840F00800304910390860084600687C
:1024E00000F00800009000BF00BF602001900220B3
:1024F000029000200390032004900720059001A97A
:102500002648FEF761FF2648264908604FF0006024
:102510004860002123488160C1604FF480610161FF
:10252000002141618161C16101624162FEF778FE73
:1025300008B1FEF71EF800BF1A48E063846300BFCD
:1025400017481830184908604FF000604860402173
:10255000154881600021C1604FF480610161002154
:1025600041618161C16101624162FEF759FE08B1BA
:10257000FDF7FFFF00BF0C48A063846300BF00228B
:1025800011462620FFF7B6F82620FFF79FF806B081
:1025900010BD00000044004040380240000C0240E2
:1025A000886002400C0400206C04002070477047D3
:1025B000704700BFFEE7000010B50D480D490860E8
:1025C0000920486000210B488160C1604FF48031D0
:1025D0000161090141610021017641768176C17670
:1025E00001774177FEF7F0FA08B1FDF7C2FF10BDA1
:1025F000006400409C03002008B500BF002000904C
:102600000E48006840F400100C4908600846006855
:1026100000F40010009000BF00BF002211461020FF
:10262000FFF768F81020FFF751F80022114611203B
:10263000FFF760F81120FFF749F808BD3038024075
:1026400000B587B0142102A8FDF7A9FE00BF002045
:1026500001902548006840F00100234908600846C1
:10266000006800F00100019000BF00BF00BF002023
:1026700001900846006840F00800086008460068BD
:1026800000F00800019000BF00BF00BF00200190D3
:102690000846006840F0800008600846006800F0C6
:1026A0008000019000BF00BF00BF002001900846DD
:1026B000006840F0020008600846006800F0020070
:1026C000019000BF00BF4FF44050029002200390E1
:1026D00000200490032005900920069002A90348D9
:1026E000FEF772FE07B000BD303802400004024021
:1026F00010B50B480B4908604FF4E13048600021E9
:1027000008488160C16001610C2141610021816143
:10271000C161FFF781FE08B1FDF72BFF10BD00007E
:1027200000440040C403002000BFFEE700BFFEE7F6
:102730007047704710B5FEF755FF10BD034800689D
:1027400040F47000014908607047000088ED00E027
:1027500077B581B0044615460298A062A585002091
:102760006064222084F842002C48E16BC8632C4846
:10277000E16B08642B48E16BC8640020E16B0865DD
:1027800002AE32682368191D2B46E06BFEF7BEFDD2
:1027900038B110206064202084F84200012004B089
:1027A00070BD00BF00200090206800680090206885
:1027B0004068009000BF00BF206970B100BF00BF3B
:1027C00021680C3151E8001F41F4807021680C3100
:1027D00041E80002002AF3D100BF00BF00BF21681A
:1027E000143151E8001F41F001002168143141E823
:1027F0000002002AF3D100BF00BF00BF21681431DE
:1028000051E8001F41F040002168143141E8000206
:10281000002AF3D100BF0020C1E70000C33F000839
:102820000D3F0008353B000810B50248FFF770FC6B
:1028300010BD0000C403002000BFFEE710B52DED61
:10284000028BB0EE408A9FED051ADFED040AB0EE70
:10285000480A00F005FDBDEC028B10BD0000000031
:1028600010B52DED028BB0EE408A9FED051AF1EE0A
:10287000480A9FED030A00F0F3FCBDEC028B10BD8B
:102880000000000010B52DED028BB0EE408AB1EED5
:10289000481ADFED040A9FED030A00F0E1FCBDECED
:1028A000028B10BD00000000F0B587B006460C4654
:1028B00017461D4601940020029003900490059550
:1028C0006B463A4601A93046FDF756FE07B0F0BD0B
:1028D0000148024908607047613000084803002041
:1028E0000246164B9A4228D10C2925D2DFE801F086
:1028F0002406080B0E111316191C1E2110481BE08C
:102900000F48801C18E00E48001D15E00C48801D83
:1029100012E00C4810E00B48801C0DE00948001D37
:102920000AE00848801D07E0074805E00648801CCB
:1029300002E00548001D00BF00BF70479C03002057
:1029400068030020600300207003002000B593B0EE
:10295000302107A8FDF723FD142102A8FDF71FFD74
:1029600000BF002001902648006840F080502449B4
:1029700008600846006800F08050019000BF00BF6A
:1029800000BF002001901F48006840F440401D49EE
:1029900008600846006800F44040019000BF00BF96
:1029A000012007900004089002200D9041050E912F
:1029B00006210F91B421109102211191042112914D
:1029C00007A8FFF76FF808B1FDF7D3FDFEF7E4FEA7
:1029D00008B1FDF7CEFD0F200290022003900020E9
:1029E00004904FF4A05005904FF4805006900521BC
:1029F00002A8FEF717FF08B1FDF7BBFD13B000BD3D
:102A0000403802400070004010B504462068A0F233
:102A1000012030B101280AD002280ED0032818D195
:102A200011E004F11C010C4800F05CFD11E004F120
:102A30001C010A4800F056FD0BE004F11C01084897
:102A400000F050FD05E004F11C01064800F04AFDCD
:102A500000BF00BF10BD0000140500200C060020C0
:102A600004070020FC070020F0B58BB007460C4699
:102A700015461E4604F0020080B1E8040190E8000B
:102A800004F0030140EA41000290F0040390F000DA
:102A900004F0030140EA4100049009E0680101905C
:102AA000A007400F029070010390A007400F049010
:102AB000E0100690C4F380000590012009900020EA
:102AC0000790012008900E200A9001A93846FDF7D2
:102AD000F9FD0BB0F0BD000070B52DED048B044680
:102AE0000D462146FE4800F0D9FEFD4800F096FE56
:102AF00008284DD2DFE800F0044D96DFFDFCFBFA1C
:102B0000F74800F08FFEB0EE409AF0EE609A51EC7C
:102B1000190B02F04DF908EE100AB0EE480AF14820
:102B200001F03DFCEE4800F07DFEB0EE409AF0EE84
:102B3000609A51EC190B02F03BF908EE100AB0EE66
:102B4000480AE94801F02BFCE54800F06BFEB0EEC6
:102B5000409AF0EE609A51EC190B02F029F908EE58
:102B6000100AB0EE480AE14801F019FCDC4800F018
:102B700059FEB0EE409AF0EE609A51EC190B02F05B
:102B800017F908EE100AB0EE480AD94801F007FC20
:102B900033E2D34800F046FEB0EE409AF0EE609A81
:102BA00051EC190B02F004F908EE100AB0EE480AD5
:102BB000CC4801F0F1FBCA4800F034FEB0EE409A78
:102BC000F0EE609A51EC190B02F0F2F808EE100AE0
:102BD000B0EE480AC44801F0DFFBC14800F022FE15
:102BE000B0EE409AF0EE609A51EC190B02F0E0F86A
:102BF00008EE100AB0EE480ABC4801F0CDFBB84818
:102C000000F010FEB0EE409AF0EE609A51EC190B15
:102C100002F0CEF808EE100AB0EE480AB44801F00F
:102C2000BBFBEAE1AE4800F0FDFDB0EE409AF0EEED
:102C3000609A51EC190B02F0BBF808EE100AB0EEE6
:102C4000480AA84801F0A5FBA54800F0EBFDB0EE4E
:102C5000409AF0EE609A51EC190B02F0A9F808EED8
:102C6000100AB0EE480AA04801F093FB9C4800F01F
:102C7000D9FDB0EE409AF0EE609A51EC190B02F0DB
:102C800097F808EE100AB0EE480A984801F081FB68
:102C9000934800F0C7FDB0EE409AF0EE609A51EC18
:102CA000190B02F085F808EE100AB0EE480A9048B9
:102CB00001F06FFBA1E18A4800F0B4FDB0EE409A4C
:102CC000F0EE609A51EC190B02F072F808EE100A5F
:102CD000B0EE480A8348503001F061FB804800F0B4
:102CE000A1FDB0EE409AF0EE609A03E0DDE0CEE0A8
:102CF00080E032E051EC190B02F05AF808EE100AAD
:102D0000B0EE480A7848503001F049FB744800F0B2
:102D100089FDB0EE409AF0EE609A51EC190B02F08A
:102D200047F808EE100AB0EE480A7048503001F03B
:102D300036FB6B4800F076FDB0EE409AF0EE609AFC
:102D400051EC190B02F034F808EE100AB0EE480A04
:102D50006748503001F023FB4FE1614800F062FD0D
:102D6000B0EE409AF0EE609A51EC190B02F020F8A8
:102D700008EE100AB0EE480A5A48503001F00CFB39
:102D8000574800F04FFDB0EE409AF0EE609A51ECDB
:102D9000190B02F00DF808EE100AB0EE480A52487E
:102DA000503001F0F9FA4E4800F03CFDB0EE409A88
:102DB000F0EE609A51EC190B01F0FAFF08EE100AE0
:102DC000B0EE480A4948503001F0E6FA444800F0B5
:102DD00029FDB0EE409AF0EE609A51EC190B01F02B
:102DE000E7FF08EE100AB0EE480A4148503001F003
:102DF000D3FA02E13A4800F015FDB0EE409AF0EE49
:102E0000609A51EC190B01F0D3FF08EE100AB0EEF6
:102E1000480A3448503001F0BCFA314800F002FD55
:102E2000B0EE409AF0EE609A51EC190B01F0C0FF41
:102E300008EE100AB0EE480A2B48503001F0A9FA0B
:102E4000274800F0EFFCB0EE409AF0EE609A51ECAB
:102E5000190B01F0ADFF08EE100AB0EE480A234846
:102E6000503001F096FA1E4800F0DCFCB0EE409ABB
:102E7000F0EE609A51EC190B01F09AFF08EE100A7F
:102E8000B0EE480A1A48503001F083FAB5E0144811
:102E900000F0C8FCB0EE408AF0EE608A51EC180BEE
:102EA00001F086FF13490860A7E00D4800F0BAFC66
:102EB000B0EE408AF0EE608A51EC180B01F078FF1A
:102EC0000D490860084690ED000AB5EEC00AF1EE23
:102ED00010FA19D19FED090A00F0C2F810E00000C5
:102EE000CC040020140500200C060020040700205C
:102EF000FC0700201000002014000020000000004B
:102F000040484149086077E0404890ED000AF7EEFC
:102F1000000AB4EE600AF1EE10FA08D13C4890EDD8
:102F2000000AFFF78BFC3B483749086064E03748EC
:102F300090ED000AF0EE000AB4EE600AF1EE10FA2D
:102F400008D1334890ED000A00F066F932482E4966
:102F5000086051E02D4890ED000AF0EE080AB4EE4A
:102F6000600AF1EE10FA08D1294890ED000AFFF747
:102F700077FC2A48244908603EE0244890ED000A86
:102F8000F1EE000AB4EE600AF1EE10FA08D1204822
:102F900090ED000A00F052F921481B4908602BE02F
:102FA0001A4890ED000AF1EE040AB4EE600AF1EE60
:102FB00010FA08D1164890ED000A00F07DFA194881
:102FC0001149086018E0114890ED000AF1EE080A76
:102FD000B4EE600AF1EE10FA08D10D4890ED000A47
:102FE000FFF750FC10480849086005E0084890EDDC
:102FF000000A05480068804700BF00BFBDEC048B95
:1030000070BD00006130000848030020140000205B
:10301000100000203D28000819320008612800082F
:103020003D320008B93400088528000810B5094869
:103030000068401C074908600823074A99010748AF
:10304000FFF732FC03480068092802D1002001493B
:10305000086010BD98030020680300209C03002036
:1030600010B52DED028BB0EE408A9FED051ADFED15
:10307000040A9FED030A00F0F3F8BDEC028B10BDCB
:103080000000000070B504460D462046FDF707FF1E
:103090002068406940F0020021684861206840696A
:1030A00040F01000216848611349206888420FD120
:1030B00012480460856200231A4619462046FFF72D
:1030C000D3FC00231A460C212046FFF7CDFC12E06A
:1030D0000B49206888420ED10A48046085620023AB
:1030E0001A4670212046FFF7BFFC00231A467C21B8
:1030F0002046FFF7B9FC70BD00640040F4080020D2
:10310000006800402009002070B504460D461646B0
:103110003549206888420DD134480460C0F808520F
:10312000A0F80462B0F8042200F582712046FEF790
:1031300021FF58E02E49206888420DD12D480460B7
:10314000C0F80852A0F80462B0F8042200F58271B9
:103150002046FEF70FFF46E02749206888420DD140
:1031600026480460C0F80852A0F80462B0F80422AF
:1031700000F582712046FEF7FDFE34E0204920680C
:1031800088420DD11F480460C0F80852A0F80462BC
:10319000B0F8042200F582712046FEF7EBFE22E033
:1031A0001949206888420DD118480460C0F80852B7
:1031B000A0F80462B0F8042200F582712046FEF700
:1031C000D9FE10E01249206888420CD111480460F1
:1031D000C0F80852A0F80462B0F8042200F5827129
:1031E0002046FEF7C7FE70BD001001404C090020CC
:1031F00000440040580B002000480040640D0020AF
:10320000004C0040700F0020005000407C11002056
:10321000001401408813002010B52DED028BB0EE94
:10322000408A9FED051ADFED040AB1EE480A00F06E
:1032300017F8BDEC028B10BD0000000010B52DED9D
:10324000028BB0EE408A9FED051AF0EE480A9FED22
:10325000030A00F005F8BDEC028B10BD0000000071
:1032600010B52DED0A8BB0EE40BAF0EE60BAB0EEBC
:1032700041CA9FED870AF0EE408A28EE8B0AF7EEEE
:10328000000A70EEE80A834890ED001A00EE810A09
:1032900080ED000A28EEAB0AF7EE000A70EEE80AAD
:1032A0007D4890ED001A00EE810A80ED000A28EEBC
:1032B0008C0AF7EE000A70EEE80A784890ED001AE2
:1032C00000EE810A80ED000A724890ED000AB1EE2E
:1032D000400A7148D0ED000AF1EE600A30EE200A93
:1032E0006E48D0ED000A9FED6A1A10EEC10AF0EEAA
:1032F00040AA684890ED000AB1EE400A6648D0ED59
:10330000000AF1EE600A30EE600A6448D0ED000A6F
:103310009FED5F1A10EEC10AB0EE409A5D4890ED45
:10332000000A5D48D0ED000AF1EE600A30EE600A56
:103330005A48D0ED000A9FED561A10EEC10AF0EE81
:10334000409A544890ED000A5348D0ED000AF1EE3F
:10335000600A30EE200A5148D0ED000A9FED4C1A69
:1033600010EEC10AB0EE40AAB0EEEA0AB0EE408A12
:10337000B0EEC90AB4EEC80AF1EE10FA03DDB0EE01
:10338000C90AB0EE408AB0EEE90AB4EEC80AF1EE1E
:1033900010FA03DDB0EEE90AB0EE408AB0EECA0AD8
:1033A000B4EEC80AF1EE10FA03DDB0EECA0AB0EED0
:1033B000408AB2EE040AB4EEC08AF1EE10FA0FDDD4
:1033C0008AEE880AF0EE40AA89EE080AB0EE409A2A
:1033D00089EE880AF0EE409A8AEE080AB0EE40AA1A
:1033E0009FED2F0A2AEE800AF0EE40AA9FED2C0AEC
:1033F0002AEE000AB0EE40AAB7EE000A29EE000A53
:10340000B0EE409AB7EE000A29EE800AF0EE409A3C
:103410009FED240A2AEE800AF3EE030A80EE201ABA
:10342000F0EE41CAB0EE6C0A1F4800F057F89FED6D
:103430001D0A29EE000AF3EE030A80EE201AF0EED0
:1034400041CAB0EE6C0A194800F048F89FED150A21
:1034500029EE800AF3EE030A80EE201AF0EE41CA4C
:10346000B0EE6C0A124800F039F89FED0E0A2AEE11
:10347000000AF3EE030A80EE201AF0EE41CAB0EE25
:103480006C0A0C4800F02AF8BDEC0A8B10BD000055
:10349000CDCC4C3E1C000020200000202400002049
:1034A0006666863F0000FA43140500200C060020E3
:1034B00004070020FC07002010B52DED028BB0EEB4
:1034C000408AB0EE481ADFED040A9FED030AFFF7C9
:1034D000C7FEBDEC028B10BD0000000080ED3B0A72
:1034E0007047000030B550F8B83F5B1C036003899B
:1034F00003824B780C7843EA04230381CB788C78E1
:1035000043EA04231BB243814B790C7943EA042339
:103510001BB283818B79C3810389048AB8381B1B52
:103520001AB212F5805F05DAD0F8D0305B1CC0F813
:10353000D03007E0B2F5805F04DDD0F8D0305B1EFC
:10354000C0F8D030AC30838A0589446A04FB053367
:10355000036290ED080AF8EEC00A038900EE103A03
:10356000B8EE400A80EE801AB0EE000A21EE000AA2
:10357000DFED130A20EE200AD0ED000A80EE201ABB
:1035800080ED0B1AB0F9163000EE103AB8EEC00A12
:10359000DFED0C0A20EE200AD0ED000A80EE201AA2
:1035A00080ED0C1AB0F9183000EE103AB8EEC00AEF
:1035B00080ED0D0A837E80F83830AC3830BD0000D5
:1035C000DB0F49405077D63D10B52DED028B0446F8
:1035D00094F8E50030B1012818D002282AD0032839
:1035E0007BD145E094ED3C0AD4ED2C1A80EE211AF3
:1035F000B4F8B60000EE100AB8EE400A21EE000A58
:10360000F0EE400A204600F0B7F86CE094ED3C0A7A
:10361000D4ED2C1A80EE211AB4F8B60000EE100A90
:10362000B8EE400A21EE000AF0EE400A204600F013
:10363000A3F858E0D4ED3B0AB0EE600A04F1500064
:1036400000F04EFDD4ED370AB0EE600A04F15000F0
:1036500000F0A8FE04F1500000F046FD04F1500017
:1036600000F094FEB0EE408A204600F085F83AE083
:10367000D4ED3A0AB0EE600A204600F031FDD4EDF8
:10368000360AB0EE600A204600F08CFE204600F0BC
:103690002BFD204600F07AFE84ED3B0AD4ED3B0A78
:1036A000B0EE600A04F1500000F01AFDD4ED370AC4
:1036B000B0EE600A04F1500000F074FE04F1500016
:1036C00000F012FD04F1500000F060FEB0EE408A00
:1036D000204600F051F806E0FFE79FED060A20467D
:1036E00000F04AF800BF00BF204600F031F8BDEC02
:1036F000028B10BD00000000F0B504460D461646D2
:103700001F460F492868884203D10E48C4F8A0001C
:1037100006E00D492868884202D10C48C4F8A00090
:1037200084F8A46084F8E57084ED2B0AC4ED2C0ABB
:1037300031462846FFF7D4F8C4F8A800F0BD0000D1
:1037400000640040F40800200068004020090020C8
:1037500090ED3D0ABDEEC00A10EE101A090AD0F82D
:10376000A820117090ED3D0ABDEEC00A10EE101AAF
:10377000D0F8A8205170704780ED3D0A70470000D6
:1037800010B50446204600F011FE0446503000F00B
:103790000DFE9FED1F0A00F15C0480ED170A9FEDFE
:1037A0001D0A80ED180A4FF400502081400060810E
:1037B0000020E0602061A082E08220836083A083FB
:1037C0002062606284F828009FED130A84ED0B0AE2
:1037D0009FED110A84ED0C0A9FED0F0A84ED0D0A8E
:1037E00084F83800032084F839009FED0B0A84ED3B
:1037F0000F0A9FED090A84ED100A9FED070A84ED78
:10380000110A9FED050A84ED120AAC3C204610BD5A
:103810002CA099410000804600000000014691F96B
:103820004100704710B5044694ED110A10EE101ACD
:10383000084601F043FB41EC100B10BD70B59AB087
:103840000446002506E0206800F58270405D01A96D
:1038500048556D1C206800F58270405D3D28F2D10E
:10386000002001A9485500260FE06422A06802FB51
:10387000060101A8FCF7BAFD30B970B284F8410026
:10388000681CC0B21AB070BD761C2079B042ECDC66
:10389000FF2084F84100681CC0B2F3E770B504460D
:1038A0000E462046FFF7CAFF05462946204600F08F
:1038B00001F870BD2DE9F0412DED048B04460E4654
:1038C0000027012008EE100A9FED300A84ED110A4E
:1038D00094F94100401C18B9BDEC048BBDE8F0819F
:1038E000206800F58270805D2D2804D14FF0FF30F4
:1038F00008EE100A761C354619E0206800F5827043
:10390000405D2E2801D12F4610E0206800F582701E
:10391000405D303800EE100AB8EEC00AD4ED110A4E
:10392000B2EE041A00EE810A84ED110A6D1C2068C3
:1039300000F58270405D232805D0206800F5827074
:10394000405D0028D9D1B7B1F2EE048AE81B00EE41
:10395000100AB8EEC00AF7EE000A30EE609AF0EEF8
:10396000490AB0EE680A00F07DFDD4ED110A80EE40
:10397000801A84ED111A94ED110AF8EEC80A20EEAF
:10398000200A84ED110A00BFA6E700000000000035
:10399000F0B5DDE90554184F0E68BE4202D1174E4E
:1039A000066021E0164F0E68BE4202D1154E066039
:1039B0001AE0154F0E68BE4202D1144E066013E0A5
:1039C000134F0E68BE4202D1124E06600CE0124F39
:1039D0000E68BE4202D1114E066005E0104F0E681F
:1039E000BE4201D10F4E06600271836005734473BD
:1039F00006683471F0BD0000001001404C09002041
:103A000000440040580B002000480040640D002096
:103A1000004C0040700F0020005000407C1100203E
:103A2000001401408813002030B50468246824F491
:103A3000802405682C60046863608468402C04D18D
:103A40000468A2600468E16003E00468A16004689F
:103A5000E26030BD014600208A6A8B69CBB932B181
:103A6000012A0DD0022A03D0032A10D10EE000BF94
:103A7000CB6A03F08073B3F1807F00D1012007E0AF
:103A8000CB6AB3F1C07F00D1012001E000E000BFAC
:103A900034E08B69B3F5005F1AD132B1012A07D047
:103AA000022A03D0032A11D10AE000BF01200EE050
:103AB000CB6A03F08073B3F1807F00D1012006E070
:103AC000CB6AB3F1C07F00D1012000E000BF15E058
:103AD00032B1012A05D0022A04D0032A0CD103E016
:103AE00000BF00BF012008E0CB6A03F08073B3F190
:103AF000807F00D1012000E000BF00BF70470000C0
:103B00000146087810381823B0FBF3F20848805CAF
:103B1000C865032A05D908686FF30900001D886588
:103B200003E008686FF309008865886D704700003E
:103B3000B24F000870B506460025B46B2068406996
:103B4000C0F3C01594F84100212805D125B100200B
:103B5000E084204600F022FA20684069C0F3801516
:103B600094F84200222805D125B10020E0852046A6
:103B700000F0DEF9606C40F0100060642046FEF753
:103B8000C5FA70BD2DE9F84F04462068006920F49D
:103B90004050E1680843216808612169A068084332
:103BA00061690843E169084300902068C06849F2F0
:103BB0000C618843009908432168C8602068406907
:103BC00020F44070A1690843216848617649206863
:103BD000884203D075492068884203D1FDF7FAFE78
:103BE000814602E0FDF7E6FE8146E069B0F5004F50
:103BF0006CD102206168A0FB015003461920A9FB8B
:103C0000007001462A463846FCF752FB6421B0FB9F
:103C1000F1F04FEA001A02206168A0FB01510B4647
:103C20001920A9FB00712A463846FCF741FB834660
:103C300002206168A0FB015003461920A9FB007116
:103C40002A463846FCF734FB6421B0FBF1F000EB68
:103C5000C00101EB0010ABEB8000322101EBC00092
:103C60006421B0FBF1F000F0F8000AEB400A0220FA
:103C70006168A0FB015003461920A9FB00700146B2
:103C80002A463846FCF714FB834602206168A0FBF5
:103C9000015003461920A9FB00712A463846FCF75B
:103CA00007FB6421B0FBF1F000EBC00101EB001059
:103CB000ABEB8000322101EBC0006421B0FBF1F0DE
:103CC00000F007005044216888606AE004206168C1
:103CD000A0FB015003461920A9FB007001462A46AB
:103CE0003846FCF7E5FA824604206168A0FB0150E3
:103CF00003461920A9FB007001462A463846FCF706
:103D0000D7FA6421B0FBF1F000EBC00101EB001029
:103D1000AAEB8000322101EB00106421B0FBF1F02E
:103D200000F0F00A04206168A0FB0170034619202E
:103D3000A9FB00513A462846FCF7BAFA6421B0FBC9
:103D4000F1F00AEB001A04206168A0FB01510B4658
:103D50001920A9FB00712A463846FCF7A9FA8346C8
:103D600004206168A0FB015003461920A9FB0070E4
:103D700001462A463846FCF79BFA6421B0FBF1F075
:103D800000EBC00101EB0010ABEB8000322101EB36
:103D900000106421B0FBF1F000F00F0050442168E6
:103DA0008860BDE8F88F0000001001400014014059
:103DB000F8B504460025002694F84200222873D165
:103DC000A068B0F5805F0BD1206948B9A66A206869
:103DD0004068C0F308003080A06A801CA06214E034
:103DE000A56AA068B0F5805F03D0A06828B92069F3
:103DF00018B920684068287004E02068406800F026
:103E00007F002870A06A401CA062E08D401E80B236
:103E1000E085002846D12068C06820F02000216895
:103E2000C8602068C06820F480702168C86020687D
:103E3000406920F0010021684861202084F8420098
:103E400000206063206B012826D10020206300BF82
:103E500000BF21680C3151E8001F21F010002168DB
:103E60000C3141E80002002AF3D100BF206800684D
:103E700000F0100010280AD100BF00200090206838
:103E80000068009020684068009000BF00BFA18DCE
:103E90002046FEF7A7F802E02046FEF787FB002049
:103EA000F8BD01E00020FBE70220F9E7014691F8A8
:103EB0004100212828D18868B0F5805F0BD10869BE
:103EC00048B90A6A1088C0F308000B685860086A8D
:103ED000801C086205E00B6A581C086218780B68A1
:103EE0005860C88C401E80B2C88458B90868C06841
:103EF00020F080000B68D8600868C06840F040007F
:103F00000B68D860002070470220FCE770B50546BA
:103F1000AC6B01206063206B012805D1A08D4108A6
:103F20002046FEF75FF802E02046FEF740FB70BD3A
:103F300000BF00BF02680C3252E8002F22F49071DB
:103F400002680C3242E80013002BF3D100BF00BF1F
:103F500000BF0268143252E8002F22F0010102680B
:103F6000143242E80013002BF3D100BF016B01298A
:103F70000ED100BF00BF02680C3252E8002F22F0C1
:103F8000100102680C3242E80013002BF3D100BF8D
:103F9000202180F8421000210163704700BF00BF5C
:103FA00002680C3252E8002F22F0C00102680C3285
:103FB00042E80013002BF3D100BF202180F841100C
:103FC000704770B50546AC6B2868006800F48070D7
:103FD000002842D1E08500BF00BF21680C3151E8C4
:103FE000001F21F4807021680C3141E80002002A92
:103FF000F3D100BF00BF00BF2168143151E8001F9A
:1040000021F001002168143141E80002002AF3D1B7
:1040100000BF00BF00BF2168143151E8001F21F02C
:1040200040002168143141E80002002AF3D100BFAA
:10403000202084F84200206B01280ED100BF00BF71
:1040400021680C3151E8001F21F0100021680C316B
:1040500041E80002002AF3D100BF00206063206B1A
:10406000012804D1A18D2046FDF7BCFF02E02046C7
:10407000FEF79CFA70BD10B504462068C06820F0B9
:1040800040002168C860202084F841002046FEF7E7
:104090008FFA002010BD70B50446A56B0020E8859E
:1040A0002846FEF733F870BD10B5002804DB0A0778
:1040B000130E054A135406E00A07140E034A00F0D3
:1040C0000F031B1FD45410BD00E400E018ED00E006
:1040D00002480068C0F30220704700000CED00E0C9
:1040E00080ED110A7047000010B52DED0A8B0446D3
:1040F0009FED990AF0EE409A9FED970AB0EE40AA24
:104100009FED950AF0EE40AA9FED930AB0EE40BAFB
:1041100094ED110AD4ED120A30EE600AF0EE408AF6
:10412000B0EE680A00F036FEB0EE408A94ED010A67
:10413000B4EEC80AF1EE10FA0BDD94ED120A84ED2C
:10414000110A9FED850AF0EE408A9FED830AB0EEDA
:10415000408A94ED080A20EE280AF0EE409A94ED89
:104160000E0AB5EEC00AF1EE10FA09D194ED0F0A6D
:10417000B5EEC00AF1EE10FA02D1B7EE009A32E0C5
:1041800094ED0F0AB4EEC80AF1EE10FA02DBB7EEB6
:10419000009A1DE094ED0F0AB4EEC80AF1EE10FA91
:1041A00016D294ED0E0AD4ED0F0A30EE200AB4EECA
:1041B000C80AF1EE10FA0BDD94ED0E0AD4ED0F0AE9
:1041C00030EE200A30EE480AD4ED0E0A80EE209A36
:1041D00094ED0F0AB4EEC80AF1EE10FA03D89FED81
:1041E0005E0AB0EE409A94ED100AB5EEC00AF1EE08
:1041F00010FA12D194ED130AD4ED000A60EE890A88
:1042000000EEA80A84ED130A94ED090AD4ED130A0E
:1042100020EE200AB0EE40AA21E094ED100AB4EEA0
:10422000C80AF1EE10FA12DD94ED130AD4ED000A7B
:1042300060EE890A00EEA80A84ED130A94ED090ADB
:10424000D4ED130A20EE200AB0EE40AA07E09FED5D
:10425000420A84ED130A9FED400AB0EE40AA94EDA5
:104260000C0AB5EEC00AF1EE10FA19D094ED0C0A62
:10427000D4ED090A80EE201AF0EE41BA94ED0C0A52
:10428000B1EE400AD4ED090A80EE201AB0EE41CA20
:10429000F0EE6B0AB0EE4C0A04F14C0000F066FD43
:1042A000207A70B994ED0A0AD4ED060A78EEE00A95
:1042B00020EE200AD4ED000A80EE201AF0EE41AA8A
:1042C0000FE094ED070AD4ED050A30EE600AD4ED54
:1042D0000A0A20EE200AD4ED000A80EE201AF0EE41
:1042E00041AA94ED110AD4ED040A30EE600AD4ED2F
:1042F0000B0A20EE200AB0EE40BA39EE8A0A30EE00
:104300002A0A30EE0B0A84ED070A94ED0D0AB5EE89
:10431000C00AF1EE10FA0DD094ED0D1AF0EE410A3C
:1043200094ED0D1AB1EE411AB0EE410A04F11C00F1
:1043300000F01CFD94ED120A84ED030A94ED110ABD
:1043400084ED040A94ED070A84ED050AC4ED068A9B
:10435000BDEC0A8B10BD00000000000080ED080AD3
:10436000C0ED090A80ED0A1AC0ED0B1A80ED0C2A87
:10437000C0ED0D2A80ED003AC0ED013A80ED0E4A05
:10438000C0ED0F4A80ED105A0172704790ED070A98
:10439000704780ED0A0A704780ED090A704780ED8A
:1043A000080A704780ED120A704700009FED220A4C
:1043B00080ED030A9FED200A80ED040A9FED1E0A9E
:1043C00080ED050A9FED1C0A80ED060A9FED1A0A92
:1043D00080ED070A9FED180A80ED080A9FED160A86
:1043E00080ED090A9FED140A80ED0A0A9FED120A7A
:1043F00080ED0B0A9FED100A80ED0C0A9FED0E0A6E
:1044000080ED0D0A9FED0C0A80ED0E0A9FED0A0A61
:1044100080ED0F0A9FED080A80ED100A9FED060A55
:1044200080ED110A9FED040A80ED120A9FED020A49
:1044300080ED130A704700000000000041000802F0
:1044400018BF04200A0E18BF40F001004FF07F4251
:1044500032EA010108BF40F00200012808BF052030
:104460007047000010B510EE100A2DED068BB7EE68
:10447000001A10EE901AB0EE418A0022A0F5000C4E
:10448000DFEDFE9A4FF00073BCF1FE4F4FF07F441A
:1044900003EB410C80F0B481BCF1804FC0F020826E
:1044A000F74901449FEDF73AB1F5005F40F2D4823D
:1044B00000F58021CB0C03F00F0101EE901AC3F33D
:1044C00007137F3BA0EBC350B8EEE12A00EE100AC1
:1044D0001A44DFEDED2AF0EE411A42EE221AF0EE18
:1044E000613A70EE232A30EE632A12EE900A00F54C
:1044F00000606FF30B0001EE900A73EEE13A33EEC9
:10450000804AC1EE223A22EE230A10EE100A00F58C
:1045100000606FF30B0000EE100A00EE612A00EE5F
:10452000442A62EE232A70EE221A21EEA12ADFED40
:10453000D73A02EE233A23EE023A20EE012A22EE87
:10454000811A03EE211A32EE010A10EE100A00F56C
:1045500000606FF30B0000EE100A72EE401A31EEAD
:10456000812A9FEDCB1A60EE011A9FEDCA1A20EE48
:10457000011A9FEDC90A02EE001A31EE810A10EE0F
:10458000100A00F500606FF30B0000EE100AC3483C
:1045900071EEC01A31EE812A784400EBC10090ED33
:1045A000003AD0ED011A100101EE100AF8EEC12A0E
:1045B00032EE211A31EE001A31EE031A31EE221AD0
:1045C00011EE100A00F500606FF30B0009EE100AFF
:1045D00039EE621A31EE431A31EE400A30EE610ACA
:1045E00032EE40AA10EE900A002100F500606FF351
:1045F0000B0008EE900A084670EEE8AA4FF00000A3
:1046000029EE280A00F00C01F0EEC00A10EE900A24
:10461000B0F18B4F0DDD10EE900AB4EB400F08D3D4
:1046200010EE100A4FF08B4262F31E0008EE900A63
:1046300013E069EE2A0A38EEAA1A4AEE010A30EEB1
:10464000201A11EE100A00F500606FF30B0008EE5F
:10465000900A30EE680A70EE209A0C204FF00000AD
:1046600038EEA90AB5EEC00AF1EE10FA34BFFEEE3C
:10467000000AF6EE000A30EE800ABDEEC00A10EE27
:10468000100A011100EE101AF8EEC00A00EE100A2E
:10469000B8EEC00A38EEC00A30EE290ADFED801A03
:1046A0009FED801A00EE211ADFED7F1A7F4900F09E
:1046B0000F0040EE011A21EE800A794401EB8001DF
:1046C00091ED001A7A49794401EB8001D1ED001A8D
:1046D000784901EE801A794401EB8000764990ED2B
:1046E000000A31EE001AB0EEE00A10EE100A88421D
:1046F00015DA10EE100AB4EB400F10D39FED6F0ADD
:1047000030EE800ADFED6E0A20EE200A68EE010A24
:10471000BDEC068BBCEEC00A20EE200A10BD10EEE8
:10472000100A6849884243DA10EE100AB4EB400FD1
:104730003ED3BDEEE00A68EE010A10EE100A00EB6F
:10474000D0725110C90501F17E5100EE101AA0EB94
:104750006200C00560EE200A00F17E5000EE100AF3
:1047600060EE808A18EE900AB4EB400F0FD1022061
:10477000FBF797FE00F0BEF910EE101A18EE100AC3
:10478000BDEC068B61F31E0000EE100A10BD18EEA2
:10479000900A400011D018EE900AFFF74FFE04284F
:1047A00008BF00F0AFF9B0EE680ABDEC068B10BD93
:1047B000F5EEC00AF1EE10FA0FD20220FBF771FEFF
:1047C00000F0A0F910EE101A18EE100ABDEC068BDE
:1047D00061F31E0000EE100A10BD0220FBF761FE1F
:1047E00000F088F910EE101AB0EE480A10EE100A28
:1047F000BDEC068B61F31E0000EE100A10BD00BF79
:10480000BCF1804F6CD300BF00F1FF43B3F1FE4F0A
:1048100024D200BFB0EEC00A10EE100AC1F3C75395
:104820007F2B0DDB972BBFF63BAEC3F196034FF00A
:10483000010C0CFA03F3A3F1010C1CEA010F08D0E0
:104840000120FBF72EFEBDEC068BBDE8104000F00A
:1048500049B90B4218BFBFEE008A21E643001CBFD6
:104860004FF08073B3EB400F34D96FF01A02DFEDD5
:10487000161A20EE210A10EE100A27E000000000B0
:10488000001080C0ABAAAA3E0000803D7EE24C3EF4
:1048900000B03842D49AB8BB3BAA3842380A00006C
:1048A000FC596337C9FF753A1872313DD6090000CB
:1048B0000A0A00007A0900000000FC420000FE42E3
:1048C0000000004B000040430000004D10F0004F7E
:1048D000A0D1E5E5A0F50003B3F1FE4F21D2DFE55D
:1048E00003EB4103B3F1007F11D3F5EEC00AF1EE03
:1048F00010FA05D1430018BFB4EB400F76D883E718
:1049000001F0004141F0FC5100EE901A7CE7B3F158
:10491000807F06D210EE903AA3F5000300EE903AA5
:1049200072E720F000426FF0FF4C604C02EB0C038A
:10493000A34210D321F000439C44A4450BD3B0F113
:104940007E5F18BF5FEA410C50D0B2F1FF4F98BFB5
:10495000B3F1FF4F05D9BDEC068BBDE8104000F068
:10496000BDB8B0F1FF4F0FD0C1F3C7527F2A09DBAA
:10497000972A11DAC2F19602012303FA02F2531EBA
:104980000B4205D0002208E011F0004F55D128E07D
:104990000A4218BF012200D1022210F5000F13D0E5
:1049A00028B3B0F1004F26D010F1814F4FD04FF017
:1049B000FE42B2EB400F94BF01200020012202EB27
:1049C000E171884239D10CE011F0004F02D0012A88
:1049D00038D032E0012A02BF9FED350ABDEC068BCC
:1049E00010BD9FED340ABDEC068B10BD2FE011F019
:1049F000004F0CD121E0B1F1FF4F1ED011F5000F97
:104A000005D011F0004F15D00AB1012A08D00220BC
:104A1000FBF747FDBDEC068BBDE8104000F054B835
:104A20000220FBF73EFD00F04FF8BDEC068BB1EE27
:104A3000400A10BD0AB1012A04D0B0EE690ABDECEB
:104A4000068B10BDBDEC068B9FED1B0A10BDBDECA7
:104A5000068BB7EE000A10BD30EE410AB5EE001A23
:104A60009FED172A00EE413AB6EE001A60EE001AEA
:104A700000EE431A61EEC11A9FED101A20EE011AE2
:104A800020EE020A9FED0F2A01EE820A71EE001A53
:104A900011EE900A00F500606FF30B0009EE100AAA
:104AA00031EE491A31EE00AA9CE50000FFFF3F00FD
:104AB000000080FF0000807F0000008000B0B8414F
:104AC000D49A38BB3BAAB841DFED030AB7EE001A0F
:104AD00081EE200A704700000000000030EE200A3E
:104AE00070470000DFED020A80EEA00A7047000068
:104AF000000000009FED020A20EE000A704700004F
:104B0000000000709FED020A20EE000A70470000CE
:104B10000000001010B50B48002180F8401080F80C
:104B200041109FED090A80ED110A0848FEF728FEA2
:104B30000748FEF725FE0748FEF722FE0648FEF767
:104B40001FFE10BDCC040020000000001405002052
:104B50000C06002004070020FC0700201CB5FCF711
:104B60004DFDFDF7F3FEFDF76BFDFDF745FDFDF790
:104B700023FDFDF7BDFD69496948FEF783FA64220C
:104B800068496948FEF7C0FAAB200621674B082246
:104B9000CDE9001064496648FEF7FAFEFDF798FE7D
:104BA00000219FED645ADFED634A9FED624AF7EE04
:104BB000003A9FED613ADFED612A9FED612ADFED5A
:104BC000611A9FED5C1ADFED5B0A9FED5F0A5F489B
:104BD000FFF7C4FB00219FED575ADFED564A9FEDCA
:104BE000554AF7EE003A9FED543ADFED542A9FED17
:104BF000542ADFED541A9FED4F1ADFED4E0A9FED58
:104C0000520A5348FFF7AAFB00219FED4A5ADFEDF5
:104C1000494A9FED484AF7EE003A9FED473ADFEDEB
:104C2000472A9FED472ADFED471A9FED421ADFED35
:104C3000410A9FED450A4748FFF790FB00219FED91
:104C40003D5ADFED3C4A9FED3B4AF7EE003A9FEDBF
:104C50003A3ADFED3A2A9FED3A2ADFED3A1A9FED14
:104C6000351ADFED340A9FED380A3B48FFF776FB33
:104C7000DFED3A0AB7EE000A022301222849334841
:104C80005038FEF739FDDFED350AB7EE000A022392
:104C90001A4623492E485038FEF72EFDDFED2F0A25
:104CA000B7EE000A022303221D492A485038FEF7B6
:104CB00023FDDFED2A0AB7EE000A02230422184979
:104CC00025485038FEF718FD26E0254800680A28D8
:104CD00008D3244890ED000A23480068804700204C
:104CE0001F49086019485038FEF76EFC18485038C4
:104CF000FEF76AFC17485038FEF766FC1648503835
:104D0000FEF762FCFEF792F915480068401C144952
:104D100008600120FCF744FBD7E70000092A0008DF
:104D20009C030020D92A0008C4030020280000208A
:104D3000CC040020000000006F12833A0000FA4506
:104D40000000FA44000096430000A04264050020E1
:104D50005C060020540700204C080020000080461C
:104D60004C030020100000204803002090ED001AA2
:104D7000B4EEC01AF1EE10FA02D280ED000A08E09B
:104D800090ED001AB4EEE01AF1EE10FA01DDC0ED7C
:104D9000000A7047F0EE400AF5EEC00AF1EE10FA94
:104DA00002DDB0EE600A7047B1EE600AFBE700007A
:104DB00021F00042A2F16052B2F5801F01F00043E1
:104DC00028BFD2F17F6C0BD95FEA001C43EAC20214
:104DD00042EB507018BF704728BF20F001007047A9
:104DE000B2F5801FBCBF184670474FEA410C1CF556
:104DF000001F02D2084600F0D7B870B500F009F8DD
:104E000000000089FFF7F6BF4FF00040A0F58000DA
:104E100070470EF1020E2EF0030E5EF8046B364260
:104E200005D4012A43EB030515F5001F12D801280C
:104E300041EB010C1CF5001F0CD80ED14FEAD17CC0
:104E400015F5001F0CEB4C0C0CF1020C08BF4CEBE1
:104E5000D37C04E04FF0080C01E04FEAD37C0CEB6C
:104E60004C0526FA05F606F00706B6F1040C06D244
:104E70000EEB860CBDE870404CF0010C6047DFE89B
:104E80000CF0090B02024FF000414FF00000A1F5B9
:104E9000002170BD19461046012851EB010418BFCE
:104EA000D4F5001484BF002001F0004170BD080853
:104EB000A0F500114FEA31017047000043004FEAAE
:104EC000D30C4FEA3C0C43401FBF40070CF160512C
:104ED00013F0FE4F70471CF0006F03D100200CF060
:104EE000004170470CF0004343EA507010B540EAAF
:104EF000CC0000F00EF800BF000000924FEA000165
:104F0000FFF7D5BF4FF000414FF00000A1F50021A1
:104F100070470EF1020E2EF0030E5EF8044B244291
:104F200004D44FEA4102B2F17F4F11D84FEA400357
:104F3000B3F17F4F0CD80ED14FEAD07CB2F17F4F46
:104F40000CEB4C0C0CF1020C08BF4CEBD17C04E0D8
:104F50004FF0080C01E04FEAD17C0CEB4C0324FA33
:104F600003F404F00704B4F1040C06D20EEB840C35
:104F7000BDE810404CF0010C6047DFE80CF007087A
:104F800002024FF00040A0F5800010BD084642002C
:104F900018BFD2F1807288BF00F0004010BD4FF002
:104FA0004070E1EE100A7047FF2141EAD050C00581
:104FB00070470006101600061016000000000000E2
:104FC00000000102030406070809000000000102B6
:104FD0000304000000000000000000000000B33FD8
:104FE000B2BE7D3A00002E40DFCF513800007E4037
:104FF000BF51FABA00E0A44019DAC3BA00E0C840D1
:10500000C2ED8AB90040EB40CD1F2CBA001006411A
:105010002AFFFABA00C01541DFCFD13700D02441B2
:105020009A97703A0050334189478E36004041418B
:10503000E75B9D3800B04E41C00A98B900A05B41C3
:10504000558F943A00306841DA92C0BA00407441FA
:1050500062B3C63A0000803F00A0853F00908B3FBE
:1050600000C0913F0030983F00F09E3F00F0A53F08
:105070000050AD3F0000B53F0000BD3F0060C53FA0
:105080000020CE3F0040D73F00C0E03F00C0EA3FD5
:105090000020F53F000000007D36AC397D3C3839FA
:1050A000EBDCF438320A7E39124C26399B6AED3932
:1050B000A4EE83397F661E39F6398A392B42653969
:1050C000A48211395B991F39C3EECD39DDE7C637AC
:1050D000A5A22F390000803FC3AA853FC2958B3F10
:1050E000D3C3913FF037983F32F59E3FD7FEA53F9F
:1050F0003F58AD3FF304B53FA408BD3F2A67C53F05
:105100008C24CE3FFD44D73FDFCCE03FC7C0EA3F11
:105110007D25F53F38510008000000209C03000069
:10512000E8010008685100089C030020741C00007E
:1051300024020008E1F9FFFF0129036370610363A2
:105140006961036364610363706F0363696F036381
:10515000646F075F746F72717565036F66784210D4
:085160005201033E24F400009B
:04000005080001AD41
:00000001FF
